{
	"Excercise/SimpleStorage.sol": {
		"simpleStorage": {
			"abi": [
				{
					"inputs": [
						{
							"internalType": "uint256",
							"name": "_favoriteNumber",
							"type": "uint256"
						},
						{
							"internalType": "string",
							"name": "_name",
							"type": "string"
						}
					],
					"name": "addPerson",
					"outputs": [],
					"stateMutability": "nonpayable",
					"type": "function"
				},
				{
					"inputs": [
						{
							"internalType": "uint256",
							"name": "",
							"type": "uint256"
						}
					],
					"name": "favoriteNumberToName",
					"outputs": [
						{
							"internalType": "string",
							"name": "",
							"type": "string"
						}
					],
					"stateMutability": "view",
					"type": "function"
				},
				{
					"inputs": [
						{
							"internalType": "uint256",
							"name": "",
							"type": "uint256"
						}
					],
					"name": "people",
					"outputs": [
						{
							"internalType": "uint256",
							"name": "favoriteNumber",
							"type": "uint256"
						},
						{
							"internalType": "string",
							"name": "name",
							"type": "string"
						}
					],
					"stateMutability": "view",
					"type": "function"
				},
				{
					"inputs": [],
					"name": "retrieve",
					"outputs": [
						{
							"internalType": "uint256",
							"name": "",
							"type": "uint256"
						}
					],
					"stateMutability": "view",
					"type": "function"
				},
				{
					"inputs": [
						{
							"internalType": "uint256",
							"name": "_favoriteNumber",
							"type": "uint256"
						}
					],
					"name": "store",
					"outputs": [],
					"stateMutability": "nonpayable",
					"type": "function"
				}
			],
			"devdoc": {
				"kind": "dev",
				"methods": {},
				"version": 1
			},
			"evm": {
				"assembly": "    /* \"Excercise/SimpleStorage.sol\":61:694  contract simpleStorage {... */\n  mstore(0x40, 0x80)\n  callvalue\n  dup1\n  iszero\n  tag_1\n  jumpi\n  0x00\n  dup1\n  revert\ntag_1:\n  pop\n  dataSize(sub_0)\n  dup1\n  dataOffset(sub_0)\n  0x00\n  codecopy\n  0x00\n  return\nstop\n\nsub_0: assembly {\n        /* \"Excercise/SimpleStorage.sol\":61:694  contract simpleStorage {... */\n      mstore(0x40, 0x80)\n      callvalue\n      dup1\n      iszero\n      tag_1\n      jumpi\n      0x00\n      dup1\n      revert\n    tag_1:\n      pop\n      jumpi(tag_2, lt(calldatasize, 0x04))\n      shr(0xe0, calldataload(0x00))\n      dup1\n      0x2e64cec1\n      eq\n      tag_3\n      jumpi\n      dup1\n      0x6057361d\n      eq\n      tag_4\n      jumpi\n      dup1\n      0x9e7a13ad\n      eq\n      tag_5\n      jumpi\n      dup1\n      0xbc832d4e\n      eq\n      tag_6\n      jumpi\n      dup1\n      0xfe379145\n      eq\n      tag_7\n      jumpi\n    tag_2:\n      0x00\n      dup1\n      revert\n        /* \"Excercise/SimpleStorage.sol\":406:495  function retrieve() public view returns (uint256){... */\n    tag_3:\n      tag_8\n      tag_9\n      jump\t// in\n    tag_8:\n      mload(0x40)\n      tag_10\n      swap2\n      swap1\n      tag_11\n      jump\t// in\n    tag_10:\n      mload(0x40)\n      dup1\n      swap2\n      sub\n      swap1\n      return\n        /* \"Excercise/SimpleStorage.sol\":302:400  function store(uint256 _favoriteNumber) public {... */\n    tag_4:\n      tag_12\n      0x04\n      dup1\n      calldatasize\n      sub\n      dup2\n      add\n      swap1\n      tag_13\n      swap2\n      swap1\n      tag_14\n      jump\t// in\n    tag_13:\n      tag_15\n      jump\t// in\n    tag_12:\n      stop\n        /* \"Excercise/SimpleStorage.sol\":270:292  People[] public people */\n    tag_5:\n      tag_16\n      0x04\n      dup1\n      calldatasize\n      sub\n      dup2\n      add\n      swap1\n      tag_17\n      swap2\n      swap1\n      tag_14\n      jump\t// in\n    tag_17:\n      tag_18\n      jump\t// in\n    tag_16:\n      mload(0x40)\n      tag_19\n      swap3\n      swap2\n      swap1\n      tag_20\n      jump\t// in\n    tag_19:\n      mload(0x40)\n      dup1\n      swap2\n      sub\n      swap1\n      return\n        /* \"Excercise/SimpleStorage.sol\":501:691  function addPerson(uint256 _favoriteNumber, string memory _name) public {... */\n    tag_6:\n      tag_21\n      0x04\n      dup1\n      calldatasize\n      sub\n      dup2\n      add\n      swap1\n      tag_22\n      swap2\n      swap1\n      tag_23\n      jump\t// in\n    tag_22:\n      tag_24\n      jump\t// in\n    tag_21:\n      stop\n        /* \"Excercise/SimpleStorage.sol\":208:263  mapping (uint256 => string) public favoriteNumberToName */\n    tag_7:\n      tag_25\n      0x04\n      dup1\n      calldatasize\n      sub\n      dup2\n      add\n      swap1\n      tag_26\n      swap2\n      swap1\n      tag_14\n      jump\t// in\n    tag_26:\n      tag_27\n      jump\t// in\n    tag_25:\n      mload(0x40)\n      tag_28\n      swap2\n      swap1\n      tag_29\n      jump\t// in\n    tag_28:\n      mload(0x40)\n      dup1\n      swap2\n      sub\n      swap1\n      return\n        /* \"Excercise/SimpleStorage.sol\":406:495  function retrieve() public view returns (uint256){... */\n    tag_9:\n        /* \"Excercise/SimpleStorage.sol\":447:454  uint256 */\n      0x00\n        /* \"Excercise/SimpleStorage.sol\":473:487  favoriteNumber */\n      dup1\n      sload\n        /* \"Excercise/SimpleStorage.sol\":466:487  return favoriteNumber */\n      swap1\n      pop\n        /* \"Excercise/SimpleStorage.sol\":406:495  function retrieve() public view returns (uint256){... */\n      swap1\n      jump\t// out\n        /* \"Excercise/SimpleStorage.sol\":302:400  function store(uint256 _favoriteNumber) public {... */\n    tag_15:\n        /* \"Excercise/SimpleStorage.sol\":377:392  _favoriteNumber */\n      dup1\n        /* \"Excercise/SimpleStorage.sol\":360:374  favoriteNumber */\n      0x00\n        /* \"Excercise/SimpleStorage.sol\":360:392  favoriteNumber = _favoriteNumber */\n      dup2\n      swap1\n      sstore\n      pop\n        /* \"Excercise/SimpleStorage.sol\":302:400  function store(uint256 _favoriteNumber) public {... */\n      pop\n      jump\t// out\n        /* \"Excercise/SimpleStorage.sol\":270:292  People[] public people */\n    tag_18:\n      0x02\n      dup2\n      dup2\n      sload\n      dup2\n      lt\n      tag_32\n      jumpi\n      0x00\n      dup1\n      revert\n    tag_32:\n      swap1\n      0x00\n      mstore\n      keccak256(0x00, 0x20)\n      swap1\n      0x02\n      mul\n      add\n      0x00\n      swap2\n      pop\n      swap1\n      pop\n      dup1\n      0x00\n      add\n      sload\n      swap1\n      dup1\n      0x01\n      add\n      dup1\n      sload\n      tag_34\n      swap1\n      tag_35\n      jump\t// in\n    tag_34:\n      dup1\n      0x1f\n      add\n      0x20\n      dup1\n      swap2\n      div\n      mul\n      0x20\n      add\n      mload(0x40)\n      swap1\n      dup2\n      add\n      0x40\n      mstore\n      dup1\n      swap3\n      swap2\n      swap1\n      dup2\n      dup2\n      mstore\n      0x20\n      add\n      dup3\n      dup1\n      sload\n      tag_36\n      swap1\n      tag_35\n      jump\t// in\n    tag_36:\n      dup1\n      iszero\n      tag_37\n      jumpi\n      dup1\n      0x1f\n      lt\n      tag_38\n      jumpi\n      0x0100\n      dup1\n      dup4\n      sload\n      div\n      mul\n      dup4\n      mstore\n      swap2\n      0x20\n      add\n      swap2\n      jump(tag_37)\n    tag_38:\n      dup3\n      add\n      swap2\n      swap1\n      0x00\n      mstore\n      keccak256(0x00, 0x20)\n      swap1\n    tag_39:\n      dup2\n      sload\n      dup2\n      mstore\n      swap1\n      0x01\n      add\n      swap1\n      0x20\n      add\n      dup1\n      dup4\n      gt\n      tag_39\n      jumpi\n      dup3\n      swap1\n      sub\n      0x1f\n      and\n      dup3\n      add\n      swap2\n    tag_37:\n      pop\n      pop\n      pop\n      pop\n      pop\n      swap1\n      pop\n      dup3\n      jump\t// out\n        /* \"Excercise/SimpleStorage.sol\":501:691  function addPerson(uint256 _favoriteNumber, string memory _name) public {... */\n    tag_24:\n        /* \"Excercise/SimpleStorage.sol\":584:590  people */\n      0x02\n        /* \"Excercise/SimpleStorage.sol\":596:626  People(_favoriteNumber, _name) */\n      mload(0x40)\n      dup1\n      0x40\n      add\n      0x40\n      mstore\n      dup1\n        /* \"Excercise/SimpleStorage.sol\":603:618  _favoriteNumber */\n      dup5\n        /* \"Excercise/SimpleStorage.sol\":596:626  People(_favoriteNumber, _name) */\n      dup2\n      mstore\n      0x20\n      add\n        /* \"Excercise/SimpleStorage.sol\":620:625  _name */\n      dup4\n        /* \"Excercise/SimpleStorage.sol\":596:626  People(_favoriteNumber, _name) */\n      dup2\n      mstore\n      pop\n        /* \"Excercise/SimpleStorage.sol\":584:627  people.push(People(_favoriteNumber, _name)) */\n      swap1\n      dup1\n      0x01\n      dup2\n      sload\n      add\n      dup1\n      dup3\n      sstore\n      dup1\n      swap2\n      pop\n      pop\n      0x01\n      swap1\n      sub\n      swap1\n      0x00\n      mstore\n      keccak256(0x00, 0x20)\n      swap1\n      0x02\n      mul\n      add\n      0x00\n      swap1\n      swap2\n      swap1\n      swap2\n      swap1\n      swap2\n      pop\n      0x00\n      dup3\n      add\n      mload\n      dup2\n      0x00\n      add\n      sstore\n      0x20\n      dup3\n      add\n      mload\n      dup2\n      0x01\n      add\n      swap1\n      dup2\n      tag_42\n      swap2\n      swap1\n      tag_43\n      jump\t// in\n    tag_42:\n      pop\n      pop\n      pop\n        /* \"Excercise/SimpleStorage.sol\":678:683  _name */\n      dup1\n        /* \"Excercise/SimpleStorage.sol\":638:658  favoriteNumberToName */\n      0x01\n        /* \"Excercise/SimpleStorage.sol\":638:675  favoriteNumberToName[_favoriteNumber] */\n      0x00\n        /* \"Excercise/SimpleStorage.sol\":659:674  _favoriteNumber */\n      dup5\n        /* \"Excercise/SimpleStorage.sol\":638:675  favoriteNumberToName[_favoriteNumber] */\n      dup2\n      mstore\n      0x20\n      add\n      swap1\n      dup2\n      mstore\n      0x20\n      add\n      0x00\n      keccak256\n        /* \"Excercise/SimpleStorage.sol\":638:683  favoriteNumberToName[_favoriteNumber] = _name */\n      swap1\n      dup2\n      tag_44\n      swap2\n      swap1\n      tag_43\n      jump\t// in\n    tag_44:\n      pop\n        /* \"Excercise/SimpleStorage.sol\":501:691  function addPerson(uint256 _favoriteNumber, string memory _name) public {... */\n      pop\n      pop\n      jump\t// out\n        /* \"Excercise/SimpleStorage.sol\":208:263  mapping (uint256 => string) public favoriteNumberToName */\n    tag_27:\n      mstore(0x20, 0x01)\n      dup1\n      0x00\n      mstore\n      keccak256(0x00, 0x40)\n      0x00\n      swap2\n      pop\n      swap1\n      pop\n      dup1\n      sload\n      tag_45\n      swap1\n      tag_35\n      jump\t// in\n    tag_45:\n      dup1\n      0x1f\n      add\n      0x20\n      dup1\n      swap2\n      div\n      mul\n      0x20\n      add\n      mload(0x40)\n      swap1\n      dup2\n      add\n      0x40\n      mstore\n      dup1\n      swap3\n      swap2\n      swap1\n      dup2\n      dup2\n      mstore\n      0x20\n      add\n      dup3\n      dup1\n      sload\n      tag_46\n      swap1\n      tag_35\n      jump\t// in\n    tag_46:\n      dup1\n      iszero\n      tag_47\n      jumpi\n      dup1\n      0x1f\n      lt\n      tag_48\n      jumpi\n      0x0100\n      dup1\n      dup4\n      sload\n      div\n      mul\n      dup4\n      mstore\n      swap2\n      0x20\n      add\n      swap2\n      jump(tag_47)\n    tag_48:\n      dup3\n      add\n      swap2\n      swap1\n      0x00\n      mstore\n      keccak256(0x00, 0x20)\n      swap1\n    tag_49:\n      dup2\n      sload\n      dup2\n      mstore\n      swap1\n      0x01\n      add\n      swap1\n      0x20\n      add\n      dup1\n      dup4\n      gt\n      tag_49\n      jumpi\n      dup3\n      swap1\n      sub\n      0x1f\n      and\n      dup3\n      add\n      swap2\n    tag_47:\n      pop\n      pop\n      pop\n      pop\n      pop\n      dup2\n      jump\t// out\n        /* \"#utility.yul\":7:84   */\n    tag_50:\n        /* \"#utility.yul\":44:51   */\n      0x00\n        /* \"#utility.yul\":73:78   */\n      dup2\n        /* \"#utility.yul\":62:78   */\n      swap1\n      pop\n        /* \"#utility.yul\":7:84   */\n      swap2\n      swap1\n      pop\n      jump\t// out\n        /* \"#utility.yul\":90:208   */\n    tag_51:\n        /* \"#utility.yul\":177:201   */\n      tag_90\n        /* \"#utility.yul\":195:200   */\n      dup2\n        /* \"#utility.yul\":177:201   */\n      tag_50\n      jump\t// in\n    tag_90:\n        /* \"#utility.yul\":172:175   */\n      dup3\n        /* \"#utility.yul\":165:202   */\n      mstore\n        /* \"#utility.yul\":90:208   */\n      pop\n      pop\n      jump\t// out\n        /* \"#utility.yul\":214:436   */\n    tag_11:\n        /* \"#utility.yul\":307:311   */\n      0x00\n        /* \"#utility.yul\":345:347   */\n      0x20\n        /* \"#utility.yul\":334:343   */\n      dup3\n        /* \"#utility.yul\":330:348   */\n      add\n        /* \"#utility.yul\":322:348   */\n      swap1\n      pop\n        /* \"#utility.yul\":358:429   */\n      tag_92\n        /* \"#utility.yul\":426:427   */\n      0x00\n        /* \"#utility.yul\":415:424   */\n      dup4\n        /* \"#utility.yul\":411:428   */\n      add\n        /* \"#utility.yul\":402:408   */\n      dup5\n        /* \"#utility.yul\":358:429   */\n      tag_51\n      jump\t// in\n    tag_92:\n        /* \"#utility.yul\":214:436   */\n      swap3\n      swap2\n      pop\n      pop\n      jump\t// out\n        /* \"#utility.yul\":442:517   */\n    tag_52:\n        /* \"#utility.yul\":475:481   */\n      0x00\n        /* \"#utility.yul\":508:510   */\n      0x40\n        /* \"#utility.yul\":502:511   */\n      mload\n        /* \"#utility.yul\":492:511   */\n      swap1\n      pop\n        /* \"#utility.yul\":442:517   */\n      swap1\n      jump\t// out\n        /* \"#utility.yul\":523:640   */\n    tag_53:\n        /* \"#utility.yul\":632:633   */\n      0x00\n        /* \"#utility.yul\":629:630   */\n      dup1\n        /* \"#utility.yul\":622:634   */\n      revert\n        /* \"#utility.yul\":646:763   */\n    tag_54:\n        /* \"#utility.yul\":755:756   */\n      0x00\n        /* \"#utility.yul\":752:753   */\n      dup1\n        /* \"#utility.yul\":745:757   */\n      revert\n        /* \"#utility.yul\":769:891   */\n    tag_55:\n        /* \"#utility.yul\":842:866   */\n      tag_97\n        /* \"#utility.yul\":860:865   */\n      dup2\n        /* \"#utility.yul\":842:866   */\n      tag_50\n      jump\t// in\n    tag_97:\n        /* \"#utility.yul\":835:840   */\n      dup2\n        /* \"#utility.yul\":832:867   */\n      eq\n        /* \"#utility.yul\":822:885   */\n      tag_98\n      jumpi\n        /* \"#utility.yul\":881:882   */\n      0x00\n        /* \"#utility.yul\":878:879   */\n      dup1\n        /* \"#utility.yul\":871:883   */\n      revert\n        /* \"#utility.yul\":822:885   */\n    tag_98:\n        /* \"#utility.yul\":769:891   */\n      pop\n      jump\t// out\n        /* \"#utility.yul\":897:1036   */\n    tag_56:\n        /* \"#utility.yul\":943:948   */\n      0x00\n        /* \"#utility.yul\":981:987   */\n      dup2\n        /* \"#utility.yul\":968:988   */\n      calldataload\n        /* \"#utility.yul\":959:988   */\n      swap1\n      pop\n        /* \"#utility.yul\":997:1030   */\n      tag_100\n        /* \"#utility.yul\":1024:1029   */\n      dup2\n        /* \"#utility.yul\":997:1030   */\n      tag_55\n      jump\t// in\n    tag_100:\n        /* \"#utility.yul\":897:1036   */\n      swap3\n      swap2\n      pop\n      pop\n      jump\t// out\n        /* \"#utility.yul\":1042:1371   */\n    tag_14:\n        /* \"#utility.yul\":1101:1107   */\n      0x00\n        /* \"#utility.yul\":1150:1152   */\n      0x20\n        /* \"#utility.yul\":1138:1147   */\n      dup3\n        /* \"#utility.yul\":1129:1136   */\n      dup5\n        /* \"#utility.yul\":1125:1148   */\n      sub\n        /* \"#utility.yul\":1121:1153   */\n      slt\n        /* \"#utility.yul\":1118:1237   */\n      iszero\n      tag_102\n      jumpi\n        /* \"#utility.yul\":1156:1235   */\n      tag_103\n      tag_53\n      jump\t// in\n    tag_103:\n        /* \"#utility.yul\":1118:1237   */\n    tag_102:\n        /* \"#utility.yul\":1276:1277   */\n      0x00\n        /* \"#utility.yul\":1301:1354   */\n      tag_104\n        /* \"#utility.yul\":1346:1353   */\n      dup5\n        /* \"#utility.yul\":1337:1343   */\n      dup3\n        /* \"#utility.yul\":1326:1335   */\n      dup6\n        /* \"#utility.yul\":1322:1344   */\n      add\n        /* \"#utility.yul\":1301:1354   */\n      tag_56\n      jump\t// in\n    tag_104:\n        /* \"#utility.yul\":1291:1354   */\n      swap2\n      pop\n        /* \"#utility.yul\":1247:1364   */\n      pop\n        /* \"#utility.yul\":1042:1371   */\n      swap3\n      swap2\n      pop\n      pop\n      jump\t// out\n        /* \"#utility.yul\":1377:1476   */\n    tag_57:\n        /* \"#utility.yul\":1429:1435   */\n      0x00\n        /* \"#utility.yul\":1463:1468   */\n      dup2\n        /* \"#utility.yul\":1457:1469   */\n      mload\n        /* \"#utility.yul\":1447:1469   */\n      swap1\n      pop\n        /* \"#utility.yul\":1377:1476   */\n      swap2\n      swap1\n      pop\n      jump\t// out\n        /* \"#utility.yul\":1482:1651   */\n    tag_58:\n        /* \"#utility.yul\":1566:1577   */\n      0x00\n        /* \"#utility.yul\":1600:1606   */\n      dup3\n        /* \"#utility.yul\":1595:1598   */\n      dup3\n        /* \"#utility.yul\":1588:1607   */\n      mstore\n        /* \"#utility.yul\":1640:1644   */\n      0x20\n        /* \"#utility.yul\":1635:1638   */\n      dup3\n        /* \"#utility.yul\":1631:1645   */\n      add\n        /* \"#utility.yul\":1616:1645   */\n      swap1\n      pop\n        /* \"#utility.yul\":1482:1651   */\n      swap3\n      swap2\n      pop\n      pop\n      jump\t// out\n        /* \"#utility.yul\":1657:1964   */\n    tag_59:\n        /* \"#utility.yul\":1725:1726   */\n      0x00\n        /* \"#utility.yul\":1735:1848   */\n    tag_108:\n        /* \"#utility.yul\":1749:1755   */\n      dup4\n        /* \"#utility.yul\":1746:1747   */\n      dup2\n        /* \"#utility.yul\":1743:1756   */\n      lt\n        /* \"#utility.yul\":1735:1848   */\n      iszero\n      tag_110\n      jumpi\n        /* \"#utility.yul\":1834:1835   */\n      dup1\n        /* \"#utility.yul\":1829:1832   */\n      dup3\n        /* \"#utility.yul\":1825:1836   */\n      add\n        /* \"#utility.yul\":1819:1837   */\n      mload\n        /* \"#utility.yul\":1815:1816   */\n      dup2\n        /* \"#utility.yul\":1810:1813   */\n      dup5\n        /* \"#utility.yul\":1806:1817   */\n      add\n        /* \"#utility.yul\":1799:1838   */\n      mstore\n        /* \"#utility.yul\":1771:1773   */\n      0x20\n        /* \"#utility.yul\":1768:1769   */\n      dup2\n        /* \"#utility.yul\":1764:1774   */\n      add\n        /* \"#utility.yul\":1759:1774   */\n      swap1\n      pop\n        /* \"#utility.yul\":1735:1848   */\n      jump(tag_108)\n    tag_110:\n        /* \"#utility.yul\":1866:1872   */\n      dup4\n        /* \"#utility.yul\":1863:1864   */\n      dup2\n        /* \"#utility.yul\":1860:1873   */\n      gt\n        /* \"#utility.yul\":1857:1958   */\n      iszero\n      tag_111\n      jumpi\n        /* \"#utility.yul\":1946:1947   */\n      0x00\n        /* \"#utility.yul\":1937:1943   */\n      dup5\n        /* \"#utility.yul\":1932:1935   */\n      dup5\n        /* \"#utility.yul\":1928:1944   */\n      add\n        /* \"#utility.yul\":1921:1948   */\n      mstore\n        /* \"#utility.yul\":1857:1958   */\n    tag_111:\n        /* \"#utility.yul\":1706:1964   */\n      pop\n        /* \"#utility.yul\":1657:1964   */\n      pop\n      pop\n      pop\n      jump\t// out\n        /* \"#utility.yul\":1970:2072   */\n    tag_60:\n        /* \"#utility.yul\":2011:2017   */\n      0x00\n        /* \"#utility.yul\":2062:2064   */\n      0x1f\n        /* \"#utility.yul\":2058:2065   */\n      not\n        /* \"#utility.yul\":2053:2055   */\n      0x1f\n        /* \"#utility.yul\":2046:2051   */\n      dup4\n        /* \"#utility.yul\":2042:2056   */\n      add\n        /* \"#utility.yul\":2038:2066   */\n      and\n        /* \"#utility.yul\":2028:2066   */\n      swap1\n      pop\n        /* \"#utility.yul\":1970:2072   */\n      swap2\n      swap1\n      pop\n      jump\t// out\n        /* \"#utility.yul\":2078:2442   */\n    tag_61:\n        /* \"#utility.yul\":2166:2169   */\n      0x00\n        /* \"#utility.yul\":2194:2233   */\n      tag_114\n        /* \"#utility.yul\":2227:2232   */\n      dup3\n        /* \"#utility.yul\":2194:2233   */\n      tag_57\n      jump\t// in\n    tag_114:\n        /* \"#utility.yul\":2249:2320   */\n      tag_115\n        /* \"#utility.yul\":2313:2319   */\n      dup2\n        /* \"#utility.yul\":2308:2311   */\n      dup6\n        /* \"#utility.yul\":2249:2320   */\n      tag_58\n      jump\t// in\n    tag_115:\n        /* \"#utility.yul\":2242:2320   */\n      swap4\n      pop\n        /* \"#utility.yul\":2329:2381   */\n      tag_116\n        /* \"#utility.yul\":2374:2380   */\n      dup2\n        /* \"#utility.yul\":2369:2372   */\n      dup6\n        /* \"#utility.yul\":2362:2366   */\n      0x20\n        /* \"#utility.yul\":2355:2360   */\n      dup7\n        /* \"#utility.yul\":2351:2367   */\n      add\n        /* \"#utility.yul\":2329:2381   */\n      tag_59\n      jump\t// in\n    tag_116:\n        /* \"#utility.yul\":2406:2435   */\n      tag_117\n        /* \"#utility.yul\":2428:2434   */\n      dup2\n        /* \"#utility.yul\":2406:2435   */\n      tag_60\n      jump\t// in\n    tag_117:\n        /* \"#utility.yul\":2401:2404   */\n      dup5\n        /* \"#utility.yul\":2397:2436   */\n      add\n        /* \"#utility.yul\":2390:2436   */\n      swap2\n      pop\n        /* \"#utility.yul\":2170:2442   */\n      pop\n        /* \"#utility.yul\":2078:2442   */\n      swap3\n      swap2\n      pop\n      pop\n      jump\t// out\n        /* \"#utility.yul\":2448:2871   */\n    tag_20:\n        /* \"#utility.yul\":2589:2593   */\n      0x00\n        /* \"#utility.yul\":2627:2629   */\n      0x40\n        /* \"#utility.yul\":2616:2625   */\n      dup3\n        /* \"#utility.yul\":2612:2630   */\n      add\n        /* \"#utility.yul\":2604:2630   */\n      swap1\n      pop\n        /* \"#utility.yul\":2640:2711   */\n      tag_119\n        /* \"#utility.yul\":2708:2709   */\n      0x00\n        /* \"#utility.yul\":2697:2706   */\n      dup4\n        /* \"#utility.yul\":2693:2710   */\n      add\n        /* \"#utility.yul\":2684:2690   */\n      dup6\n        /* \"#utility.yul\":2640:2711   */\n      tag_51\n      jump\t// in\n    tag_119:\n        /* \"#utility.yul\":2758:2767   */\n      dup2\n        /* \"#utility.yul\":2752:2756   */\n      dup2\n        /* \"#utility.yul\":2748:2768   */\n      sub\n        /* \"#utility.yul\":2743:2745   */\n      0x20\n        /* \"#utility.yul\":2732:2741   */\n      dup4\n        /* \"#utility.yul\":2728:2746   */\n      add\n        /* \"#utility.yul\":2721:2769   */\n      mstore\n        /* \"#utility.yul\":2786:2864   */\n      tag_120\n        /* \"#utility.yul\":2859:2863   */\n      dup2\n        /* \"#utility.yul\":2850:2856   */\n      dup5\n        /* \"#utility.yul\":2786:2864   */\n      tag_61\n      jump\t// in\n    tag_120:\n        /* \"#utility.yul\":2778:2864   */\n      swap1\n      pop\n        /* \"#utility.yul\":2448:2871   */\n      swap4\n      swap3\n      pop\n      pop\n      pop\n      jump\t// out\n        /* \"#utility.yul\":2877:2994   */\n    tag_62:\n        /* \"#utility.yul\":2986:2987   */\n      0x00\n        /* \"#utility.yul\":2983:2984   */\n      dup1\n        /* \"#utility.yul\":2976:2988   */\n      revert\n        /* \"#utility.yul\":3000:3117   */\n    tag_63:\n        /* \"#utility.yul\":3109:3110   */\n      0x00\n        /* \"#utility.yul\":3106:3107   */\n      dup1\n        /* \"#utility.yul\":3099:3111   */\n      revert\n        /* \"#utility.yul\":3123:3303   */\n    tag_64:\n        /* \"#utility.yul\":3171:3248   */\n      0x4e487b7100000000000000000000000000000000000000000000000000000000\n        /* \"#utility.yul\":3168:3169   */\n      0x00\n        /* \"#utility.yul\":3161:3249   */\n      mstore\n        /* \"#utility.yul\":3268:3272   */\n      0x41\n        /* \"#utility.yul\":3265:3266   */\n      0x04\n        /* \"#utility.yul\":3258:3273   */\n      mstore\n        /* \"#utility.yul\":3292:3296   */\n      0x24\n        /* \"#utility.yul\":3289:3290   */\n      0x00\n        /* \"#utility.yul\":3282:3297   */\n      revert\n        /* \"#utility.yul\":3309:3590   */\n    tag_65:\n        /* \"#utility.yul\":3392:3419   */\n      tag_125\n        /* \"#utility.yul\":3414:3418   */\n      dup3\n        /* \"#utility.yul\":3392:3419   */\n      tag_60\n      jump\t// in\n    tag_125:\n        /* \"#utility.yul\":3384:3390   */\n      dup2\n        /* \"#utility.yul\":3380:3420   */\n      add\n        /* \"#utility.yul\":3522:3528   */\n      dup2\n        /* \"#utility.yul\":3510:3520   */\n      dup2\n        /* \"#utility.yul\":3507:3529   */\n      lt\n        /* \"#utility.yul\":3486:3504   */\n      0xffffffffffffffff\n        /* \"#utility.yul\":3474:3484   */\n      dup3\n        /* \"#utility.yul\":3471:3505   */\n      gt\n        /* \"#utility.yul\":3468:3530   */\n      or\n        /* \"#utility.yul\":3465:3553   */\n      iszero\n      tag_126\n      jumpi\n        /* \"#utility.yul\":3533:3551   */\n      tag_127\n      tag_64\n      jump\t// in\n    tag_127:\n        /* \"#utility.yul\":3465:3553   */\n    tag_126:\n        /* \"#utility.yul\":3573:3583   */\n      dup1\n        /* \"#utility.yul\":3569:3571   */\n      0x40\n        /* \"#utility.yul\":3562:3584   */\n      mstore\n        /* \"#utility.yul\":3352:3590   */\n      pop\n        /* \"#utility.yul\":3309:3590   */\n      pop\n      pop\n      jump\t// out\n        /* \"#utility.yul\":3596:3725   */\n    tag_66:\n        /* \"#utility.yul\":3630:3636   */\n      0x00\n        /* \"#utility.yul\":3657:3677   */\n      tag_129\n      tag_52\n      jump\t// in\n    tag_129:\n        /* \"#utility.yul\":3647:3677   */\n      swap1\n      pop\n        /* \"#utility.yul\":3686:3719   */\n      tag_130\n        /* \"#utility.yul\":3714:3718   */\n      dup3\n        /* \"#utility.yul\":3706:3712   */\n      dup3\n        /* \"#utility.yul\":3686:3719   */\n      tag_65\n      jump\t// in\n    tag_130:\n        /* \"#utility.yul\":3596:3725   */\n      swap2\n      swap1\n      pop\n      jump\t// out\n        /* \"#utility.yul\":3731:4039   */\n    tag_67:\n        /* \"#utility.yul\":3793:3797   */\n      0x00\n        /* \"#utility.yul\":3883:3901   */\n      0xffffffffffffffff\n        /* \"#utility.yul\":3875:3881   */\n      dup3\n        /* \"#utility.yul\":3872:3902   */\n      gt\n        /* \"#utility.yul\":3869:3925   */\n      iszero\n      tag_132\n      jumpi\n        /* \"#utility.yul\":3905:3923   */\n      tag_133\n      tag_64\n      jump\t// in\n    tag_133:\n        /* \"#utility.yul\":3869:3925   */\n    tag_132:\n        /* \"#utility.yul\":3943:3972   */\n      tag_134\n        /* \"#utility.yul\":3965:3971   */\n      dup3\n        /* \"#utility.yul\":3943:3972   */\n      tag_60\n      jump\t// in\n    tag_134:\n        /* \"#utility.yul\":3935:3972   */\n      swap1\n      pop\n        /* \"#utility.yul\":4027:4031   */\n      0x20\n        /* \"#utility.yul\":4021:4025   */\n      dup2\n        /* \"#utility.yul\":4017:4032   */\n      add\n        /* \"#utility.yul\":4009:4032   */\n      swap1\n      pop\n        /* \"#utility.yul\":3731:4039   */\n      swap2\n      swap1\n      pop\n      jump\t// out\n        /* \"#utility.yul\":4045:4199   */\n    tag_68:\n        /* \"#utility.yul\":4129:4135   */\n      dup3\n        /* \"#utility.yul\":4124:4127   */\n      dup2\n        /* \"#utility.yul\":4119:4122   */\n      dup4\n        /* \"#utility.yul\":4106:4136   */\n      calldatacopy\n        /* \"#utility.yul\":4191:4192   */\n      0x00\n        /* \"#utility.yul\":4182:4188   */\n      dup4\n        /* \"#utility.yul\":4177:4180   */\n      dup4\n        /* \"#utility.yul\":4173:4189   */\n      add\n        /* \"#utility.yul\":4166:4193   */\n      mstore\n        /* \"#utility.yul\":4045:4199   */\n      pop\n      pop\n      pop\n      jump\t// out\n        /* \"#utility.yul\":4205:4617   */\n    tag_69:\n        /* \"#utility.yul\":4283:4288   */\n      0x00\n        /* \"#utility.yul\":4308:4374   */\n      tag_137\n        /* \"#utility.yul\":4324:4373   */\n      tag_138\n        /* \"#utility.yul\":4366:4372   */\n      dup5\n        /* \"#utility.yul\":4324:4373   */\n      tag_67\n      jump\t// in\n    tag_138:\n        /* \"#utility.yul\":4308:4374   */\n      tag_66\n      jump\t// in\n    tag_137:\n        /* \"#utility.yul\":4299:4374   */\n      swap1\n      pop\n        /* \"#utility.yul\":4397:4403   */\n      dup3\n        /* \"#utility.yul\":4390:4395   */\n      dup2\n        /* \"#utility.yul\":4383:4404   */\n      mstore\n        /* \"#utility.yul\":4435:4439   */\n      0x20\n        /* \"#utility.yul\":4428:4433   */\n      dup2\n        /* \"#utility.yul\":4424:4440   */\n      add\n        /* \"#utility.yul\":4473:4476   */\n      dup5\n        /* \"#utility.yul\":4464:4470   */\n      dup5\n        /* \"#utility.yul\":4459:4462   */\n      dup5\n        /* \"#utility.yul\":4455:4471   */\n      add\n        /* \"#utility.yul\":4452:4477   */\n      gt\n        /* \"#utility.yul\":4449:4561   */\n      iszero\n      tag_139\n      jumpi\n        /* \"#utility.yul\":4480:4559   */\n      tag_140\n      tag_63\n      jump\t// in\n    tag_140:\n        /* \"#utility.yul\":4449:4561   */\n    tag_139:\n        /* \"#utility.yul\":4570:4611   */\n      tag_141\n        /* \"#utility.yul\":4604:4610   */\n      dup5\n        /* \"#utility.yul\":4599:4602   */\n      dup3\n        /* \"#utility.yul\":4594:4597   */\n      dup6\n        /* \"#utility.yul\":4570:4611   */\n      tag_68\n      jump\t// in\n    tag_141:\n        /* \"#utility.yul\":4289:4617   */\n      pop\n        /* \"#utility.yul\":4205:4617   */\n      swap4\n      swap3\n      pop\n      pop\n      pop\n      jump\t// out\n        /* \"#utility.yul\":4637:4977   */\n    tag_70:\n        /* \"#utility.yul\":4693:4698   */\n      0x00\n        /* \"#utility.yul\":4742:4745   */\n      dup3\n        /* \"#utility.yul\":4735:4739   */\n      0x1f\n        /* \"#utility.yul\":4727:4733   */\n      dup4\n        /* \"#utility.yul\":4723:4740   */\n      add\n        /* \"#utility.yul\":4719:4746   */\n      slt\n        /* \"#utility.yul\":4709:4831   */\n      tag_143\n      jumpi\n        /* \"#utility.yul\":4750:4829   */\n      tag_144\n      tag_62\n      jump\t// in\n    tag_144:\n        /* \"#utility.yul\":4709:4831   */\n    tag_143:\n        /* \"#utility.yul\":4867:4873   */\n      dup2\n        /* \"#utility.yul\":4854:4874   */\n      calldataload\n        /* \"#utility.yul\":4892:4971   */\n      tag_145\n        /* \"#utility.yul\":4967:4970   */\n      dup5\n        /* \"#utility.yul\":4959:4965   */\n      dup3\n        /* \"#utility.yul\":4952:4956   */\n      0x20\n        /* \"#utility.yul\":4944:4950   */\n      dup7\n        /* \"#utility.yul\":4940:4957   */\n      add\n        /* \"#utility.yul\":4892:4971   */\n      tag_69\n      jump\t// in\n    tag_145:\n        /* \"#utility.yul\":4883:4971   */\n      swap2\n      pop\n        /* \"#utility.yul\":4699:4977   */\n      pop\n        /* \"#utility.yul\":4637:4977   */\n      swap3\n      swap2\n      pop\n      pop\n      jump\t// out\n        /* \"#utility.yul\":4983:5637   */\n    tag_23:\n        /* \"#utility.yul\":5061:5067   */\n      0x00\n        /* \"#utility.yul\":5069:5075   */\n      dup1\n        /* \"#utility.yul\":5118:5120   */\n      0x40\n        /* \"#utility.yul\":5106:5115   */\n      dup4\n        /* \"#utility.yul\":5097:5104   */\n      dup6\n        /* \"#utility.yul\":5093:5116   */\n      sub\n        /* \"#utility.yul\":5089:5121   */\n      slt\n        /* \"#utility.yul\":5086:5205   */\n      iszero\n      tag_147\n      jumpi\n        /* \"#utility.yul\":5124:5203   */\n      tag_148\n      tag_53\n      jump\t// in\n    tag_148:\n        /* \"#utility.yul\":5086:5205   */\n    tag_147:\n        /* \"#utility.yul\":5244:5245   */\n      0x00\n        /* \"#utility.yul\":5269:5322   */\n      tag_149\n        /* \"#utility.yul\":5314:5321   */\n      dup6\n        /* \"#utility.yul\":5305:5311   */\n      dup3\n        /* \"#utility.yul\":5294:5303   */\n      dup7\n        /* \"#utility.yul\":5290:5312   */\n      add\n        /* \"#utility.yul\":5269:5322   */\n      tag_56\n      jump\t// in\n    tag_149:\n        /* \"#utility.yul\":5259:5322   */\n      swap3\n      pop\n        /* \"#utility.yul\":5215:5332   */\n      pop\n        /* \"#utility.yul\":5399:5401   */\n      0x20\n        /* \"#utility.yul\":5388:5397   */\n      dup4\n        /* \"#utility.yul\":5384:5402   */\n      add\n        /* \"#utility.yul\":5371:5403   */\n      calldataload\n        /* \"#utility.yul\":5430:5448   */\n      0xffffffffffffffff\n        /* \"#utility.yul\":5422:5428   */\n      dup2\n        /* \"#utility.yul\":5419:5449   */\n      gt\n        /* \"#utility.yul\":5416:5533   */\n      iszero\n      tag_150\n      jumpi\n        /* \"#utility.yul\":5452:5531   */\n      tag_151\n      tag_54\n      jump\t// in\n    tag_151:\n        /* \"#utility.yul\":5416:5533   */\n    tag_150:\n        /* \"#utility.yul\":5557:5620   */\n      tag_152\n        /* \"#utility.yul\":5612:5619   */\n      dup6\n        /* \"#utility.yul\":5603:5609   */\n      dup3\n        /* \"#utility.yul\":5592:5601   */\n      dup7\n        /* \"#utility.yul\":5588:5610   */\n      add\n        /* \"#utility.yul\":5557:5620   */\n      tag_70\n      jump\t// in\n    tag_152:\n        /* \"#utility.yul\":5547:5620   */\n      swap2\n      pop\n        /* \"#utility.yul\":5342:5630   */\n      pop\n        /* \"#utility.yul\":4983:5637   */\n      swap3\n      pop\n      swap3\n      swap1\n      pop\n      jump\t// out\n        /* \"#utility.yul\":5643:5956   */\n    tag_29:\n        /* \"#utility.yul\":5756:5760   */\n      0x00\n        /* \"#utility.yul\":5794:5796   */\n      0x20\n        /* \"#utility.yul\":5783:5792   */\n      dup3\n        /* \"#utility.yul\":5779:5797   */\n      add\n        /* \"#utility.yul\":5771:5797   */\n      swap1\n      pop\n        /* \"#utility.yul\":5843:5852   */\n      dup2\n        /* \"#utility.yul\":5837:5841   */\n      dup2\n        /* \"#utility.yul\":5833:5853   */\n      sub\n        /* \"#utility.yul\":5829:5830   */\n      0x00\n        /* \"#utility.yul\":5818:5827   */\n      dup4\n        /* \"#utility.yul\":5814:5831   */\n      add\n        /* \"#utility.yul\":5807:5854   */\n      mstore\n        /* \"#utility.yul\":5871:5949   */\n      tag_154\n        /* \"#utility.yul\":5944:5948   */\n      dup2\n        /* \"#utility.yul\":5935:5941   */\n      dup5\n        /* \"#utility.yul\":5871:5949   */\n      tag_61\n      jump\t// in\n    tag_154:\n        /* \"#utility.yul\":5863:5949   */\n      swap1\n      pop\n        /* \"#utility.yul\":5643:5956   */\n      swap3\n      swap2\n      pop\n      pop\n      jump\t// out\n        /* \"#utility.yul\":5962:6142   */\n    tag_71:\n        /* \"#utility.yul\":6010:6087   */\n      0x4e487b7100000000000000000000000000000000000000000000000000000000\n        /* \"#utility.yul\":6007:6008   */\n      0x00\n        /* \"#utility.yul\":6000:6088   */\n      mstore\n        /* \"#utility.yul\":6107:6111   */\n      0x22\n        /* \"#utility.yul\":6104:6105   */\n      0x04\n        /* \"#utility.yul\":6097:6112   */\n      mstore\n        /* \"#utility.yul\":6131:6135   */\n      0x24\n        /* \"#utility.yul\":6128:6129   */\n      0x00\n        /* \"#utility.yul\":6121:6136   */\n      revert\n        /* \"#utility.yul\":6148:6468   */\n    tag_35:\n        /* \"#utility.yul\":6192:6198   */\n      0x00\n        /* \"#utility.yul\":6229:6230   */\n      0x02\n        /* \"#utility.yul\":6223:6227   */\n      dup3\n        /* \"#utility.yul\":6219:6231   */\n      div\n        /* \"#utility.yul\":6209:6231   */\n      swap1\n      pop\n        /* \"#utility.yul\":6276:6277   */\n      0x01\n        /* \"#utility.yul\":6270:6274   */\n      dup3\n        /* \"#utility.yul\":6266:6278   */\n      and\n        /* \"#utility.yul\":6297:6315   */\n      dup1\n        /* \"#utility.yul\":6287:6368   */\n      tag_157\n      jumpi\n        /* \"#utility.yul\":6353:6357   */\n      0x7f\n        /* \"#utility.yul\":6345:6351   */\n      dup3\n        /* \"#utility.yul\":6341:6358   */\n      and\n        /* \"#utility.yul\":6331:6358   */\n      swap2\n      pop\n        /* \"#utility.yul\":6287:6368   */\n    tag_157:\n        /* \"#utility.yul\":6415:6417   */\n      0x20\n        /* \"#utility.yul\":6407:6413   */\n      dup3\n        /* \"#utility.yul\":6404:6418   */\n      lt\n        /* \"#utility.yul\":6384:6402   */\n      dup2\n        /* \"#utility.yul\":6381:6419   */\n      sub\n        /* \"#utility.yul\":6378:6462   */\n      tag_158\n      jumpi\n        /* \"#utility.yul\":6434:6452   */\n      tag_159\n      tag_71\n      jump\t// in\n    tag_159:\n        /* \"#utility.yul\":6378:6462   */\n    tag_158:\n        /* \"#utility.yul\":6199:6468   */\n      pop\n        /* \"#utility.yul\":6148:6468   */\n      swap2\n      swap1\n      pop\n      jump\t// out\n        /* \"#utility.yul\":6474:6615   */\n    tag_72:\n        /* \"#utility.yul\":6523:6527   */\n      0x00\n        /* \"#utility.yul\":6546:6549   */\n      dup2\n        /* \"#utility.yul\":6538:6549   */\n      swap1\n      pop\n        /* \"#utility.yul\":6569:6572   */\n      dup2\n        /* \"#utility.yul\":6566:6567   */\n      0x00\n        /* \"#utility.yul\":6559:6573   */\n      mstore\n        /* \"#utility.yul\":6603:6607   */\n      0x20\n        /* \"#utility.yul\":6600:6601   */\n      0x00\n        /* \"#utility.yul\":6590:6608   */\n      keccak256\n        /* \"#utility.yul\":6582:6608   */\n      swap1\n      pop\n        /* \"#utility.yul\":6474:6615   */\n      swap2\n      swap1\n      pop\n      jump\t// out\n        /* \"#utility.yul\":6621:6714   */\n    tag_73:\n        /* \"#utility.yul\":6658:6664   */\n      0x00\n        /* \"#utility.yul\":6705:6707   */\n      0x20\n        /* \"#utility.yul\":6700:6702   */\n      0x1f\n        /* \"#utility.yul\":6693:6698   */\n      dup4\n        /* \"#utility.yul\":6689:6703   */\n      add\n        /* \"#utility.yul\":6685:6708   */\n      div\n        /* \"#utility.yul\":6675:6708   */\n      swap1\n      pop\n        /* \"#utility.yul\":6621:6714   */\n      swap2\n      swap1\n      pop\n      jump\t// out\n        /* \"#utility.yul\":6720:6827   */\n    tag_74:\n        /* \"#utility.yul\":6764:6772   */\n      0x00\n        /* \"#utility.yul\":6814:6819   */\n      dup3\n        /* \"#utility.yul\":6808:6812   */\n      dup3\n        /* \"#utility.yul\":6804:6820   */\n      shl\n        /* \"#utility.yul\":6783:6820   */\n      swap1\n      pop\n        /* \"#utility.yul\":6720:6827   */\n      swap3\n      swap2\n      pop\n      pop\n      jump\t// out\n        /* \"#utility.yul\":6833:7226   */\n    tag_75:\n        /* \"#utility.yul\":6902:6908   */\n      0x00\n        /* \"#utility.yul\":6952:6953   */\n      0x08\n        /* \"#utility.yul\":6940:6950   */\n      dup4\n        /* \"#utility.yul\":6936:6954   */\n      mul\n        /* \"#utility.yul\":6975:7072   */\n      tag_164\n        /* \"#utility.yul\":7005:7071   */\n      0xffffffffffffffffffffffffffffffffffffffffffffffffffffffffffffffff\n        /* \"#utility.yul\":6994:7003   */\n      dup3\n        /* \"#utility.yul\":6975:7072   */\n      tag_74\n      jump\t// in\n    tag_164:\n        /* \"#utility.yul\":7093:7132   */\n      tag_165\n        /* \"#utility.yul\":7123:7131   */\n      dup7\n        /* \"#utility.yul\":7112:7121   */\n      dup4\n        /* \"#utility.yul\":7093:7132   */\n      tag_74\n      jump\t// in\n    tag_165:\n        /* \"#utility.yul\":7081:7132   */\n      swap6\n      pop\n        /* \"#utility.yul\":7165:7169   */\n      dup1\n        /* \"#utility.yul\":7161:7170   */\n      not\n        /* \"#utility.yul\":7154:7159   */\n      dup5\n        /* \"#utility.yul\":7150:7171   */\n      and\n        /* \"#utility.yul\":7141:7171   */\n      swap4\n      pop\n        /* \"#utility.yul\":7214:7218   */\n      dup1\n        /* \"#utility.yul\":7204:7212   */\n      dup7\n        /* \"#utility.yul\":7200:7219   */\n      and\n        /* \"#utility.yul\":7193:7198   */\n      dup5\n        /* \"#utility.yul\":7190:7220   */\n      or\n        /* \"#utility.yul\":7180:7220   */\n      swap3\n      pop\n        /* \"#utility.yul\":6909:7226   */\n      pop\n      pop\n        /* \"#utility.yul\":6833:7226   */\n      swap4\n      swap3\n      pop\n      pop\n      pop\n      jump\t// out\n        /* \"#utility.yul\":7232:7292   */\n    tag_76:\n        /* \"#utility.yul\":7260:7263   */\n      0x00\n        /* \"#utility.yul\":7281:7286   */\n      dup2\n        /* \"#utility.yul\":7274:7286   */\n      swap1\n      pop\n        /* \"#utility.yul\":7232:7292   */\n      swap2\n      swap1\n      pop\n      jump\t// out\n        /* \"#utility.yul\":7298:7440   */\n    tag_77:\n        /* \"#utility.yul\":7348:7357   */\n      0x00\n        /* \"#utility.yul\":7381:7434   */\n      tag_168\n        /* \"#utility.yul\":7399:7433   */\n      tag_169\n        /* \"#utility.yul\":7408:7432   */\n      tag_170\n        /* \"#utility.yul\":7426:7431   */\n      dup5\n        /* \"#utility.yul\":7408:7432   */\n      tag_50\n      jump\t// in\n    tag_170:\n        /* \"#utility.yul\":7399:7433   */\n      tag_76\n      jump\t// in\n    tag_169:\n        /* \"#utility.yul\":7381:7434   */\n      tag_50\n      jump\t// in\n    tag_168:\n        /* \"#utility.yul\":7368:7434   */\n      swap1\n      pop\n        /* \"#utility.yul\":7298:7440   */\n      swap2\n      swap1\n      pop\n      jump\t// out\n        /* \"#utility.yul\":7446:7521   */\n    tag_78:\n        /* \"#utility.yul\":7489:7492   */\n      0x00\n        /* \"#utility.yul\":7510:7515   */\n      dup2\n        /* \"#utility.yul\":7503:7515   */\n      swap1\n      pop\n        /* \"#utility.yul\":7446:7521   */\n      swap2\n      swap1\n      pop\n      jump\t// out\n        /* \"#utility.yul\":7527:7796   */\n    tag_79:\n        /* \"#utility.yul\":7637:7676   */\n      tag_173\n        /* \"#utility.yul\":7668:7675   */\n      dup4\n        /* \"#utility.yul\":7637:7676   */\n      tag_77\n      jump\t// in\n    tag_173:\n        /* \"#utility.yul\":7698:7789   */\n      tag_174\n        /* \"#utility.yul\":7747:7788   */\n      tag_175\n        /* \"#utility.yul\":7771:7787   */\n      dup3\n        /* \"#utility.yul\":7747:7788   */\n      tag_78\n      jump\t// in\n    tag_175:\n        /* \"#utility.yul\":7739:7745   */\n      dup5\n        /* \"#utility.yul\":7732:7736   */\n      dup5\n        /* \"#utility.yul\":7726:7737   */\n      sload\n        /* \"#utility.yul\":7698:7789   */\n      tag_75\n      jump\t// in\n    tag_174:\n        /* \"#utility.yul\":7692:7696   */\n      dup3\n        /* \"#utility.yul\":7685:7790   */\n      sstore\n        /* \"#utility.yul\":7603:7796   */\n      pop\n        /* \"#utility.yul\":7527:7796   */\n      pop\n      pop\n      pop\n      jump\t// out\n        /* \"#utility.yul\":7802:7875   */\n    tag_80:\n        /* \"#utility.yul\":7847:7850   */\n      0x00\n        /* \"#utility.yul\":7802:7875   */\n      swap1\n      jump\t// out\n        /* \"#utility.yul\":7881:8070   */\n    tag_81:\n        /* \"#utility.yul\":7958:7990   */\n      tag_178\n      tag_80\n      jump\t// in\n    tag_178:\n        /* \"#utility.yul\":7999:8064   */\n      tag_179\n        /* \"#utility.yul\":8057:8063   */\n      dup2\n        /* \"#utility.yul\":8049:8055   */\n      dup5\n        /* \"#utility.yul\":8043:8047   */\n      dup5\n        /* \"#utility.yul\":7999:8064   */\n      tag_79\n      jump\t// in\n    tag_179:\n        /* \"#utility.yul\":7934:8070   */\n      pop\n        /* \"#utility.yul\":7881:8070   */\n      pop\n      pop\n      jump\t// out\n        /* \"#utility.yul\":8076:8262   */\n    tag_82:\n        /* \"#utility.yul\":8136:8256   */\n    tag_181:\n        /* \"#utility.yul\":8153:8156   */\n      dup2\n        /* \"#utility.yul\":8146:8151   */\n      dup2\n        /* \"#utility.yul\":8143:8157   */\n      lt\n        /* \"#utility.yul\":8136:8256   */\n      iszero\n      tag_183\n      jumpi\n        /* \"#utility.yul\":8207:8246   */\n      tag_184\n        /* \"#utility.yul\":8244:8245   */\n      0x00\n        /* \"#utility.yul\":8237:8242   */\n      dup3\n        /* \"#utility.yul\":8207:8246   */\n      tag_81\n      jump\t// in\n    tag_184:\n        /* \"#utility.yul\":8180:8181   */\n      0x01\n        /* \"#utility.yul\":8173:8178   */\n      dup2\n        /* \"#utility.yul\":8169:8182   */\n      add\n        /* \"#utility.yul\":8160:8182   */\n      swap1\n      pop\n        /* \"#utility.yul\":8136:8256   */\n      jump(tag_181)\n    tag_183:\n        /* \"#utility.yul\":8076:8262   */\n      pop\n      pop\n      jump\t// out\n        /* \"#utility.yul\":8268:8811   */\n    tag_83:\n        /* \"#utility.yul\":8369:8371   */\n      0x1f\n        /* \"#utility.yul\":8364:8367   */\n      dup3\n        /* \"#utility.yul\":8361:8372   */\n      gt\n        /* \"#utility.yul\":8358:8804   */\n      iszero\n      tag_186\n      jumpi\n        /* \"#utility.yul\":8403:8441   */\n      tag_187\n        /* \"#utility.yul\":8435:8440   */\n      dup2\n        /* \"#utility.yul\":8403:8441   */\n      tag_72\n      jump\t// in\n    tag_187:\n        /* \"#utility.yul\":8487:8516   */\n      tag_188\n        /* \"#utility.yul\":8505:8515   */\n      dup5\n        /* \"#utility.yul\":8487:8516   */\n      tag_73\n      jump\t// in\n    tag_188:\n        /* \"#utility.yul\":8477:8485   */\n      dup2\n        /* \"#utility.yul\":8473:8517   */\n      add\n        /* \"#utility.yul\":8670:8672   */\n      0x20\n        /* \"#utility.yul\":8658:8668   */\n      dup6\n        /* \"#utility.yul\":8655:8673   */\n      lt\n        /* \"#utility.yul\":8652:8701   */\n      iszero\n      tag_189\n      jumpi\n        /* \"#utility.yul\":8691:8699   */\n      dup2\n        /* \"#utility.yul\":8676:8699   */\n      swap1\n      pop\n        /* \"#utility.yul\":8652:8701   */\n    tag_189:\n        /* \"#utility.yul\":8714:8794   */\n      tag_190\n        /* \"#utility.yul\":8770:8792   */\n      tag_191\n        /* \"#utility.yul\":8788:8791   */\n      dup6\n        /* \"#utility.yul\":8770:8792   */\n      tag_73\n      jump\t// in\n    tag_191:\n        /* \"#utility.yul\":8760:8768   */\n      dup4\n        /* \"#utility.yul\":8756:8793   */\n      add\n        /* \"#utility.yul\":8743:8754   */\n      dup3\n        /* \"#utility.yul\":8714:8794   */\n      tag_82\n      jump\t// in\n    tag_190:\n        /* \"#utility.yul\":8373:8804   */\n      pop\n      pop\n        /* \"#utility.yul\":8358:8804   */\n    tag_186:\n        /* \"#utility.yul\":8268:8811   */\n      pop\n      pop\n      pop\n      jump\t// out\n        /* \"#utility.yul\":8817:8934   */\n    tag_84:\n        /* \"#utility.yul\":8871:8879   */\n      0x00\n        /* \"#utility.yul\":8921:8926   */\n      dup3\n        /* \"#utility.yul\":8915:8919   */\n      dup3\n        /* \"#utility.yul\":8911:8927   */\n      shr\n        /* \"#utility.yul\":8890:8927   */\n      swap1\n      pop\n        /* \"#utility.yul\":8817:8934   */\n      swap3\n      swap2\n      pop\n      pop\n      jump\t// out\n        /* \"#utility.yul\":8940:9109   */\n    tag_85:\n        /* \"#utility.yul\":8984:8990   */\n      0x00\n        /* \"#utility.yul\":9017:9068   */\n      tag_194\n        /* \"#utility.yul\":9065:9066   */\n      0x00\n        /* \"#utility.yul\":9061:9067   */\n      not\n        /* \"#utility.yul\":9053:9058   */\n      dup5\n        /* \"#utility.yul\":9050:9051   */\n      0x08\n        /* \"#utility.yul\":9046:9059   */\n      mul\n        /* \"#utility.yul\":9017:9068   */\n      tag_84\n      jump\t// in\n    tag_194:\n        /* \"#utility.yul\":9013:9069   */\n      not\n        /* \"#utility.yul\":9098:9102   */\n      dup1\n        /* \"#utility.yul\":9092:9096   */\n      dup4\n        /* \"#utility.yul\":9088:9103   */\n      and\n        /* \"#utility.yul\":9078:9103   */\n      swap2\n      pop\n        /* \"#utility.yul\":8991:9109   */\n      pop\n        /* \"#utility.yul\":8940:9109   */\n      swap3\n      swap2\n      pop\n      pop\n      jump\t// out\n        /* \"#utility.yul\":9114:9409   */\n    tag_86:\n        /* \"#utility.yul\":9190:9194   */\n      0x00\n        /* \"#utility.yul\":9336:9365   */\n      tag_196\n        /* \"#utility.yul\":9361:9364   */\n      dup4\n        /* \"#utility.yul\":9355:9359   */\n      dup4\n        /* \"#utility.yul\":9336:9365   */\n      tag_85\n      jump\t// in\n    tag_196:\n        /* \"#utility.yul\":9328:9365   */\n      swap2\n      pop\n        /* \"#utility.yul\":9398:9401   */\n      dup3\n        /* \"#utility.yul\":9395:9396   */\n      0x02\n        /* \"#utility.yul\":9391:9402   */\n      mul\n        /* \"#utility.yul\":9385:9389   */\n      dup3\n        /* \"#utility.yul\":9382:9403   */\n      or\n        /* \"#utility.yul\":9374:9403   */\n      swap1\n      pop\n        /* \"#utility.yul\":9114:9409   */\n      swap3\n      swap2\n      pop\n      pop\n      jump\t// out\n        /* \"#utility.yul\":9414:10809   */\n    tag_43:\n        /* \"#utility.yul\":9531:9568   */\n      tag_198\n        /* \"#utility.yul\":9564:9567   */\n      dup3\n        /* \"#utility.yul\":9531:9568   */\n      tag_57\n      jump\t// in\n    tag_198:\n        /* \"#utility.yul\":9633:9651   */\n      0xffffffffffffffff\n        /* \"#utility.yul\":9625:9631   */\n      dup2\n        /* \"#utility.yul\":9622:9652   */\n      gt\n        /* \"#utility.yul\":9619:9675   */\n      iszero\n      tag_199\n      jumpi\n        /* \"#utility.yul\":9655:9673   */\n      tag_200\n      tag_64\n      jump\t// in\n    tag_200:\n        /* \"#utility.yul\":9619:9675   */\n    tag_199:\n        /* \"#utility.yul\":9699:9737   */\n      tag_201\n        /* \"#utility.yul\":9731:9735   */\n      dup3\n        /* \"#utility.yul\":9725:9736   */\n      sload\n        /* \"#utility.yul\":9699:9737   */\n      tag_35\n      jump\t// in\n    tag_201:\n        /* \"#utility.yul\":9784:9851   */\n      tag_202\n        /* \"#utility.yul\":9844:9850   */\n      dup3\n        /* \"#utility.yul\":9836:9842   */\n      dup3\n        /* \"#utility.yul\":9830:9834   */\n      dup6\n        /* \"#utility.yul\":9784:9851   */\n      tag_83\n      jump\t// in\n    tag_202:\n        /* \"#utility.yul\":9878:9879   */\n      0x00\n        /* \"#utility.yul\":9902:9906   */\n      0x20\n        /* \"#utility.yul\":9889:9906   */\n      swap1\n      pop\n        /* \"#utility.yul\":9934:9936   */\n      0x1f\n        /* \"#utility.yul\":9926:9932   */\n      dup4\n        /* \"#utility.yul\":9923:9937   */\n      gt\n        /* \"#utility.yul\":9951:9952   */\n      0x01\n        /* \"#utility.yul\":9946:10564   */\n      dup2\n      eq\n      tag_204\n      jumpi\n        /* \"#utility.yul\":10608:10609   */\n      0x00\n        /* \"#utility.yul\":10625:10631   */\n      dup5\n        /* \"#utility.yul\":10622:10699   */\n      iszero\n      tag_205\n      jumpi\n        /* \"#utility.yul\":10674:10683   */\n      dup3\n        /* \"#utility.yul\":10669:10672   */\n      dup8\n        /* \"#utility.yul\":10665:10684   */\n      add\n        /* \"#utility.yul\":10659:10685   */\n      mload\n        /* \"#utility.yul\":10650:10685   */\n      swap1\n      pop\n        /* \"#utility.yul\":10622:10699   */\n    tag_205:\n        /* \"#utility.yul\":10725:10792   */\n      tag_206\n        /* \"#utility.yul\":10785:10791   */\n      dup6\n        /* \"#utility.yul\":10778:10783   */\n      dup3\n        /* \"#utility.yul\":10725:10792   */\n      tag_86\n      jump\t// in\n    tag_206:\n        /* \"#utility.yul\":10719:10723   */\n      dup7\n        /* \"#utility.yul\":10712:10793   */\n      sstore\n        /* \"#utility.yul\":10581:10803   */\n      pop\n        /* \"#utility.yul\":9916:10803   */\n      jump(tag_203)\n        /* \"#utility.yul\":9946:10564   */\n    tag_204:\n        /* \"#utility.yul\":9998:10002   */\n      0x1f\n        /* \"#utility.yul\":9994:10003   */\n      not\n        /* \"#utility.yul\":9986:9992   */\n      dup5\n        /* \"#utility.yul\":9982:10004   */\n      and\n        /* \"#utility.yul\":10032:10069   */\n      tag_207\n        /* \"#utility.yul\":10064:10068   */\n      dup7\n        /* \"#utility.yul\":10032:10069   */\n      tag_72\n      jump\t// in\n    tag_207:\n        /* \"#utility.yul\":10091:10092   */\n      0x00\n        /* \"#utility.yul\":10105:10313   */\n    tag_208:\n        /* \"#utility.yul\":10119:10126   */\n      dup3\n        /* \"#utility.yul\":10116:10117   */\n      dup2\n        /* \"#utility.yul\":10113:10127   */\n      lt\n        /* \"#utility.yul\":10105:10313   */\n      iszero\n      tag_210\n      jumpi\n        /* \"#utility.yul\":10198:10207   */\n      dup5\n        /* \"#utility.yul\":10193:10196   */\n      dup10\n        /* \"#utility.yul\":10189:10208   */\n      add\n        /* \"#utility.yul\":10183:10209   */\n      mload\n        /* \"#utility.yul\":10175:10181   */\n      dup3\n        /* \"#utility.yul\":10168:10210   */\n      sstore\n        /* \"#utility.yul\":10249:10250   */\n      0x01\n        /* \"#utility.yul\":10241:10247   */\n      dup3\n        /* \"#utility.yul\":10237:10251   */\n      add\n        /* \"#utility.yul\":10227:10251   */\n      swap2\n      pop\n        /* \"#utility.yul\":10296:10298   */\n      0x20\n        /* \"#utility.yul\":10285:10294   */\n      dup6\n        /* \"#utility.yul\":10281:10299   */\n      add\n        /* \"#utility.yul\":10268:10299   */\n      swap5\n      pop\n        /* \"#utility.yul\":10142:10146   */\n      0x20\n        /* \"#utility.yul\":10139:10140   */\n      dup2\n        /* \"#utility.yul\":10135:10147   */\n      add\n        /* \"#utility.yul\":10130:10147   */\n      swap1\n      pop\n        /* \"#utility.yul\":10105:10313   */\n      jump(tag_208)\n    tag_210:\n        /* \"#utility.yul\":10341:10347   */\n      dup7\n        /* \"#utility.yul\":10332:10339   */\n      dup4\n        /* \"#utility.yul\":10329:10348   */\n      lt\n        /* \"#utility.yul\":10326:10505   */\n      iszero\n      tag_211\n      jumpi\n        /* \"#utility.yul\":10399:10408   */\n      dup5\n        /* \"#utility.yul\":10394:10397   */\n      dup10\n        /* \"#utility.yul\":10390:10409   */\n      add\n        /* \"#utility.yul\":10384:10410   */\n      mload\n        /* \"#utility.yul\":10442:10490   */\n      tag_212\n        /* \"#utility.yul\":10484:10488   */\n      0x1f\n        /* \"#utility.yul\":10476:10482   */\n      dup10\n        /* \"#utility.yul\":10472:10489   */\n      and\n        /* \"#utility.yul\":10461:10470   */\n      dup3\n        /* \"#utility.yul\":10442:10490   */\n      tag_85\n      jump\t// in\n    tag_212:\n        /* \"#utility.yul\":10434:10440   */\n      dup4\n        /* \"#utility.yul\":10427:10491   */\n      sstore\n        /* \"#utility.yul\":10349:10505   */\n      pop\n        /* \"#utility.yul\":10326:10505   */\n    tag_211:\n        /* \"#utility.yul\":10551:10552   */\n      0x01\n        /* \"#utility.yul\":10547:10548   */\n      0x02\n        /* \"#utility.yul\":10539:10545   */\n      dup9\n        /* \"#utility.yul\":10535:10549   */\n      mul\n        /* \"#utility.yul\":10531:10553   */\n      add\n        /* \"#utility.yul\":10525:10529   */\n      dup9\n        /* \"#utility.yul\":10518:10554   */\n      sstore\n        /* \"#utility.yul\":9953:10564   */\n      pop\n      pop\n      pop\n        /* \"#utility.yul\":9916:10803   */\n    tag_203:\n      pop\n        /* \"#utility.yul\":9506:10809   */\n      pop\n      pop\n      pop\n        /* \"#utility.yul\":9414:10809   */\n      pop\n      pop\n      jump\t// out\n\n    auxdata: 0xa2646970667358221220f5b2bac23c872b189087daa97f6575af2793eb0ece35405024615738a526609564736f6c634300080f0033\n}\n",
				"bytecode": {
					"linkReferences": {},
					"object": "608060405234801561001057600080fd5b5061093a806100206000396000f3fe608060405234801561001057600080fd5b50600436106100575760003560e01c80632e64cec11461005c5780636057361d1461007a5780639e7a13ad14610096578063bc832d4e146100c7578063fe379145146100e3575b600080fd5b610064610113565b6040516100719190610322565b60405180910390f35b610094600480360381019061008f919061037d565b61011c565b005b6100b060048036038101906100ab919061037d565b610126565b6040516100be929190610443565b60405180910390f35b6100e160048036038101906100dc91906105a8565b6101e2565b005b6100fd60048036038101906100f8919061037d565b610269565b60405161010a9190610604565b60405180910390f35b60008054905090565b8060008190555050565b6002818154811061013657600080fd5b906000526020600020906002020160009150905080600001549080600101805461015f90610655565b80601f016020809104026020016040519081016040528092919081815260200182805461018b90610655565b80156101d85780601f106101ad576101008083540402835291602001916101d8565b820191906000526020600020905b8154815290600101906020018083116101bb57829003601f168201915b5050505050905082565b600260405180604001604052808481526020018381525090806001815401808255809150506001900390600052602060002090600202016000909190919091506000820151816000015560208201518160010190816102419190610832565b505050806001600084815260200190815260200160002090816102649190610832565b505050565b6001602052806000526040600020600091509050805461028890610655565b80601f01602080910402602001604051908101604052809291908181526020018280546102b490610655565b80156103015780601f106102d657610100808354040283529160200191610301565b820191906000526020600020905b8154815290600101906020018083116102e457829003601f168201915b505050505081565b6000819050919050565b61031c81610309565b82525050565b60006020820190506103376000830184610313565b92915050565b6000604051905090565b600080fd5b600080fd5b61035a81610309565b811461036557600080fd5b50565b60008135905061037781610351565b92915050565b60006020828403121561039357610392610347565b5b60006103a184828501610368565b91505092915050565b600081519050919050565b600082825260208201905092915050565b60005b838110156103e45780820151818401526020810190506103c9565b838111156103f3576000848401525b50505050565b6000601f19601f8301169050919050565b6000610415826103aa565b61041f81856103b5565b935061042f8185602086016103c6565b610438816103f9565b840191505092915050565b60006040820190506104586000830185610313565b818103602083015261046a818461040a565b90509392505050565b600080fd5b600080fd5b7f4e487b7100000000000000000000000000000000000000000000000000000000600052604160045260246000fd5b6104b5826103f9565b810181811067ffffffffffffffff821117156104d4576104d361047d565b5b80604052505050565b60006104e761033d565b90506104f382826104ac565b919050565b600067ffffffffffffffff8211156105135761051261047d565b5b61051c826103f9565b9050602081019050919050565b82818337600083830152505050565b600061054b610546846104f8565b6104dd565b90508281526020810184848401111561056757610566610478565b5b610572848285610529565b509392505050565b600082601f83011261058f5761058e610473565b5b813561059f848260208601610538565b91505092915050565b600080604083850312156105bf576105be610347565b5b60006105cd85828601610368565b925050602083013567ffffffffffffffff8111156105ee576105ed61034c565b5b6105fa8582860161057a565b9150509250929050565b6000602082019050818103600083015261061e818461040a565b905092915050565b7f4e487b7100000000000000000000000000000000000000000000000000000000600052602260045260246000fd5b6000600282049050600182168061066d57607f821691505b6020821081036106805761067f610626565b5b50919050565b60008190508160005260206000209050919050565b60006020601f8301049050919050565b600082821b905092915050565b6000600883026106e87fffffffffffffffffffffffffffffffffffffffffffffffffffffffffffffffff826106ab565b6106f286836106ab565b95508019841693508086168417925050509392505050565b6000819050919050565b600061072f61072a61072584610309565b61070a565b610309565b9050919050565b6000819050919050565b61074983610714565b61075d61075582610736565b8484546106b8565b825550505050565b600090565b610772610765565b61077d818484610740565b505050565b5b818110156107a15761079660008261076a565b600181019050610783565b5050565b601f8211156107e6576107b781610686565b6107c08461069b565b810160208510156107cf578190505b6107e36107db8561069b565b830182610782565b50505b505050565b600082821c905092915050565b6000610809600019846008026107eb565b1980831691505092915050565b600061082283836107f8565b9150826002028217905092915050565b61083b826103aa565b67ffffffffffffffff8111156108545761085361047d565b5b61085e8254610655565b6108698282856107a5565b600060209050601f83116001811461089c576000841561088a578287015190505b6108948582610816565b8655506108fc565b601f1984166108aa86610686565b60005b828110156108d2578489015182556001820191506020850194506020810190506108ad565b868310156108ef57848901516108eb601f8916826107f8565b8355505b6001600288020188555050505b50505050505056fea2646970667358221220f5b2bac23c872b189087daa97f6575af2793eb0ece35405024615738a526609564736f6c634300080f0033",
					"opcodes": "PUSH1 0x80 PUSH1 0x40 MSTORE CALLVALUE DUP1 ISZERO PUSH2 0x10 JUMPI PUSH1 0x0 DUP1 REVERT JUMPDEST POP PUSH2 0x93A DUP1 PUSH2 0x20 PUSH1 0x0 CODECOPY PUSH1 0x0 RETURN INVALID PUSH1 0x80 PUSH1 0x40 MSTORE CALLVALUE DUP1 ISZERO PUSH2 0x10 JUMPI PUSH1 0x0 DUP1 REVERT JUMPDEST POP PUSH1 0x4 CALLDATASIZE LT PUSH2 0x57 JUMPI PUSH1 0x0 CALLDATALOAD PUSH1 0xE0 SHR DUP1 PUSH4 0x2E64CEC1 EQ PUSH2 0x5C JUMPI DUP1 PUSH4 0x6057361D EQ PUSH2 0x7A JUMPI DUP1 PUSH4 0x9E7A13AD EQ PUSH2 0x96 JUMPI DUP1 PUSH4 0xBC832D4E EQ PUSH2 0xC7 JUMPI DUP1 PUSH4 0xFE379145 EQ PUSH2 0xE3 JUMPI JUMPDEST PUSH1 0x0 DUP1 REVERT JUMPDEST PUSH2 0x64 PUSH2 0x113 JUMP JUMPDEST PUSH1 0x40 MLOAD PUSH2 0x71 SWAP2 SWAP1 PUSH2 0x322 JUMP JUMPDEST PUSH1 0x40 MLOAD DUP1 SWAP2 SUB SWAP1 RETURN JUMPDEST PUSH2 0x94 PUSH1 0x4 DUP1 CALLDATASIZE SUB DUP2 ADD SWAP1 PUSH2 0x8F SWAP2 SWAP1 PUSH2 0x37D JUMP JUMPDEST PUSH2 0x11C JUMP JUMPDEST STOP JUMPDEST PUSH2 0xB0 PUSH1 0x4 DUP1 CALLDATASIZE SUB DUP2 ADD SWAP1 PUSH2 0xAB SWAP2 SWAP1 PUSH2 0x37D JUMP JUMPDEST PUSH2 0x126 JUMP JUMPDEST PUSH1 0x40 MLOAD PUSH2 0xBE SWAP3 SWAP2 SWAP1 PUSH2 0x443 JUMP JUMPDEST PUSH1 0x40 MLOAD DUP1 SWAP2 SUB SWAP1 RETURN JUMPDEST PUSH2 0xE1 PUSH1 0x4 DUP1 CALLDATASIZE SUB DUP2 ADD SWAP1 PUSH2 0xDC SWAP2 SWAP1 PUSH2 0x5A8 JUMP JUMPDEST PUSH2 0x1E2 JUMP JUMPDEST STOP JUMPDEST PUSH2 0xFD PUSH1 0x4 DUP1 CALLDATASIZE SUB DUP2 ADD SWAP1 PUSH2 0xF8 SWAP2 SWAP1 PUSH2 0x37D JUMP JUMPDEST PUSH2 0x269 JUMP JUMPDEST PUSH1 0x40 MLOAD PUSH2 0x10A SWAP2 SWAP1 PUSH2 0x604 JUMP JUMPDEST PUSH1 0x40 MLOAD DUP1 SWAP2 SUB SWAP1 RETURN JUMPDEST PUSH1 0x0 DUP1 SLOAD SWAP1 POP SWAP1 JUMP JUMPDEST DUP1 PUSH1 0x0 DUP2 SWAP1 SSTORE POP POP JUMP JUMPDEST PUSH1 0x2 DUP2 DUP2 SLOAD DUP2 LT PUSH2 0x136 JUMPI PUSH1 0x0 DUP1 REVERT JUMPDEST SWAP1 PUSH1 0x0 MSTORE PUSH1 0x20 PUSH1 0x0 KECCAK256 SWAP1 PUSH1 0x2 MUL ADD PUSH1 0x0 SWAP2 POP SWAP1 POP DUP1 PUSH1 0x0 ADD SLOAD SWAP1 DUP1 PUSH1 0x1 ADD DUP1 SLOAD PUSH2 0x15F SWAP1 PUSH2 0x655 JUMP JUMPDEST DUP1 PUSH1 0x1F ADD PUSH1 0x20 DUP1 SWAP2 DIV MUL PUSH1 0x20 ADD PUSH1 0x40 MLOAD SWAP1 DUP2 ADD PUSH1 0x40 MSTORE DUP1 SWAP3 SWAP2 SWAP1 DUP2 DUP2 MSTORE PUSH1 0x20 ADD DUP3 DUP1 SLOAD PUSH2 0x18B SWAP1 PUSH2 0x655 JUMP JUMPDEST DUP1 ISZERO PUSH2 0x1D8 JUMPI DUP1 PUSH1 0x1F LT PUSH2 0x1AD JUMPI PUSH2 0x100 DUP1 DUP4 SLOAD DIV MUL DUP4 MSTORE SWAP2 PUSH1 0x20 ADD SWAP2 PUSH2 0x1D8 JUMP JUMPDEST DUP3 ADD SWAP2 SWAP1 PUSH1 0x0 MSTORE PUSH1 0x20 PUSH1 0x0 KECCAK256 SWAP1 JUMPDEST DUP2 SLOAD DUP2 MSTORE SWAP1 PUSH1 0x1 ADD SWAP1 PUSH1 0x20 ADD DUP1 DUP4 GT PUSH2 0x1BB JUMPI DUP3 SWAP1 SUB PUSH1 0x1F AND DUP3 ADD SWAP2 JUMPDEST POP POP POP POP POP SWAP1 POP DUP3 JUMP JUMPDEST PUSH1 0x2 PUSH1 0x40 MLOAD DUP1 PUSH1 0x40 ADD PUSH1 0x40 MSTORE DUP1 DUP5 DUP2 MSTORE PUSH1 0x20 ADD DUP4 DUP2 MSTORE POP SWAP1 DUP1 PUSH1 0x1 DUP2 SLOAD ADD DUP1 DUP3 SSTORE DUP1 SWAP2 POP POP PUSH1 0x1 SWAP1 SUB SWAP1 PUSH1 0x0 MSTORE PUSH1 0x20 PUSH1 0x0 KECCAK256 SWAP1 PUSH1 0x2 MUL ADD PUSH1 0x0 SWAP1 SWAP2 SWAP1 SWAP2 SWAP1 SWAP2 POP PUSH1 0x0 DUP3 ADD MLOAD DUP2 PUSH1 0x0 ADD SSTORE PUSH1 0x20 DUP3 ADD MLOAD DUP2 PUSH1 0x1 ADD SWAP1 DUP2 PUSH2 0x241 SWAP2 SWAP1 PUSH2 0x832 JUMP JUMPDEST POP POP POP DUP1 PUSH1 0x1 PUSH1 0x0 DUP5 DUP2 MSTORE PUSH1 0x20 ADD SWAP1 DUP2 MSTORE PUSH1 0x20 ADD PUSH1 0x0 KECCAK256 SWAP1 DUP2 PUSH2 0x264 SWAP2 SWAP1 PUSH2 0x832 JUMP JUMPDEST POP POP POP JUMP JUMPDEST PUSH1 0x1 PUSH1 0x20 MSTORE DUP1 PUSH1 0x0 MSTORE PUSH1 0x40 PUSH1 0x0 KECCAK256 PUSH1 0x0 SWAP2 POP SWAP1 POP DUP1 SLOAD PUSH2 0x288 SWAP1 PUSH2 0x655 JUMP JUMPDEST DUP1 PUSH1 0x1F ADD PUSH1 0x20 DUP1 SWAP2 DIV MUL PUSH1 0x20 ADD PUSH1 0x40 MLOAD SWAP1 DUP2 ADD PUSH1 0x40 MSTORE DUP1 SWAP3 SWAP2 SWAP1 DUP2 DUP2 MSTORE PUSH1 0x20 ADD DUP3 DUP1 SLOAD PUSH2 0x2B4 SWAP1 PUSH2 0x655 JUMP JUMPDEST DUP1 ISZERO PUSH2 0x301 JUMPI DUP1 PUSH1 0x1F LT PUSH2 0x2D6 JUMPI PUSH2 0x100 DUP1 DUP4 SLOAD DIV MUL DUP4 MSTORE SWAP2 PUSH1 0x20 ADD SWAP2 PUSH2 0x301 JUMP JUMPDEST DUP3 ADD SWAP2 SWAP1 PUSH1 0x0 MSTORE PUSH1 0x20 PUSH1 0x0 KECCAK256 SWAP1 JUMPDEST DUP2 SLOAD DUP2 MSTORE SWAP1 PUSH1 0x1 ADD SWAP1 PUSH1 0x20 ADD DUP1 DUP4 GT PUSH2 0x2E4 JUMPI DUP3 SWAP1 SUB PUSH1 0x1F AND DUP3 ADD SWAP2 JUMPDEST POP POP POP POP POP DUP2 JUMP JUMPDEST PUSH1 0x0 DUP2 SWAP1 POP SWAP2 SWAP1 POP JUMP JUMPDEST PUSH2 0x31C DUP2 PUSH2 0x309 JUMP JUMPDEST DUP3 MSTORE POP POP JUMP JUMPDEST PUSH1 0x0 PUSH1 0x20 DUP3 ADD SWAP1 POP PUSH2 0x337 PUSH1 0x0 DUP4 ADD DUP5 PUSH2 0x313 JUMP JUMPDEST SWAP3 SWAP2 POP POP JUMP JUMPDEST PUSH1 0x0 PUSH1 0x40 MLOAD SWAP1 POP SWAP1 JUMP JUMPDEST PUSH1 0x0 DUP1 REVERT JUMPDEST PUSH1 0x0 DUP1 REVERT JUMPDEST PUSH2 0x35A DUP2 PUSH2 0x309 JUMP JUMPDEST DUP2 EQ PUSH2 0x365 JUMPI PUSH1 0x0 DUP1 REVERT JUMPDEST POP JUMP JUMPDEST PUSH1 0x0 DUP2 CALLDATALOAD SWAP1 POP PUSH2 0x377 DUP2 PUSH2 0x351 JUMP JUMPDEST SWAP3 SWAP2 POP POP JUMP JUMPDEST PUSH1 0x0 PUSH1 0x20 DUP3 DUP5 SUB SLT ISZERO PUSH2 0x393 JUMPI PUSH2 0x392 PUSH2 0x347 JUMP JUMPDEST JUMPDEST PUSH1 0x0 PUSH2 0x3A1 DUP5 DUP3 DUP6 ADD PUSH2 0x368 JUMP JUMPDEST SWAP2 POP POP SWAP3 SWAP2 POP POP JUMP JUMPDEST PUSH1 0x0 DUP2 MLOAD SWAP1 POP SWAP2 SWAP1 POP JUMP JUMPDEST PUSH1 0x0 DUP3 DUP3 MSTORE PUSH1 0x20 DUP3 ADD SWAP1 POP SWAP3 SWAP2 POP POP JUMP JUMPDEST PUSH1 0x0 JUMPDEST DUP4 DUP2 LT ISZERO PUSH2 0x3E4 JUMPI DUP1 DUP3 ADD MLOAD DUP2 DUP5 ADD MSTORE PUSH1 0x20 DUP2 ADD SWAP1 POP PUSH2 0x3C9 JUMP JUMPDEST DUP4 DUP2 GT ISZERO PUSH2 0x3F3 JUMPI PUSH1 0x0 DUP5 DUP5 ADD MSTORE JUMPDEST POP POP POP POP JUMP JUMPDEST PUSH1 0x0 PUSH1 0x1F NOT PUSH1 0x1F DUP4 ADD AND SWAP1 POP SWAP2 SWAP1 POP JUMP JUMPDEST PUSH1 0x0 PUSH2 0x415 DUP3 PUSH2 0x3AA JUMP JUMPDEST PUSH2 0x41F DUP2 DUP6 PUSH2 0x3B5 JUMP JUMPDEST SWAP4 POP PUSH2 0x42F DUP2 DUP6 PUSH1 0x20 DUP7 ADD PUSH2 0x3C6 JUMP JUMPDEST PUSH2 0x438 DUP2 PUSH2 0x3F9 JUMP JUMPDEST DUP5 ADD SWAP2 POP POP SWAP3 SWAP2 POP POP JUMP JUMPDEST PUSH1 0x0 PUSH1 0x40 DUP3 ADD SWAP1 POP PUSH2 0x458 PUSH1 0x0 DUP4 ADD DUP6 PUSH2 0x313 JUMP JUMPDEST DUP2 DUP2 SUB PUSH1 0x20 DUP4 ADD MSTORE PUSH2 0x46A DUP2 DUP5 PUSH2 0x40A JUMP JUMPDEST SWAP1 POP SWAP4 SWAP3 POP POP POP JUMP JUMPDEST PUSH1 0x0 DUP1 REVERT JUMPDEST PUSH1 0x0 DUP1 REVERT JUMPDEST PUSH32 0x4E487B7100000000000000000000000000000000000000000000000000000000 PUSH1 0x0 MSTORE PUSH1 0x41 PUSH1 0x4 MSTORE PUSH1 0x24 PUSH1 0x0 REVERT JUMPDEST PUSH2 0x4B5 DUP3 PUSH2 0x3F9 JUMP JUMPDEST DUP2 ADD DUP2 DUP2 LT PUSH8 0xFFFFFFFFFFFFFFFF DUP3 GT OR ISZERO PUSH2 0x4D4 JUMPI PUSH2 0x4D3 PUSH2 0x47D JUMP JUMPDEST JUMPDEST DUP1 PUSH1 0x40 MSTORE POP POP POP JUMP JUMPDEST PUSH1 0x0 PUSH2 0x4E7 PUSH2 0x33D JUMP JUMPDEST SWAP1 POP PUSH2 0x4F3 DUP3 DUP3 PUSH2 0x4AC JUMP JUMPDEST SWAP2 SWAP1 POP JUMP JUMPDEST PUSH1 0x0 PUSH8 0xFFFFFFFFFFFFFFFF DUP3 GT ISZERO PUSH2 0x513 JUMPI PUSH2 0x512 PUSH2 0x47D JUMP JUMPDEST JUMPDEST PUSH2 0x51C DUP3 PUSH2 0x3F9 JUMP JUMPDEST SWAP1 POP PUSH1 0x20 DUP2 ADD SWAP1 POP SWAP2 SWAP1 POP JUMP JUMPDEST DUP3 DUP2 DUP4 CALLDATACOPY PUSH1 0x0 DUP4 DUP4 ADD MSTORE POP POP POP JUMP JUMPDEST PUSH1 0x0 PUSH2 0x54B PUSH2 0x546 DUP5 PUSH2 0x4F8 JUMP JUMPDEST PUSH2 0x4DD JUMP JUMPDEST SWAP1 POP DUP3 DUP2 MSTORE PUSH1 0x20 DUP2 ADD DUP5 DUP5 DUP5 ADD GT ISZERO PUSH2 0x567 JUMPI PUSH2 0x566 PUSH2 0x478 JUMP JUMPDEST JUMPDEST PUSH2 0x572 DUP5 DUP3 DUP6 PUSH2 0x529 JUMP JUMPDEST POP SWAP4 SWAP3 POP POP POP JUMP JUMPDEST PUSH1 0x0 DUP3 PUSH1 0x1F DUP4 ADD SLT PUSH2 0x58F JUMPI PUSH2 0x58E PUSH2 0x473 JUMP JUMPDEST JUMPDEST DUP2 CALLDATALOAD PUSH2 0x59F DUP5 DUP3 PUSH1 0x20 DUP7 ADD PUSH2 0x538 JUMP JUMPDEST SWAP2 POP POP SWAP3 SWAP2 POP POP JUMP JUMPDEST PUSH1 0x0 DUP1 PUSH1 0x40 DUP4 DUP6 SUB SLT ISZERO PUSH2 0x5BF JUMPI PUSH2 0x5BE PUSH2 0x347 JUMP JUMPDEST JUMPDEST PUSH1 0x0 PUSH2 0x5CD DUP6 DUP3 DUP7 ADD PUSH2 0x368 JUMP JUMPDEST SWAP3 POP POP PUSH1 0x20 DUP4 ADD CALLDATALOAD PUSH8 0xFFFFFFFFFFFFFFFF DUP2 GT ISZERO PUSH2 0x5EE JUMPI PUSH2 0x5ED PUSH2 0x34C JUMP JUMPDEST JUMPDEST PUSH2 0x5FA DUP6 DUP3 DUP7 ADD PUSH2 0x57A JUMP JUMPDEST SWAP2 POP POP SWAP3 POP SWAP3 SWAP1 POP JUMP JUMPDEST PUSH1 0x0 PUSH1 0x20 DUP3 ADD SWAP1 POP DUP2 DUP2 SUB PUSH1 0x0 DUP4 ADD MSTORE PUSH2 0x61E DUP2 DUP5 PUSH2 0x40A JUMP JUMPDEST SWAP1 POP SWAP3 SWAP2 POP POP JUMP JUMPDEST PUSH32 0x4E487B7100000000000000000000000000000000000000000000000000000000 PUSH1 0x0 MSTORE PUSH1 0x22 PUSH1 0x4 MSTORE PUSH1 0x24 PUSH1 0x0 REVERT JUMPDEST PUSH1 0x0 PUSH1 0x2 DUP3 DIV SWAP1 POP PUSH1 0x1 DUP3 AND DUP1 PUSH2 0x66D JUMPI PUSH1 0x7F DUP3 AND SWAP2 POP JUMPDEST PUSH1 0x20 DUP3 LT DUP2 SUB PUSH2 0x680 JUMPI PUSH2 0x67F PUSH2 0x626 JUMP JUMPDEST JUMPDEST POP SWAP2 SWAP1 POP JUMP JUMPDEST PUSH1 0x0 DUP2 SWAP1 POP DUP2 PUSH1 0x0 MSTORE PUSH1 0x20 PUSH1 0x0 KECCAK256 SWAP1 POP SWAP2 SWAP1 POP JUMP JUMPDEST PUSH1 0x0 PUSH1 0x20 PUSH1 0x1F DUP4 ADD DIV SWAP1 POP SWAP2 SWAP1 POP JUMP JUMPDEST PUSH1 0x0 DUP3 DUP3 SHL SWAP1 POP SWAP3 SWAP2 POP POP JUMP JUMPDEST PUSH1 0x0 PUSH1 0x8 DUP4 MUL PUSH2 0x6E8 PUSH32 0xFFFFFFFFFFFFFFFFFFFFFFFFFFFFFFFFFFFFFFFFFFFFFFFFFFFFFFFFFFFFFFFF DUP3 PUSH2 0x6AB JUMP JUMPDEST PUSH2 0x6F2 DUP7 DUP4 PUSH2 0x6AB JUMP JUMPDEST SWAP6 POP DUP1 NOT DUP5 AND SWAP4 POP DUP1 DUP7 AND DUP5 OR SWAP3 POP POP POP SWAP4 SWAP3 POP POP POP JUMP JUMPDEST PUSH1 0x0 DUP2 SWAP1 POP SWAP2 SWAP1 POP JUMP JUMPDEST PUSH1 0x0 PUSH2 0x72F PUSH2 0x72A PUSH2 0x725 DUP5 PUSH2 0x309 JUMP JUMPDEST PUSH2 0x70A JUMP JUMPDEST PUSH2 0x309 JUMP JUMPDEST SWAP1 POP SWAP2 SWAP1 POP JUMP JUMPDEST PUSH1 0x0 DUP2 SWAP1 POP SWAP2 SWAP1 POP JUMP JUMPDEST PUSH2 0x749 DUP4 PUSH2 0x714 JUMP JUMPDEST PUSH2 0x75D PUSH2 0x755 DUP3 PUSH2 0x736 JUMP JUMPDEST DUP5 DUP5 SLOAD PUSH2 0x6B8 JUMP JUMPDEST DUP3 SSTORE POP POP POP POP JUMP JUMPDEST PUSH1 0x0 SWAP1 JUMP JUMPDEST PUSH2 0x772 PUSH2 0x765 JUMP JUMPDEST PUSH2 0x77D DUP2 DUP5 DUP5 PUSH2 0x740 JUMP JUMPDEST POP POP POP JUMP JUMPDEST JUMPDEST DUP2 DUP2 LT ISZERO PUSH2 0x7A1 JUMPI PUSH2 0x796 PUSH1 0x0 DUP3 PUSH2 0x76A JUMP JUMPDEST PUSH1 0x1 DUP2 ADD SWAP1 POP PUSH2 0x783 JUMP JUMPDEST POP POP JUMP JUMPDEST PUSH1 0x1F DUP3 GT ISZERO PUSH2 0x7E6 JUMPI PUSH2 0x7B7 DUP2 PUSH2 0x686 JUMP JUMPDEST PUSH2 0x7C0 DUP5 PUSH2 0x69B JUMP JUMPDEST DUP2 ADD PUSH1 0x20 DUP6 LT ISZERO PUSH2 0x7CF JUMPI DUP2 SWAP1 POP JUMPDEST PUSH2 0x7E3 PUSH2 0x7DB DUP6 PUSH2 0x69B JUMP JUMPDEST DUP4 ADD DUP3 PUSH2 0x782 JUMP JUMPDEST POP POP JUMPDEST POP POP POP JUMP JUMPDEST PUSH1 0x0 DUP3 DUP3 SHR SWAP1 POP SWAP3 SWAP2 POP POP JUMP JUMPDEST PUSH1 0x0 PUSH2 0x809 PUSH1 0x0 NOT DUP5 PUSH1 0x8 MUL PUSH2 0x7EB JUMP JUMPDEST NOT DUP1 DUP4 AND SWAP2 POP POP SWAP3 SWAP2 POP POP JUMP JUMPDEST PUSH1 0x0 PUSH2 0x822 DUP4 DUP4 PUSH2 0x7F8 JUMP JUMPDEST SWAP2 POP DUP3 PUSH1 0x2 MUL DUP3 OR SWAP1 POP SWAP3 SWAP2 POP POP JUMP JUMPDEST PUSH2 0x83B DUP3 PUSH2 0x3AA JUMP JUMPDEST PUSH8 0xFFFFFFFFFFFFFFFF DUP2 GT ISZERO PUSH2 0x854 JUMPI PUSH2 0x853 PUSH2 0x47D JUMP JUMPDEST JUMPDEST PUSH2 0x85E DUP3 SLOAD PUSH2 0x655 JUMP JUMPDEST PUSH2 0x869 DUP3 DUP3 DUP6 PUSH2 0x7A5 JUMP JUMPDEST PUSH1 0x0 PUSH1 0x20 SWAP1 POP PUSH1 0x1F DUP4 GT PUSH1 0x1 DUP2 EQ PUSH2 0x89C JUMPI PUSH1 0x0 DUP5 ISZERO PUSH2 0x88A JUMPI DUP3 DUP8 ADD MLOAD SWAP1 POP JUMPDEST PUSH2 0x894 DUP6 DUP3 PUSH2 0x816 JUMP JUMPDEST DUP7 SSTORE POP PUSH2 0x8FC JUMP JUMPDEST PUSH1 0x1F NOT DUP5 AND PUSH2 0x8AA DUP7 PUSH2 0x686 JUMP JUMPDEST PUSH1 0x0 JUMPDEST DUP3 DUP2 LT ISZERO PUSH2 0x8D2 JUMPI DUP5 DUP10 ADD MLOAD DUP3 SSTORE PUSH1 0x1 DUP3 ADD SWAP2 POP PUSH1 0x20 DUP6 ADD SWAP5 POP PUSH1 0x20 DUP2 ADD SWAP1 POP PUSH2 0x8AD JUMP JUMPDEST DUP7 DUP4 LT ISZERO PUSH2 0x8EF JUMPI DUP5 DUP10 ADD MLOAD PUSH2 0x8EB PUSH1 0x1F DUP10 AND DUP3 PUSH2 0x7F8 JUMP JUMPDEST DUP4 SSTORE POP JUMPDEST PUSH1 0x1 PUSH1 0x2 DUP9 MUL ADD DUP9 SSTORE POP POP POP JUMPDEST POP POP POP POP POP POP JUMP INVALID LOG2 PUSH5 0x6970667358 0x22 SLT KECCAK256 CREATE2 0xB2 0xBA 0xC2 EXTCODECOPY DUP8 0x2B XOR SWAP1 DUP8 0xDA 0xA9 PUSH32 0x6575AF2793EB0ECE35405024615738A526609564736F6C634300080F00330000 "
				},
				"gasEstimates": {
					"creation": {
						"codeDepositCost": "472400",
						"executionCost": "505",
						"totalCost": "472905"
					},
					"external": {
						"addPerson(uint256,string)": "infinite",
						"favoriteNumberToName(uint256)": "infinite",
						"people(uint256)": "infinite",
						"retrieve()": "2415",
						"store(uint256)": "22520"
					}
				},
				"methodIdentifiers": {
					"addPerson(uint256,string)": "bc832d4e",
					"favoriteNumberToName(uint256)": "fe379145",
					"people(uint256)": "9e7a13ad",
					"retrieve()": "2e64cec1",
					"store(uint256)": "6057361d"
				}
			},
			"storageLayout": {
				"storage": [
					{
						"astId": 3,
						"contract": "Excercise/SimpleStorage.sol:simpleStorage",
						"label": "favoriteNumber",
						"offset": 0,
						"slot": "0",
						"type": "t_uint256"
					},
					{
						"astId": 12,
						"contract": "Excercise/SimpleStorage.sol:simpleStorage",
						"label": "favoriteNumberToName",
						"offset": 0,
						"slot": "1",
						"type": "t_mapping(t_uint256,t_string_storage)"
					},
					{
						"astId": 16,
						"contract": "Excercise/SimpleStorage.sol:simpleStorage",
						"label": "people",
						"offset": 0,
						"slot": "2",
						"type": "t_array(t_struct(People)8_storage)dyn_storage"
					}
				],
				"types": {
					"t_array(t_struct(People)8_storage)dyn_storage": {
						"base": "t_struct(People)8_storage",
						"encoding": "dynamic_array",
						"label": "struct simpleStorage.People[]",
						"numberOfBytes": "32"
					},
					"t_mapping(t_uint256,t_string_storage)": {
						"encoding": "mapping",
						"key": "t_uint256",
						"label": "mapping(uint256 => string)",
						"numberOfBytes": "32",
						"value": "t_string_storage"
					},
					"t_string_storage": {
						"encoding": "bytes",
						"label": "string",
						"numberOfBytes": "32"
					},
					"t_struct(People)8_storage": {
						"encoding": "inplace",
						"label": "struct simpleStorage.People",
						"members": [
							{
								"astId": 5,
								"contract": "Excercise/SimpleStorage.sol:simpleStorage",
								"label": "favoriteNumber",
								"offset": 0,
								"slot": "0",
								"type": "t_uint256"
							},
							{
								"astId": 7,
								"contract": "Excercise/SimpleStorage.sol:simpleStorage",
								"label": "name",
								"offset": 0,
								"slot": "1",
								"type": "t_string_storage"
							}
						],
						"numberOfBytes": "64"
					},
					"t_uint256": {
						"encoding": "inplace",
						"label": "uint256",
						"numberOfBytes": "32"
					}
				}
			},
			"userdoc": {
				"kind": "user",
				"methods": {},
				"version": 1
			}
		}
	}
}