{
	"contracts/FundMe.sol": {
		"FundMe": {
			"abi": [
				{
					"inputs": [],
					"stateMutability": "nonpayable",
					"type": "constructor"
				},
				{
					"inputs": [],
					"name": "MINUMUM_USD",
					"outputs": [
						{
							"internalType": "uint256",
							"name": "",
							"type": "uint256"
						}
					],
					"stateMutability": "view",
					"type": "function"
				},
				{
					"inputs": [
						{
							"internalType": "address",
							"name": "",
							"type": "address"
						}
					],
					"name": "addressToAmountFunded",
					"outputs": [
						{
							"internalType": "uint256",
							"name": "",
							"type": "uint256"
						}
					],
					"stateMutability": "view",
					"type": "function"
				},
				{
					"inputs": [],
					"name": "fund",
					"outputs": [],
					"stateMutability": "payable",
					"type": "function"
				},
				{
					"inputs": [
						{
							"internalType": "uint256",
							"name": "",
							"type": "uint256"
						}
					],
					"name": "funders",
					"outputs": [
						{
							"internalType": "address",
							"name": "",
							"type": "address"
						}
					],
					"stateMutability": "view",
					"type": "function"
				},
				{
					"inputs": [],
					"name": "owner",
					"outputs": [
						{
							"internalType": "address",
							"name": "",
							"type": "address"
						}
					],
					"stateMutability": "view",
					"type": "function"
				},
				{
					"inputs": [],
					"name": "withdraw",
					"outputs": [],
					"stateMutability": "nonpayable",
					"type": "function"
				}
			],
			"devdoc": {
				"kind": "dev",
				"methods": {},
				"version": 1
			},
			"evm": {
				"assembly": "    /* \"contracts/FundMe.sol\":308:2308  contract FundMe {... */\n  mstore(0x40, 0x80)\n    /* \"contracts/FundMe.sol\":554:610  constructor () {... */\n  callvalue\n  dup1\n  iszero\n  tag_1\n  jumpi\n  0x00\n  dup1\n  revert\ntag_1:\n  pop\n    /* \"contracts/FundMe.sol\":588:598  msg.sender */\n  caller\n    /* \"contracts/FundMe.sol\":580:585  owner */\n  0x02\n  0x00\n    /* \"contracts/FundMe.sol\":580:598  owner = msg.sender */\n  0x0100\n  exp\n  dup2\n  sload\n  dup2\n  0xffffffffffffffffffffffffffffffffffffffff\n  mul\n  not\n  and\n  swap1\n  dup4\n  0xffffffffffffffffffffffffffffffffffffffff\n  and\n  mul\n  or\n  swap1\n  sstore\n  pop\n    /* \"contracts/FundMe.sol\":308:2308  contract FundMe {... */\n  dataSize(sub_0)\n  dup1\n  dataOffset(sub_0)\n  0x00\n  codecopy\n  0x00\n  return\nstop\n\nsub_0: assembly {\n        /* \"contracts/FundMe.sol\":308:2308  contract FundMe {... */\n      mstore(0x40, 0x80)\n      jumpi(tag_1, lt(calldatasize, 0x04))\n      shr(0xe0, calldataload(0x00))\n      dup1\n      0x116ebb2d\n      eq\n      tag_2\n      jumpi\n      dup1\n      0x3ccfd60b\n      eq\n      tag_3\n      jumpi\n      dup1\n      0x3e47d6f3\n      eq\n      tag_4\n      jumpi\n      dup1\n      0x8da5cb5b\n      eq\n      tag_5\n      jumpi\n      dup1\n      0xb60d4288\n      eq\n      tag_6\n      jumpi\n      dup1\n      0xdc0d3dff\n      eq\n      tag_7\n      jumpi\n    tag_1:\n      0x00\n      dup1\n      revert\n        /* \"contracts/FundMe.sol\":372:419  uint256 public constant MINUMUM_USD = 50 * 1e18 */\n    tag_2:\n      callvalue\n      dup1\n      iszero\n      tag_8\n      jumpi\n      0x00\n      dup1\n      revert\n    tag_8:\n      pop\n      tag_9\n      tag_10\n      jump\t// in\n    tag_9:\n      mload(0x40)\n      tag_11\n      swap2\n      swap1\n      tag_12\n      jump\t// in\n    tag_11:\n      mload(0x40)\n      dup1\n      swap2\n      sub\n      swap1\n      return\n        /* \"contracts/FundMe.sol\":1082:2157  function withdraw() public onlyOwner {... */\n    tag_3:\n      callvalue\n      dup1\n      iszero\n      tag_13\n      jumpi\n      0x00\n      dup1\n      revert\n    tag_13:\n      pop\n      tag_14\n      tag_15\n      jump\t// in\n    tag_14:\n      stop\n        /* \"contracts/FundMe.sol\":459:516  mapping (address => uint256) public addressToAmountFunded */\n    tag_4:\n      callvalue\n      dup1\n      iszero\n      tag_16\n      jumpi\n      0x00\n      dup1\n      revert\n    tag_16:\n      pop\n      tag_17\n      0x04\n      dup1\n      calldatasize\n      sub\n      dup2\n      add\n      swap1\n      tag_18\n      swap2\n      swap1\n      tag_19\n      jump\t// in\n    tag_18:\n      tag_20\n      jump\t// in\n    tag_17:\n      mload(0x40)\n      tag_21\n      swap2\n      swap1\n      tag_12\n      jump\t// in\n    tag_21:\n      mload(0x40)\n      dup1\n      swap2\n      sub\n      swap1\n      return\n        /* \"contracts/FundMe.sol\":525:545  address public owner */\n    tag_5:\n      callvalue\n      dup1\n      iszero\n      tag_22\n      jumpi\n      0x00\n      dup1\n      revert\n    tag_22:\n      pop\n      tag_23\n      tag_24\n      jump\t// in\n    tag_23:\n      mload(0x40)\n      tag_25\n      swap2\n      swap1\n      tag_26\n      jump\t// in\n    tag_25:\n      mload(0x40)\n      dup1\n      swap2\n      sub\n      swap1\n      return\n        /* \"contracts/FundMe.sol\":618:1068  function fund() public payable{... */\n    tag_6:\n      tag_27\n      tag_28\n      jump\t// in\n    tag_27:\n      stop\n        /* \"contracts/FundMe.sol\":428:452  address[] public funders */\n    tag_7:\n      callvalue\n      dup1\n      iszero\n      tag_29\n      jumpi\n      0x00\n      dup1\n      revert\n    tag_29:\n      pop\n      tag_30\n      0x04\n      dup1\n      calldatasize\n      sub\n      dup2\n      add\n      swap1\n      tag_31\n      swap2\n      swap1\n      tag_32\n      jump\t// in\n    tag_31:\n      tag_33\n      jump\t// in\n    tag_30:\n      mload(0x40)\n      tag_34\n      swap2\n      swap1\n      tag_26\n      jump\t// in\n    tag_34:\n      mload(0x40)\n      dup1\n      swap2\n      sub\n      swap1\n      return\n        /* \"contracts/FundMe.sol\":372:419  uint256 public constant MINUMUM_USD = 50 * 1e18 */\n    tag_10:\n        /* \"contracts/FundMe.sol\":410:419  50 * 1e18 */\n      0x02b5e3af16b1880000\n        /* \"contracts/FundMe.sol\":372:419  uint256 public constant MINUMUM_USD = 50 * 1e18 */\n      dup2\n      jump\t// out\n        /* \"contracts/FundMe.sol\":1082:2157  function withdraw() public onlyOwner {... */\n    tag_15:\n        /* \"contracts/FundMe.sol\":2217:2222  owner */\n      0x02\n      0x00\n      swap1\n      sload\n      swap1\n      0x0100\n      exp\n      swap1\n      div\n      0xffffffffffffffffffffffffffffffffffffffff\n      and\n        /* \"contracts/FundMe.sol\":2203:2222  msg.sender == owner */\n      0xffffffffffffffffffffffffffffffffffffffff\n      and\n        /* \"contracts/FundMe.sol\":2203:2213  msg.sender */\n      caller\n        /* \"contracts/FundMe.sol\":2203:2222  msg.sender == owner */\n      0xffffffffffffffffffffffffffffffffffffffff\n      and\n      eq\n        /* \"contracts/FundMe.sol\":2195:2251  require(msg.sender == owner, \"Sender is not the owner!\") */\n      tag_36\n      jumpi\n      mload(0x40)\n      0x08c379a000000000000000000000000000000000000000000000000000000000\n      dup2\n      mstore\n      0x04\n      add\n      tag_37\n      swap1\n      tag_38\n      jump\t// in\n    tag_37:\n      mload(0x40)\n      dup1\n      swap2\n      sub\n      swap1\n      revert\n    tag_36:\n        /* \"contracts/FundMe.sol\":1202:1221  uint256 funderIndex */\n      0x00\n        /* \"contracts/FundMe.sol\":1197:1391  for (uint256 funderIndex=0; funderIndex < funders.length; funderIndex ++ ) ... */\n    tag_40:\n        /* \"contracts/FundMe.sol\":1239:1246  funders */\n      0x00\n        /* \"contracts/FundMe.sol\":1239:1253  funders.length */\n      dup1\n      sload\n      swap1\n      pop\n        /* \"contracts/FundMe.sol\":1225:1236  funderIndex */\n      dup2\n        /* \"contracts/FundMe.sol\":1225:1253  funderIndex < funders.length */\n      lt\n        /* \"contracts/FundMe.sol\":1197:1391  for (uint256 funderIndex=0; funderIndex < funders.length; funderIndex ++ ) ... */\n      iszero\n      tag_41\n      jumpi\n        /* \"contracts/FundMe.sol\":1298:1312  address funder */\n      0x00\n        /* \"contracts/FundMe.sol\":1315:1322  funders */\n      dup1\n        /* \"contracts/FundMe.sol\":1323:1334  funderIndex */\n      dup3\n        /* \"contracts/FundMe.sol\":1315:1335  funders[funderIndex] */\n      dup2\n      sload\n      dup2\n      lt\n      tag_43\n      jumpi\n      tag_44\n      tag_45\n      jump\t// in\n    tag_44:\n    tag_43:\n      swap1\n      0x00\n      mstore\n      keccak256(0x00, 0x20)\n      add\n      0x00\n      swap1\n      sload\n      swap1\n      0x0100\n      exp\n      swap1\n      div\n      0xffffffffffffffffffffffffffffffffffffffff\n      and\n        /* \"contracts/FundMe.sol\":1298:1335  address funder = funders[funderIndex] */\n      swap1\n      pop\n        /* \"contracts/FundMe.sol\":1378:1379  0 */\n      0x00\n        /* \"contracts/FundMe.sol\":1346:1367  addressToAmountFunded */\n      0x01\n        /* \"contracts/FundMe.sol\":1346:1375  addressToAmountFunded[funder] */\n      0x00\n        /* \"contracts/FundMe.sol\":1368:1374  funder */\n      dup4\n        /* \"contracts/FundMe.sol\":1346:1375  addressToAmountFunded[funder] */\n      0xffffffffffffffffffffffffffffffffffffffff\n      and\n      0xffffffffffffffffffffffffffffffffffffffff\n      and\n      dup2\n      mstore\n      0x20\n      add\n      swap1\n      dup2\n      mstore\n      0x20\n      add\n      0x00\n      keccak256\n        /* \"contracts/FundMe.sol\":1346:1379  addressToAmountFunded[funder] = 0 */\n      dup2\n      swap1\n      sstore\n      pop\n        /* \"contracts/FundMe.sol\":1283:1391  {... */\n      pop\n        /* \"contracts/FundMe.sol\":1255:1269  funderIndex ++ */\n      dup1\n      dup1\n      tag_47\n      swap1\n      tag_48\n      jump\t// in\n    tag_47:\n      swap2\n      pop\n      pop\n        /* \"contracts/FundMe.sol\":1197:1391  for (uint256 funderIndex=0; funderIndex < funders.length; funderIndex ++ ) ... */\n      jump(tag_40)\n    tag_41:\n      pop\n        /* \"contracts/FundMe.sol\":1425:1426  0 */\n      0x00\n        /* \"contracts/FundMe.sol\":1411:1427  new address[](0) */\n      0xffffffffffffffff\n      dup2\n      gt\n      iszero\n      tag_49\n      jumpi\n      tag_50\n      tag_51\n      jump\t// in\n    tag_50:\n    tag_49:\n      mload(0x40)\n      swap1\n      dup1\n      dup3\n      mstore\n      dup1\n      0x20\n      mul\n      0x20\n      add\n      dup3\n      add\n      0x40\n      mstore\n      dup1\n      iszero\n      tag_52\n      jumpi\n      dup2\n      0x20\n      add\n      0x20\n      dup3\n      mul\n      dup1\n      calldatasize\n      dup4\n      calldatacopy\n      dup1\n      dup3\n      add\n      swap2\n      pop\n      pop\n      swap1\n      pop\n    tag_52:\n      pop\n        /* \"contracts/FundMe.sol\":1401:1408  funders */\n      0x00\n        /* \"contracts/FundMe.sol\":1401:1427  funders = new address[](0) */\n      swap1\n      dup1\n      mload\n      swap1\n      0x20\n      add\n      swap1\n      tag_53\n      swap3\n      swap2\n      swap1\n      tag_54\n      jump\t// in\n    tag_53:\n      pop\n        /* \"contracts/FundMe.sol\":1441:1457  bool callSuccess */\n      0x00\n        /* \"contracts/FundMe.sol\":1471:1481  msg.sender */\n      caller\n        /* \"contracts/FundMe.sol\":1463:1487  payable(msg.sender).call */\n      0xffffffffffffffffffffffffffffffffffffffff\n      and\n        /* \"contracts/FundMe.sol\":1495:1516  address(this).balance */\n      selfbalance\n        /* \"contracts/FundMe.sol\":1463:1521  payable(msg.sender).call{value: address(this).balance}(\"\") */\n      mload(0x40)\n      tag_55\n      swap1\n      tag_56\n      jump\t// in\n    tag_55:\n      0x00\n      mload(0x40)\n      dup1\n      dup4\n      sub\n      dup2\n      dup6\n      dup8\n      gas\n      call\n      swap3\n      pop\n      pop\n      pop\n      returndatasize\n      dup1\n      0x00\n      dup2\n      eq\n      tag_59\n      jumpi\n      mload(0x40)\n      swap2\n      pop\n      and(add(returndatasize, 0x3f), not(0x1f))\n      dup3\n      add\n      0x40\n      mstore\n      returndatasize\n      dup3\n      mstore\n      returndatasize\n      0x00\n      0x20\n      dup5\n      add\n      returndatacopy\n      jump(tag_58)\n    tag_59:\n      0x60\n      swap2\n      pop\n    tag_58:\n      pop\n        /* \"contracts/FundMe.sol\":1440:1521  (bool callSuccess, ) = payable(msg.sender).call{value: address(this).balance}(\"\") */\n      pop\n      swap1\n      pop\n        /* \"contracts/FundMe.sol\":1541:1552  callSuccess */\n      dup1\n        /* \"contracts/FundMe.sol\":1532:1568  require (callSuccess, \"Call failed\") */\n      tag_60\n      jumpi\n      mload(0x40)\n      0x08c379a000000000000000000000000000000000000000000000000000000000\n      dup2\n      mstore\n      0x04\n      add\n      tag_61\n      swap1\n      tag_62\n      jump\t// in\n    tag_61:\n      mload(0x40)\n      dup1\n      swap2\n      sub\n      swap1\n      revert\n    tag_60:\n        /* \"contracts/FundMe.sol\":1119:2157  {... */\n      pop\n        /* \"contracts/FundMe.sol\":1082:2157  function withdraw() public onlyOwner {... */\n      jump\t// out\n        /* \"contracts/FundMe.sol\":459:516  mapping (address => uint256) public addressToAmountFunded */\n    tag_20:\n      mstore(0x20, 0x01)\n      dup1\n      0x00\n      mstore\n      keccak256(0x00, 0x40)\n      0x00\n      swap2\n      pop\n      swap1\n      pop\n      sload\n      dup2\n      jump\t// out\n        /* \"contracts/FundMe.sol\":525:545  address public owner */\n    tag_24:\n      0x02\n      0x00\n      swap1\n      sload\n      swap1\n      0x0100\n      exp\n      swap1\n      div\n      0xffffffffffffffffffffffffffffffffffffffff\n      and\n      dup2\n      jump\t// out\n        /* \"contracts/FundMe.sol\":618:1068  function fund() public payable{... */\n    tag_28:\n        /* \"contracts/FundMe.sol\":410:419  50 * 1e18 */\n      0x02b5e3af16b1880000\n        /* \"contracts/FundMe.sol\":753:782  msg.value.getConversionRate() */\n      tag_64\n        /* \"contracts/FundMe.sol\":753:762  msg.value */\n      callvalue\n        /* \"contracts/FundMe.sol\":753:780  msg.value.getConversionRate */\n      tag_65\n        /* \"contracts/FundMe.sol\":753:782  msg.value.getConversionRate() */\n      jump\t// in\n    tag_64:\n        /* \"contracts/FundMe.sol\":753:797  msg.value.getConversionRate() >= MINUMUM_USD */\n      lt\n      iszero\n        /* \"contracts/FundMe.sol\":745:821  require(msg.value.getConversionRate() >= MINUMUM_USD, \"Didn't send enough!\") */\n      tag_66\n      jumpi\n      mload(0x40)\n      0x08c379a000000000000000000000000000000000000000000000000000000000\n      dup2\n      mstore\n      0x04\n      add\n      tag_67\n      swap1\n      tag_68\n      jump\t// in\n    tag_67:\n      mload(0x40)\n      dup1\n      swap2\n      sub\n      swap1\n      revert\n    tag_66:\n        /* \"contracts/FundMe.sol\":883:890  funders */\n      0x00\n        /* \"contracts/FundMe.sol\":896:906  msg.sender */\n      caller\n        /* \"contracts/FundMe.sol\":883:907  funders.push(msg.sender) */\n      swap1\n      dup1\n      0x01\n      dup2\n      sload\n      add\n      dup1\n      dup3\n      sstore\n      dup1\n      swap2\n      pop\n      pop\n      0x01\n      swap1\n      sub\n      swap1\n      0x00\n      mstore\n      keccak256(0x00, 0x20)\n      add\n      0x00\n      swap1\n      swap2\n      swap1\n      swap2\n      swap1\n      swap2\n      0x0100\n      exp\n      dup2\n      sload\n      dup2\n      0xffffffffffffffffffffffffffffffffffffffff\n      mul\n      not\n      and\n      swap1\n      dup4\n      0xffffffffffffffffffffffffffffffffffffffff\n      and\n      mul\n      or\n      swap1\n      sstore\n      pop\n        /* \"contracts/FundMe.sol\":954:963  msg.value */\n      callvalue\n        /* \"contracts/FundMe.sol\":918:939  addressToAmountFunded */\n      0x01\n        /* \"contracts/FundMe.sol\":918:951  addressToAmountFunded[msg.sender] */\n      0x00\n        /* \"contracts/FundMe.sol\":940:950  msg.sender */\n      caller\n        /* \"contracts/FundMe.sol\":918:951  addressToAmountFunded[msg.sender] */\n      0xffffffffffffffffffffffffffffffffffffffff\n      and\n      0xffffffffffffffffffffffffffffffffffffffff\n      and\n      dup2\n      mstore\n      0x20\n      add\n      swap1\n      dup2\n      mstore\n      0x20\n      add\n      0x00\n      keccak256\n        /* \"contracts/FundMe.sol\":918:963  addressToAmountFunded[msg.sender] = msg.value */\n      dup2\n      swap1\n      sstore\n      pop\n        /* \"contracts/FundMe.sol\":618:1068  function fund() public payable{... */\n      jump\t// out\n        /* \"contracts/FundMe.sol\":428:452  address[] public funders */\n    tag_33:\n      0x00\n      dup2\n      dup2\n      sload\n      dup2\n      lt\n      tag_70\n      jumpi\n      0x00\n      dup1\n      revert\n    tag_70:\n      swap1\n      0x00\n      mstore\n      keccak256(0x00, 0x20)\n      add\n      0x00\n      swap2\n      pop\n      sload\n      swap1\n      0x0100\n      exp\n      swap1\n      div\n      0xffffffffffffffffffffffffffffffffffffffff\n      and\n      dup2\n      jump\t// out\n        /* \"contracts/PriceConverter.sol\":819:1172  function getConversionRate(uint256 ethAmount) internal view returns (uint256) {... */\n    tag_65:\n        /* \"contracts/PriceConverter.sol\":888:895  uint256 */\n      0x00\n        /* \"contracts/PriceConverter.sol\":908:924  uint256 ethPrice */\n      dup1\n        /* \"contracts/PriceConverter.sol\":927:937  getPrice() */\n      tag_73\n        /* \"contracts/PriceConverter.sol\":927:935  getPrice */\n      tag_74\n        /* \"contracts/PriceConverter.sol\":927:937  getPrice() */\n      jump\t// in\n    tag_73:\n        /* \"contracts/PriceConverter.sol\":908:937  uint256 ethPrice = getPrice() */\n      swap1\n      pop\n        /* \"contracts/PriceConverter.sol\":1040:1062  uint256 ethAmountInUsd */\n      0x00\n        /* \"contracts/PriceConverter.sol\":1090:1094  1e18 */\n      0x0de0b6b3a7640000\n        /* \"contracts/PriceConverter.sol\":1077:1086  ethAmount */\n      dup5\n        /* \"contracts/PriceConverter.sol\":1066:1074  ethPrice */\n      dup4\n        /* \"contracts/PriceConverter.sol\":1066:1086  ethPrice * ethAmount */\n      tag_75\n      swap2\n      swap1\n      tag_76\n      jump\t// in\n    tag_75:\n        /* \"contracts/PriceConverter.sol\":1065:1094  (ethPrice * ethAmount) / 1e18 */\n      tag_77\n      swap2\n      swap1\n      tag_78\n      jump\t// in\n    tag_77:\n        /* \"contracts/PriceConverter.sol\":1040:1094  uint256 ethAmountInUsd = (ethPrice * ethAmount) / 1e18 */\n      swap1\n      pop\n        /* \"contracts/PriceConverter.sol\":1150:1164  ethAmountInUsd */\n      dup1\n        /* \"contracts/PriceConverter.sol\":1143:1164  return ethAmountInUsd */\n      swap3\n      pop\n      pop\n      pop\n        /* \"contracts/PriceConverter.sol\":819:1172  function getConversionRate(uint256 ethAmount) internal view returns (uint256) {... */\n      swap2\n      swap1\n      pop\n      jump\t// out\n        /* \"contracts/PriceConverter.sol\":178:594  function getPrice() internal view returns (uint256) {... */\n    tag_74:\n        /* \"contracts/PriceConverter.sol\":221:228  uint256 */\n      0x00\n        /* \"contracts/PriceConverter.sol\":320:351  AggregatorV3Interface priceFeed */\n      dup1\n        /* \"contracts/PriceConverter.sol\":376:418  0x8A753747A1Fa494EC906cE90E9f37563A8AF630e */\n      0x8a753747a1fa494ec906ce90e9f37563a8af630e\n        /* \"contracts/PriceConverter.sol\":320:419  AggregatorV3Interface priceFeed = AggregatorV3Interface(0x8A753747A1Fa494EC906cE90E9f37563A8AF630e) */\n      swap1\n      pop\n        /* \"contracts/PriceConverter.sol\":431:443  int256 price */\n      0x00\n        /* \"contracts/PriceConverter.sol\":450:459  priceFeed */\n      dup2\n        /* \"contracts/PriceConverter.sol\":450:475  priceFeed.latestRoundData */\n      0xffffffffffffffffffffffffffffffffffffffff\n      and\n      0xfeaf968c\n        /* \"contracts/PriceConverter.sol\":450:477  priceFeed.latestRoundData() */\n      mload(0x40)\n      dup2\n      0xffffffff\n      and\n      0xe0\n      shl\n      dup2\n      mstore\n      0x04\n      add\n      0xa0\n      mload(0x40)\n      dup1\n      dup4\n      sub\n      dup2\n      dup7\n      gas\n      staticcall\n      iszero\n      dup1\n      iszero\n      tag_81\n      jumpi\n      returndatasize\n      0x00\n      dup1\n      returndatacopy\n      revert(0x00, returndatasize)\n    tag_81:\n      pop\n      pop\n      pop\n      pop\n      mload(0x40)\n      returndatasize\n      not(0x1f)\n      0x1f\n      dup3\n      add\n      and\n      dup3\n      add\n      dup1\n      0x40\n      mstore\n      pop\n      dup2\n      add\n      swap1\n      tag_82\n      swap2\n      swap1\n      tag_83\n      jump\t// in\n    tag_82:\n        /* \"contracts/PriceConverter.sol\":429:477  (,int256 price,,,) = priceFeed.latestRoundData() */\n      pop\n      pop\n      pop\n      swap2\n      pop\n      pop\n        /* \"contracts/PriceConverter.sol\":581:585  1e10 */\n      0x02540be400\n        /* \"contracts/PriceConverter.sol\":573:578  price */\n      dup2\n        /* \"contracts/PriceConverter.sol\":573:585  price * 1e10 */\n      tag_84\n      swap2\n      swap1\n      tag_85\n      jump\t// in\n    tag_84:\n        /* \"contracts/PriceConverter.sol\":558:586  return uint256(price * 1e10) */\n      swap3\n      pop\n      pop\n      pop\n        /* \"contracts/PriceConverter.sol\":178:594  function getPrice() internal view returns (uint256) {... */\n      swap1\n      jump\t// out\n    tag_54:\n      dup3\n      dup1\n      sload\n      dup3\n      dup3\n      sstore\n      swap1\n      0x00\n      mstore\n      keccak256(0x00, 0x20)\n      swap1\n      dup2\n      add\n      swap3\n      dup3\n      iszero\n      tag_86\n      jumpi\n      swap2\n      0x20\n      mul\n      dup3\n      add\n    tag_87:\n      dup3\n      dup2\n      gt\n      iszero\n      tag_88\n      jumpi\n      dup3\n      mload\n      dup3\n      exp(0x0100, 0x00)\n      dup2\n      sload\n      dup2\n      0xffffffffffffffffffffffffffffffffffffffff\n      mul\n      not\n      and\n      swap1\n      dup4\n      0xffffffffffffffffffffffffffffffffffffffff\n      and\n      mul\n      or\n      swap1\n      sstore\n      pop\n      swap2\n      0x20\n      add\n      swap2\n      swap1\n      0x01\n      add\n      swap1\n      jump(tag_87)\n    tag_88:\n    tag_86:\n      pop\n      swap1\n      pop\n      tag_89\n      swap2\n      swap1\n      tag_90\n      jump\t// in\n    tag_89:\n      pop\n      swap1\n      jump\t// out\n    tag_90:\n    tag_91:\n      dup1\n      dup3\n      gt\n      iszero\n      tag_92\n      jumpi\n      0x00\n      dup2\n      0x00\n      swap1\n      sstore\n      pop\n      0x01\n      add\n      jump(tag_91)\n    tag_92:\n      pop\n      swap1\n      jump\t// out\n        /* \"#utility.yul\":7:84   */\n    tag_93:\n        /* \"#utility.yul\":44:51   */\n      0x00\n        /* \"#utility.yul\":73:78   */\n      dup2\n        /* \"#utility.yul\":62:78   */\n      swap1\n      pop\n        /* \"#utility.yul\":7:84   */\n      swap2\n      swap1\n      pop\n      jump\t// out\n        /* \"#utility.yul\":90:208   */\n    tag_94:\n        /* \"#utility.yul\":177:201   */\n      tag_127\n        /* \"#utility.yul\":195:200   */\n      dup2\n        /* \"#utility.yul\":177:201   */\n      tag_93\n      jump\t// in\n    tag_127:\n        /* \"#utility.yul\":172:175   */\n      dup3\n        /* \"#utility.yul\":165:202   */\n      mstore\n        /* \"#utility.yul\":90:208   */\n      pop\n      pop\n      jump\t// out\n        /* \"#utility.yul\":214:436   */\n    tag_12:\n        /* \"#utility.yul\":307:311   */\n      0x00\n        /* \"#utility.yul\":345:347   */\n      0x20\n        /* \"#utility.yul\":334:343   */\n      dup3\n        /* \"#utility.yul\":330:348   */\n      add\n        /* \"#utility.yul\":322:348   */\n      swap1\n      pop\n        /* \"#utility.yul\":358:429   */\n      tag_129\n        /* \"#utility.yul\":426:427   */\n      0x00\n        /* \"#utility.yul\":415:424   */\n      dup4\n        /* \"#utility.yul\":411:428   */\n      add\n        /* \"#utility.yul\":402:408   */\n      dup5\n        /* \"#utility.yul\":358:429   */\n      tag_94\n      jump\t// in\n    tag_129:\n        /* \"#utility.yul\":214:436   */\n      swap3\n      swap2\n      pop\n      pop\n      jump\t// out\n        /* \"#utility.yul\":523:640   */\n    tag_96:\n        /* \"#utility.yul\":632:633   */\n      0x00\n        /* \"#utility.yul\":629:630   */\n      dup1\n        /* \"#utility.yul\":622:634   */\n      revert\n        /* \"#utility.yul\":769:895   */\n    tag_98:\n        /* \"#utility.yul\":806:813   */\n      0x00\n        /* \"#utility.yul\":846:888   */\n      0xffffffffffffffffffffffffffffffffffffffff\n        /* \"#utility.yul\":839:844   */\n      dup3\n        /* \"#utility.yul\":835:889   */\n      and\n        /* \"#utility.yul\":824:889   */\n      swap1\n      pop\n        /* \"#utility.yul\":769:895   */\n      swap2\n      swap1\n      pop\n      jump\t// out\n        /* \"#utility.yul\":901:997   */\n    tag_99:\n        /* \"#utility.yul\":938:945   */\n      0x00\n        /* \"#utility.yul\":967:991   */\n      tag_135\n        /* \"#utility.yul\":985:990   */\n      dup3\n        /* \"#utility.yul\":967:991   */\n      tag_98\n      jump\t// in\n    tag_135:\n        /* \"#utility.yul\":956:991   */\n      swap1\n      pop\n        /* \"#utility.yul\":901:997   */\n      swap2\n      swap1\n      pop\n      jump\t// out\n        /* \"#utility.yul\":1003:1125   */\n    tag_100:\n        /* \"#utility.yul\":1076:1100   */\n      tag_137\n        /* \"#utility.yul\":1094:1099   */\n      dup2\n        /* \"#utility.yul\":1076:1100   */\n      tag_99\n      jump\t// in\n    tag_137:\n        /* \"#utility.yul\":1069:1074   */\n      dup2\n        /* \"#utility.yul\":1066:1101   */\n      eq\n        /* \"#utility.yul\":1056:1119   */\n      tag_138\n      jumpi\n        /* \"#utility.yul\":1115:1116   */\n      0x00\n        /* \"#utility.yul\":1112:1113   */\n      dup1\n        /* \"#utility.yul\":1105:1117   */\n      revert\n        /* \"#utility.yul\":1056:1119   */\n    tag_138:\n        /* \"#utility.yul\":1003:1125   */\n      pop\n      jump\t// out\n        /* \"#utility.yul\":1131:1270   */\n    tag_101:\n        /* \"#utility.yul\":1177:1182   */\n      0x00\n        /* \"#utility.yul\":1215:1221   */\n      dup2\n        /* \"#utility.yul\":1202:1222   */\n      calldataload\n        /* \"#utility.yul\":1193:1222   */\n      swap1\n      pop\n        /* \"#utility.yul\":1231:1264   */\n      tag_140\n        /* \"#utility.yul\":1258:1263   */\n      dup2\n        /* \"#utility.yul\":1231:1264   */\n      tag_100\n      jump\t// in\n    tag_140:\n        /* \"#utility.yul\":1131:1270   */\n      swap3\n      swap2\n      pop\n      pop\n      jump\t// out\n        /* \"#utility.yul\":1276:1605   */\n    tag_19:\n        /* \"#utility.yul\":1335:1341   */\n      0x00\n        /* \"#utility.yul\":1384:1386   */\n      0x20\n        /* \"#utility.yul\":1372:1381   */\n      dup3\n        /* \"#utility.yul\":1363:1370   */\n      dup5\n        /* \"#utility.yul\":1359:1382   */\n      sub\n        /* \"#utility.yul\":1355:1387   */\n      slt\n        /* \"#utility.yul\":1352:1471   */\n      iszero\n      tag_142\n      jumpi\n        /* \"#utility.yul\":1390:1469   */\n      tag_143\n      tag_96\n      jump\t// in\n    tag_143:\n        /* \"#utility.yul\":1352:1471   */\n    tag_142:\n        /* \"#utility.yul\":1510:1511   */\n      0x00\n        /* \"#utility.yul\":1535:1588   */\n      tag_144\n        /* \"#utility.yul\":1580:1587   */\n      dup5\n        /* \"#utility.yul\":1571:1577   */\n      dup3\n        /* \"#utility.yul\":1560:1569   */\n      dup6\n        /* \"#utility.yul\":1556:1578   */\n      add\n        /* \"#utility.yul\":1535:1588   */\n      tag_101\n      jump\t// in\n    tag_144:\n        /* \"#utility.yul\":1525:1588   */\n      swap2\n      pop\n        /* \"#utility.yul\":1481:1598   */\n      pop\n        /* \"#utility.yul\":1276:1605   */\n      swap3\n      swap2\n      pop\n      pop\n      jump\t// out\n        /* \"#utility.yul\":1611:1729   */\n    tag_102:\n        /* \"#utility.yul\":1698:1722   */\n      tag_146\n        /* \"#utility.yul\":1716:1721   */\n      dup2\n        /* \"#utility.yul\":1698:1722   */\n      tag_99\n      jump\t// in\n    tag_146:\n        /* \"#utility.yul\":1693:1696   */\n      dup3\n        /* \"#utility.yul\":1686:1723   */\n      mstore\n        /* \"#utility.yul\":1611:1729   */\n      pop\n      pop\n      jump\t// out\n        /* \"#utility.yul\":1735:1957   */\n    tag_26:\n        /* \"#utility.yul\":1828:1832   */\n      0x00\n        /* \"#utility.yul\":1866:1868   */\n      0x20\n        /* \"#utility.yul\":1855:1864   */\n      dup3\n        /* \"#utility.yul\":1851:1869   */\n      add\n        /* \"#utility.yul\":1843:1869   */\n      swap1\n      pop\n        /* \"#utility.yul\":1879:1950   */\n      tag_148\n        /* \"#utility.yul\":1947:1948   */\n      0x00\n        /* \"#utility.yul\":1936:1945   */\n      dup4\n        /* \"#utility.yul\":1932:1949   */\n      add\n        /* \"#utility.yul\":1923:1929   */\n      dup5\n        /* \"#utility.yul\":1879:1950   */\n      tag_102\n      jump\t// in\n    tag_148:\n        /* \"#utility.yul\":1735:1957   */\n      swap3\n      swap2\n      pop\n      pop\n      jump\t// out\n        /* \"#utility.yul\":1963:2085   */\n    tag_103:\n        /* \"#utility.yul\":2036:2060   */\n      tag_150\n        /* \"#utility.yul\":2054:2059   */\n      dup2\n        /* \"#utility.yul\":2036:2060   */\n      tag_93\n      jump\t// in\n    tag_150:\n        /* \"#utility.yul\":2029:2034   */\n      dup2\n        /* \"#utility.yul\":2026:2061   */\n      eq\n        /* \"#utility.yul\":2016:2079   */\n      tag_151\n      jumpi\n        /* \"#utility.yul\":2075:2076   */\n      0x00\n        /* \"#utility.yul\":2072:2073   */\n      dup1\n        /* \"#utility.yul\":2065:2077   */\n      revert\n        /* \"#utility.yul\":2016:2079   */\n    tag_151:\n        /* \"#utility.yul\":1963:2085   */\n      pop\n      jump\t// out\n        /* \"#utility.yul\":2091:2230   */\n    tag_104:\n        /* \"#utility.yul\":2137:2142   */\n      0x00\n        /* \"#utility.yul\":2175:2181   */\n      dup2\n        /* \"#utility.yul\":2162:2182   */\n      calldataload\n        /* \"#utility.yul\":2153:2182   */\n      swap1\n      pop\n        /* \"#utility.yul\":2191:2224   */\n      tag_153\n        /* \"#utility.yul\":2218:2223   */\n      dup2\n        /* \"#utility.yul\":2191:2224   */\n      tag_103\n      jump\t// in\n    tag_153:\n        /* \"#utility.yul\":2091:2230   */\n      swap3\n      swap2\n      pop\n      pop\n      jump\t// out\n        /* \"#utility.yul\":2236:2565   */\n    tag_32:\n        /* \"#utility.yul\":2295:2301   */\n      0x00\n        /* \"#utility.yul\":2344:2346   */\n      0x20\n        /* \"#utility.yul\":2332:2341   */\n      dup3\n        /* \"#utility.yul\":2323:2330   */\n      dup5\n        /* \"#utility.yul\":2319:2342   */\n      sub\n        /* \"#utility.yul\":2315:2347   */\n      slt\n        /* \"#utility.yul\":2312:2431   */\n      iszero\n      tag_155\n      jumpi\n        /* \"#utility.yul\":2350:2429   */\n      tag_156\n      tag_96\n      jump\t// in\n    tag_156:\n        /* \"#utility.yul\":2312:2431   */\n    tag_155:\n        /* \"#utility.yul\":2470:2471   */\n      0x00\n        /* \"#utility.yul\":2495:2548   */\n      tag_157\n        /* \"#utility.yul\":2540:2547   */\n      dup5\n        /* \"#utility.yul\":2531:2537   */\n      dup3\n        /* \"#utility.yul\":2520:2529   */\n      dup6\n        /* \"#utility.yul\":2516:2538   */\n      add\n        /* \"#utility.yul\":2495:2548   */\n      tag_104\n      jump\t// in\n    tag_157:\n        /* \"#utility.yul\":2485:2548   */\n      swap2\n      pop\n        /* \"#utility.yul\":2441:2558   */\n      pop\n        /* \"#utility.yul\":2236:2565   */\n      swap3\n      swap2\n      pop\n      pop\n      jump\t// out\n        /* \"#utility.yul\":2571:2740   */\n    tag_105:\n        /* \"#utility.yul\":2655:2666   */\n      0x00\n        /* \"#utility.yul\":2689:2695   */\n      dup3\n        /* \"#utility.yul\":2684:2687   */\n      dup3\n        /* \"#utility.yul\":2677:2696   */\n      mstore\n        /* \"#utility.yul\":2729:2733   */\n      0x20\n        /* \"#utility.yul\":2724:2727   */\n      dup3\n        /* \"#utility.yul\":2720:2734   */\n      add\n        /* \"#utility.yul\":2705:2734   */\n      swap1\n      pop\n        /* \"#utility.yul\":2571:2740   */\n      swap3\n      swap2\n      pop\n      pop\n      jump\t// out\n        /* \"#utility.yul\":2746:2920   */\n    tag_106:\n        /* \"#utility.yul\":2886:2912   */\n      0x53656e646572206973206e6f7420746865206f776e6572210000000000000000\n        /* \"#utility.yul\":2882:2883   */\n      0x00\n        /* \"#utility.yul\":2874:2880   */\n      dup3\n        /* \"#utility.yul\":2870:2884   */\n      add\n        /* \"#utility.yul\":2863:2913   */\n      mstore\n        /* \"#utility.yul\":2746:2920   */\n      pop\n      jump\t// out\n        /* \"#utility.yul\":2926:3292   */\n    tag_107:\n        /* \"#utility.yul\":3068:3071   */\n      0x00\n        /* \"#utility.yul\":3089:3156   */\n      tag_161\n        /* \"#utility.yul\":3153:3155   */\n      0x18\n        /* \"#utility.yul\":3148:3151   */\n      dup4\n        /* \"#utility.yul\":3089:3156   */\n      tag_105\n      jump\t// in\n    tag_161:\n        /* \"#utility.yul\":3082:3156   */\n      swap2\n      pop\n        /* \"#utility.yul\":3165:3258   */\n      tag_162\n        /* \"#utility.yul\":3254:3257   */\n      dup3\n        /* \"#utility.yul\":3165:3258   */\n      tag_106\n      jump\t// in\n    tag_162:\n        /* \"#utility.yul\":3283:3285   */\n      0x20\n        /* \"#utility.yul\":3278:3281   */\n      dup3\n        /* \"#utility.yul\":3274:3286   */\n      add\n        /* \"#utility.yul\":3267:3286   */\n      swap1\n      pop\n        /* \"#utility.yul\":2926:3292   */\n      swap2\n      swap1\n      pop\n      jump\t// out\n        /* \"#utility.yul\":3298:3717   */\n    tag_38:\n        /* \"#utility.yul\":3464:3468   */\n      0x00\n        /* \"#utility.yul\":3502:3504   */\n      0x20\n        /* \"#utility.yul\":3491:3500   */\n      dup3\n        /* \"#utility.yul\":3487:3505   */\n      add\n        /* \"#utility.yul\":3479:3505   */\n      swap1\n      pop\n        /* \"#utility.yul\":3551:3560   */\n      dup2\n        /* \"#utility.yul\":3545:3549   */\n      dup2\n        /* \"#utility.yul\":3541:3561   */\n      sub\n        /* \"#utility.yul\":3537:3538   */\n      0x00\n        /* \"#utility.yul\":3526:3535   */\n      dup4\n        /* \"#utility.yul\":3522:3539   */\n      add\n        /* \"#utility.yul\":3515:3562   */\n      mstore\n        /* \"#utility.yul\":3579:3710   */\n      tag_164\n        /* \"#utility.yul\":3705:3709   */\n      dup2\n        /* \"#utility.yul\":3579:3710   */\n      tag_107\n      jump\t// in\n    tag_164:\n        /* \"#utility.yul\":3571:3710   */\n      swap1\n      pop\n        /* \"#utility.yul\":3298:3717   */\n      swap2\n      swap1\n      pop\n      jump\t// out\n        /* \"#utility.yul\":3723:3903   */\n    tag_45:\n        /* \"#utility.yul\":3771:3848   */\n      0x4e487b7100000000000000000000000000000000000000000000000000000000\n        /* \"#utility.yul\":3768:3769   */\n      0x00\n        /* \"#utility.yul\":3761:3849   */\n      mstore\n        /* \"#utility.yul\":3868:3872   */\n      0x32\n        /* \"#utility.yul\":3865:3866   */\n      0x04\n        /* \"#utility.yul\":3858:3873   */\n      mstore\n        /* \"#utility.yul\":3892:3896   */\n      0x24\n        /* \"#utility.yul\":3889:3890   */\n      0x00\n        /* \"#utility.yul\":3882:3897   */\n      revert\n        /* \"#utility.yul\":3909:4089   */\n    tag_108:\n        /* \"#utility.yul\":3957:4034   */\n      0x4e487b7100000000000000000000000000000000000000000000000000000000\n        /* \"#utility.yul\":3954:3955   */\n      0x00\n        /* \"#utility.yul\":3947:4035   */\n      mstore\n        /* \"#utility.yul\":4054:4058   */\n      0x11\n        /* \"#utility.yul\":4051:4052   */\n      0x04\n        /* \"#utility.yul\":4044:4059   */\n      mstore\n        /* \"#utility.yul\":4078:4082   */\n      0x24\n        /* \"#utility.yul\":4075:4076   */\n      0x00\n        /* \"#utility.yul\":4068:4083   */\n      revert\n        /* \"#utility.yul\":4095:4328   */\n    tag_48:\n        /* \"#utility.yul\":4134:4137   */\n      0x00\n        /* \"#utility.yul\":4157:4181   */\n      tag_168\n        /* \"#utility.yul\":4175:4180   */\n      dup3\n        /* \"#utility.yul\":4157:4181   */\n      tag_93\n      jump\t// in\n    tag_168:\n        /* \"#utility.yul\":4148:4181   */\n      swap2\n      pop\n        /* \"#utility.yul\":4203:4269   */\n      0xffffffffffffffffffffffffffffffffffffffffffffffffffffffffffffffff\n        /* \"#utility.yul\":4196:4201   */\n      dup3\n        /* \"#utility.yul\":4193:4270   */\n      sub\n        /* \"#utility.yul\":4190:4293   */\n      tag_169\n      jumpi\n        /* \"#utility.yul\":4273:4291   */\n      tag_170\n      tag_108\n      jump\t// in\n    tag_170:\n        /* \"#utility.yul\":4190:4293   */\n    tag_169:\n        /* \"#utility.yul\":4320:4321   */\n      0x01\n        /* \"#utility.yul\":4313:4318   */\n      dup3\n        /* \"#utility.yul\":4309:4322   */\n      add\n        /* \"#utility.yul\":4302:4322   */\n      swap1\n      pop\n        /* \"#utility.yul\":4095:4328   */\n      swap2\n      swap1\n      pop\n      jump\t// out\n        /* \"#utility.yul\":4334:4514   */\n    tag_51:\n        /* \"#utility.yul\":4382:4459   */\n      0x4e487b7100000000000000000000000000000000000000000000000000000000\n        /* \"#utility.yul\":4379:4380   */\n      0x00\n        /* \"#utility.yul\":4372:4460   */\n      mstore\n        /* \"#utility.yul\":4479:4483   */\n      0x41\n        /* \"#utility.yul\":4476:4477   */\n      0x04\n        /* \"#utility.yul\":4469:4484   */\n      mstore\n        /* \"#utility.yul\":4503:4507   */\n      0x24\n        /* \"#utility.yul\":4500:4501   */\n      0x00\n        /* \"#utility.yul\":4493:4508   */\n      revert\n        /* \"#utility.yul\":4520:4667   */\n    tag_109:\n        /* \"#utility.yul\":4621:4632   */\n      0x00\n        /* \"#utility.yul\":4658:4661   */\n      dup2\n        /* \"#utility.yul\":4643:4661   */\n      swap1\n      pop\n        /* \"#utility.yul\":4520:4667   */\n      swap3\n      swap2\n      pop\n      pop\n      jump\t// out\n        /* \"#utility.yul\":4673:4787   */\n    tag_110:\n      pop\n      jump\t// out\n        /* \"#utility.yul\":4793:5191   */\n    tag_111:\n        /* \"#utility.yul\":4952:4955   */\n      0x00\n        /* \"#utility.yul\":4973:5056   */\n      tag_175\n        /* \"#utility.yul\":5054:5055   */\n      0x00\n        /* \"#utility.yul\":5049:5052   */\n      dup4\n        /* \"#utility.yul\":4973:5056   */\n      tag_109\n      jump\t// in\n    tag_175:\n        /* \"#utility.yul\":4966:5056   */\n      swap2\n      pop\n        /* \"#utility.yul\":5065:5158   */\n      tag_176\n        /* \"#utility.yul\":5154:5157   */\n      dup3\n        /* \"#utility.yul\":5065:5158   */\n      tag_110\n      jump\t// in\n    tag_176:\n        /* \"#utility.yul\":5183:5184   */\n      0x00\n        /* \"#utility.yul\":5178:5181   */\n      dup3\n        /* \"#utility.yul\":5174:5185   */\n      add\n        /* \"#utility.yul\":5167:5185   */\n      swap1\n      pop\n        /* \"#utility.yul\":4793:5191   */\n      swap2\n      swap1\n      pop\n      jump\t// out\n        /* \"#utility.yul\":5197:5576   */\n    tag_56:\n        /* \"#utility.yul\":5381:5384   */\n      0x00\n        /* \"#utility.yul\":5403:5550   */\n      tag_178\n        /* \"#utility.yul\":5546:5549   */\n      dup3\n        /* \"#utility.yul\":5403:5550   */\n      tag_111\n      jump\t// in\n    tag_178:\n        /* \"#utility.yul\":5396:5550   */\n      swap2\n      pop\n        /* \"#utility.yul\":5567:5570   */\n      dup2\n        /* \"#utility.yul\":5560:5570   */\n      swap1\n      pop\n        /* \"#utility.yul\":5197:5576   */\n      swap2\n      swap1\n      pop\n      jump\t// out\n        /* \"#utility.yul\":5582:5743   */\n    tag_112:\n        /* \"#utility.yul\":5722:5735   */\n      0x43616c6c206661696c6564000000000000000000000000000000000000000000\n        /* \"#utility.yul\":5718:5719   */\n      0x00\n        /* \"#utility.yul\":5710:5716   */\n      dup3\n        /* \"#utility.yul\":5706:5720   */\n      add\n        /* \"#utility.yul\":5699:5736   */\n      mstore\n        /* \"#utility.yul\":5582:5743   */\n      pop\n      jump\t// out\n        /* \"#utility.yul\":5749:6115   */\n    tag_113:\n        /* \"#utility.yul\":5891:5894   */\n      0x00\n        /* \"#utility.yul\":5912:5979   */\n      tag_181\n        /* \"#utility.yul\":5976:5978   */\n      0x0b\n        /* \"#utility.yul\":5971:5974   */\n      dup4\n        /* \"#utility.yul\":5912:5979   */\n      tag_105\n      jump\t// in\n    tag_181:\n        /* \"#utility.yul\":5905:5979   */\n      swap2\n      pop\n        /* \"#utility.yul\":5988:6081   */\n      tag_182\n        /* \"#utility.yul\":6077:6080   */\n      dup3\n        /* \"#utility.yul\":5988:6081   */\n      tag_112\n      jump\t// in\n    tag_182:\n        /* \"#utility.yul\":6106:6108   */\n      0x20\n        /* \"#utility.yul\":6101:6104   */\n      dup3\n        /* \"#utility.yul\":6097:6109   */\n      add\n        /* \"#utility.yul\":6090:6109   */\n      swap1\n      pop\n        /* \"#utility.yul\":5749:6115   */\n      swap2\n      swap1\n      pop\n      jump\t// out\n        /* \"#utility.yul\":6121:6540   */\n    tag_62:\n        /* \"#utility.yul\":6287:6291   */\n      0x00\n        /* \"#utility.yul\":6325:6327   */\n      0x20\n        /* \"#utility.yul\":6314:6323   */\n      dup3\n        /* \"#utility.yul\":6310:6328   */\n      add\n        /* \"#utility.yul\":6302:6328   */\n      swap1\n      pop\n        /* \"#utility.yul\":6374:6383   */\n      dup2\n        /* \"#utility.yul\":6368:6372   */\n      dup2\n        /* \"#utility.yul\":6364:6384   */\n      sub\n        /* \"#utility.yul\":6360:6361   */\n      0x00\n        /* \"#utility.yul\":6349:6358   */\n      dup4\n        /* \"#utility.yul\":6345:6362   */\n      add\n        /* \"#utility.yul\":6338:6385   */\n      mstore\n        /* \"#utility.yul\":6402:6533   */\n      tag_184\n        /* \"#utility.yul\":6528:6532   */\n      dup2\n        /* \"#utility.yul\":6402:6533   */\n      tag_113\n      jump\t// in\n    tag_184:\n        /* \"#utility.yul\":6394:6533   */\n      swap1\n      pop\n        /* \"#utility.yul\":6121:6540   */\n      swap2\n      swap1\n      pop\n      jump\t// out\n        /* \"#utility.yul\":6546:6715   */\n    tag_114:\n        /* \"#utility.yul\":6686:6707   */\n      0x4469646e27742073656e6420656e6f7567682100000000000000000000000000\n        /* \"#utility.yul\":6682:6683   */\n      0x00\n        /* \"#utility.yul\":6674:6680   */\n      dup3\n        /* \"#utility.yul\":6670:6684   */\n      add\n        /* \"#utility.yul\":6663:6708   */\n      mstore\n        /* \"#utility.yul\":6546:6715   */\n      pop\n      jump\t// out\n        /* \"#utility.yul\":6721:7087   */\n    tag_115:\n        /* \"#utility.yul\":6863:6866   */\n      0x00\n        /* \"#utility.yul\":6884:6951   */\n      tag_187\n        /* \"#utility.yul\":6948:6950   */\n      0x13\n        /* \"#utility.yul\":6943:6946   */\n      dup4\n        /* \"#utility.yul\":6884:6951   */\n      tag_105\n      jump\t// in\n    tag_187:\n        /* \"#utility.yul\":6877:6951   */\n      swap2\n      pop\n        /* \"#utility.yul\":6960:7053   */\n      tag_188\n        /* \"#utility.yul\":7049:7052   */\n      dup3\n        /* \"#utility.yul\":6960:7053   */\n      tag_114\n      jump\t// in\n    tag_188:\n        /* \"#utility.yul\":7078:7080   */\n      0x20\n        /* \"#utility.yul\":7073:7076   */\n      dup3\n        /* \"#utility.yul\":7069:7081   */\n      add\n        /* \"#utility.yul\":7062:7081   */\n      swap1\n      pop\n        /* \"#utility.yul\":6721:7087   */\n      swap2\n      swap1\n      pop\n      jump\t// out\n        /* \"#utility.yul\":7093:7512   */\n    tag_68:\n        /* \"#utility.yul\":7259:7263   */\n      0x00\n        /* \"#utility.yul\":7297:7299   */\n      0x20\n        /* \"#utility.yul\":7286:7295   */\n      dup3\n        /* \"#utility.yul\":7282:7300   */\n      add\n        /* \"#utility.yul\":7274:7300   */\n      swap1\n      pop\n        /* \"#utility.yul\":7346:7355   */\n      dup2\n        /* \"#utility.yul\":7340:7344   */\n      dup2\n        /* \"#utility.yul\":7336:7356   */\n      sub\n        /* \"#utility.yul\":7332:7333   */\n      0x00\n        /* \"#utility.yul\":7321:7330   */\n      dup4\n        /* \"#utility.yul\":7317:7334   */\n      add\n        /* \"#utility.yul\":7310:7357   */\n      mstore\n        /* \"#utility.yul\":7374:7505   */\n      tag_190\n        /* \"#utility.yul\":7500:7504   */\n      dup2\n        /* \"#utility.yul\":7374:7505   */\n      tag_115\n      jump\t// in\n    tag_190:\n        /* \"#utility.yul\":7366:7505   */\n      swap1\n      pop\n        /* \"#utility.yul\":7093:7512   */\n      swap2\n      swap1\n      pop\n      jump\t// out\n        /* \"#utility.yul\":7518:7866   */\n    tag_76:\n        /* \"#utility.yul\":7558:7565   */\n      0x00\n        /* \"#utility.yul\":7581:7601   */\n      tag_192\n        /* \"#utility.yul\":7599:7600   */\n      dup3\n        /* \"#utility.yul\":7581:7601   */\n      tag_93\n      jump\t// in\n    tag_192:\n        /* \"#utility.yul\":7576:7601   */\n      swap2\n      pop\n        /* \"#utility.yul\":7615:7635   */\n      tag_193\n        /* \"#utility.yul\":7633:7634   */\n      dup4\n        /* \"#utility.yul\":7615:7635   */\n      tag_93\n      jump\t// in\n    tag_193:\n        /* \"#utility.yul\":7610:7635   */\n      swap3\n      pop\n        /* \"#utility.yul\":7803:7804   */\n      dup2\n        /* \"#utility.yul\":7735:7801   */\n      0xffffffffffffffffffffffffffffffffffffffffffffffffffffffffffffffff\n        /* \"#utility.yul\":7731:7805   */\n      div\n        /* \"#utility.yul\":7728:7729   */\n      dup4\n        /* \"#utility.yul\":7725:7806   */\n      gt\n        /* \"#utility.yul\":7720:7721   */\n      dup3\n        /* \"#utility.yul\":7713:7722   */\n      iszero\n        /* \"#utility.yul\":7706:7723   */\n      iszero\n        /* \"#utility.yul\":7702:7807   */\n      and\n        /* \"#utility.yul\":7699:7830   */\n      iszero\n      tag_194\n      jumpi\n        /* \"#utility.yul\":7810:7828   */\n      tag_195\n      tag_108\n      jump\t// in\n    tag_195:\n        /* \"#utility.yul\":7699:7830   */\n    tag_194:\n        /* \"#utility.yul\":7858:7859   */\n      dup3\n        /* \"#utility.yul\":7855:7856   */\n      dup3\n        /* \"#utility.yul\":7851:7860   */\n      mul\n        /* \"#utility.yul\":7840:7860   */\n      swap1\n      pop\n        /* \"#utility.yul\":7518:7866   */\n      swap3\n      swap2\n      pop\n      pop\n      jump\t// out\n        /* \"#utility.yul\":7872:8052   */\n    tag_116:\n        /* \"#utility.yul\":7920:7997   */\n      0x4e487b7100000000000000000000000000000000000000000000000000000000\n        /* \"#utility.yul\":7917:7918   */\n      0x00\n        /* \"#utility.yul\":7910:7998   */\n      mstore\n        /* \"#utility.yul\":8017:8021   */\n      0x12\n        /* \"#utility.yul\":8014:8015   */\n      0x04\n        /* \"#utility.yul\":8007:8022   */\n      mstore\n        /* \"#utility.yul\":8041:8045   */\n      0x24\n        /* \"#utility.yul\":8038:8039   */\n      0x00\n        /* \"#utility.yul\":8031:8046   */\n      revert\n        /* \"#utility.yul\":8058:8243   */\n    tag_78:\n        /* \"#utility.yul\":8098:8099   */\n      0x00\n        /* \"#utility.yul\":8115:8135   */\n      tag_198\n        /* \"#utility.yul\":8133:8134   */\n      dup3\n        /* \"#utility.yul\":8115:8135   */\n      tag_93\n      jump\t// in\n    tag_198:\n        /* \"#utility.yul\":8110:8135   */\n      swap2\n      pop\n        /* \"#utility.yul\":8149:8169   */\n      tag_199\n        /* \"#utility.yul\":8167:8168   */\n      dup4\n        /* \"#utility.yul\":8149:8169   */\n      tag_93\n      jump\t// in\n    tag_199:\n        /* \"#utility.yul\":8144:8169   */\n      swap3\n      pop\n        /* \"#utility.yul\":8188:8189   */\n      dup3\n        /* \"#utility.yul\":8178:8213   */\n      tag_200\n      jumpi\n        /* \"#utility.yul\":8193:8211   */\n      tag_201\n      tag_116\n      jump\t// in\n    tag_201:\n        /* \"#utility.yul\":8178:8213   */\n    tag_200:\n        /* \"#utility.yul\":8235:8236   */\n      dup3\n        /* \"#utility.yul\":8232:8233   */\n      dup3\n        /* \"#utility.yul\":8228:8237   */\n      div\n        /* \"#utility.yul\":8223:8237   */\n      swap1\n      pop\n        /* \"#utility.yul\":8058:8243   */\n      swap3\n      swap2\n      pop\n      pop\n      jump\t// out\n        /* \"#utility.yul\":8249:8354   */\n    tag_117:\n        /* \"#utility.yul\":8285:8292   */\n      0x00\n        /* \"#utility.yul\":8325:8347   */\n      0xffffffffffffffffffff\n        /* \"#utility.yul\":8318:8323   */\n      dup3\n        /* \"#utility.yul\":8314:8348   */\n      and\n        /* \"#utility.yul\":8303:8348   */\n      swap1\n      pop\n        /* \"#utility.yul\":8249:8354   */\n      swap2\n      swap1\n      pop\n      jump\t// out\n        /* \"#utility.yul\":8360:8480   */\n    tag_118:\n        /* \"#utility.yul\":8432:8455   */\n      tag_204\n        /* \"#utility.yul\":8449:8454   */\n      dup2\n        /* \"#utility.yul\":8432:8455   */\n      tag_117\n      jump\t// in\n    tag_204:\n        /* \"#utility.yul\":8425:8430   */\n      dup2\n        /* \"#utility.yul\":8422:8456   */\n      eq\n        /* \"#utility.yul\":8412:8474   */\n      tag_205\n      jumpi\n        /* \"#utility.yul\":8470:8471   */\n      0x00\n        /* \"#utility.yul\":8467:8468   */\n      dup1\n        /* \"#utility.yul\":8460:8472   */\n      revert\n        /* \"#utility.yul\":8412:8474   */\n    tag_205:\n        /* \"#utility.yul\":8360:8480   */\n      pop\n      jump\t// out\n        /* \"#utility.yul\":8486:8627   */\n    tag_119:\n        /* \"#utility.yul\":8542:8547   */\n      0x00\n        /* \"#utility.yul\":8573:8579   */\n      dup2\n        /* \"#utility.yul\":8567:8580   */\n      mload\n        /* \"#utility.yul\":8558:8580   */\n      swap1\n      pop\n        /* \"#utility.yul\":8589:8621   */\n      tag_207\n        /* \"#utility.yul\":8615:8620   */\n      dup2\n        /* \"#utility.yul\":8589:8621   */\n      tag_118\n      jump\t// in\n    tag_207:\n        /* \"#utility.yul\":8486:8627   */\n      swap3\n      swap2\n      pop\n      pop\n      jump\t// out\n        /* \"#utility.yul\":8633:8709   */\n    tag_120:\n        /* \"#utility.yul\":8669:8676   */\n      0x00\n        /* \"#utility.yul\":8698:8703   */\n      dup2\n        /* \"#utility.yul\":8687:8703   */\n      swap1\n      pop\n        /* \"#utility.yul\":8633:8709   */\n      swap2\n      swap1\n      pop\n      jump\t// out\n        /* \"#utility.yul\":8715:8835   */\n    tag_121:\n        /* \"#utility.yul\":8787:8810   */\n      tag_210\n        /* \"#utility.yul\":8804:8809   */\n      dup2\n        /* \"#utility.yul\":8787:8810   */\n      tag_120\n      jump\t// in\n    tag_210:\n        /* \"#utility.yul\":8780:8785   */\n      dup2\n        /* \"#utility.yul\":8777:8811   */\n      eq\n        /* \"#utility.yul\":8767:8829   */\n      tag_211\n      jumpi\n        /* \"#utility.yul\":8825:8826   */\n      0x00\n        /* \"#utility.yul\":8822:8823   */\n      dup1\n        /* \"#utility.yul\":8815:8827   */\n      revert\n        /* \"#utility.yul\":8767:8829   */\n    tag_211:\n        /* \"#utility.yul\":8715:8835   */\n      pop\n      jump\t// out\n        /* \"#utility.yul\":8841:8982   */\n    tag_122:\n        /* \"#utility.yul\":8897:8902   */\n      0x00\n        /* \"#utility.yul\":8928:8934   */\n      dup2\n        /* \"#utility.yul\":8922:8935   */\n      mload\n        /* \"#utility.yul\":8913:8935   */\n      swap1\n      pop\n        /* \"#utility.yul\":8944:8976   */\n      tag_213\n        /* \"#utility.yul\":8970:8975   */\n      dup2\n        /* \"#utility.yul\":8944:8976   */\n      tag_121\n      jump\t// in\n    tag_213:\n        /* \"#utility.yul\":8841:8982   */\n      swap3\n      swap2\n      pop\n      pop\n      jump\t// out\n        /* \"#utility.yul\":8988:9131   */\n    tag_123:\n        /* \"#utility.yul\":9045:9050   */\n      0x00\n        /* \"#utility.yul\":9076:9082   */\n      dup2\n        /* \"#utility.yul\":9070:9083   */\n      mload\n        /* \"#utility.yul\":9061:9083   */\n      swap1\n      pop\n        /* \"#utility.yul\":9092:9125   */\n      tag_215\n        /* \"#utility.yul\":9119:9124   */\n      dup2\n        /* \"#utility.yul\":9092:9125   */\n      tag_103\n      jump\t// in\n    tag_215:\n        /* \"#utility.yul\":8988:9131   */\n      swap3\n      swap2\n      pop\n      pop\n      jump\t// out\n        /* \"#utility.yul\":9137:10108   */\n    tag_83:\n        /* \"#utility.yul\":9240:9246   */\n      0x00\n        /* \"#utility.yul\":9248:9254   */\n      dup1\n        /* \"#utility.yul\":9256:9262   */\n      0x00\n        /* \"#utility.yul\":9264:9270   */\n      dup1\n        /* \"#utility.yul\":9272:9278   */\n      0x00\n        /* \"#utility.yul\":9321:9324   */\n      0xa0\n        /* \"#utility.yul\":9309:9318   */\n      dup7\n        /* \"#utility.yul\":9300:9307   */\n      dup9\n        /* \"#utility.yul\":9296:9319   */\n      sub\n        /* \"#utility.yul\":9292:9325   */\n      slt\n        /* \"#utility.yul\":9289:9409   */\n      iszero\n      tag_217\n      jumpi\n        /* \"#utility.yul\":9328:9407   */\n      tag_218\n      tag_96\n      jump\t// in\n    tag_218:\n        /* \"#utility.yul\":9289:9409   */\n    tag_217:\n        /* \"#utility.yul\":9448:9449   */\n      0x00\n        /* \"#utility.yul\":9473:9536   */\n      tag_219\n        /* \"#utility.yul\":9528:9535   */\n      dup9\n        /* \"#utility.yul\":9519:9525   */\n      dup3\n        /* \"#utility.yul\":9508:9517   */\n      dup10\n        /* \"#utility.yul\":9504:9526   */\n      add\n        /* \"#utility.yul\":9473:9536   */\n      tag_119\n      jump\t// in\n    tag_219:\n        /* \"#utility.yul\":9463:9536   */\n      swap6\n      pop\n        /* \"#utility.yul\":9419:9546   */\n      pop\n        /* \"#utility.yul\":9585:9587   */\n      0x20\n        /* \"#utility.yul\":9611:9674   */\n      tag_220\n        /* \"#utility.yul\":9666:9673   */\n      dup9\n        /* \"#utility.yul\":9657:9663   */\n      dup3\n        /* \"#utility.yul\":9646:9655   */\n      dup10\n        /* \"#utility.yul\":9642:9664   */\n      add\n        /* \"#utility.yul\":9611:9674   */\n      tag_122\n      jump\t// in\n    tag_220:\n        /* \"#utility.yul\":9601:9674   */\n      swap5\n      pop\n        /* \"#utility.yul\":9556:9684   */\n      pop\n        /* \"#utility.yul\":9723:9725   */\n      0x40\n        /* \"#utility.yul\":9749:9813   */\n      tag_221\n        /* \"#utility.yul\":9805:9812   */\n      dup9\n        /* \"#utility.yul\":9796:9802   */\n      dup3\n        /* \"#utility.yul\":9785:9794   */\n      dup10\n        /* \"#utility.yul\":9781:9803   */\n      add\n        /* \"#utility.yul\":9749:9813   */\n      tag_123\n      jump\t// in\n    tag_221:\n        /* \"#utility.yul\":9739:9813   */\n      swap4\n      pop\n        /* \"#utility.yul\":9694:9823   */\n      pop\n        /* \"#utility.yul\":9862:9864   */\n      0x60\n        /* \"#utility.yul\":9888:9952   */\n      tag_222\n        /* \"#utility.yul\":9944:9951   */\n      dup9\n        /* \"#utility.yul\":9935:9941   */\n      dup3\n        /* \"#utility.yul\":9924:9933   */\n      dup10\n        /* \"#utility.yul\":9920:9942   */\n      add\n        /* \"#utility.yul\":9888:9952   */\n      tag_123\n      jump\t// in\n    tag_222:\n        /* \"#utility.yul\":9878:9952   */\n      swap3\n      pop\n        /* \"#utility.yul\":9833:9962   */\n      pop\n        /* \"#utility.yul\":10001:10004   */\n      0x80\n        /* \"#utility.yul\":10028:10091   */\n      tag_223\n        /* \"#utility.yul\":10083:10090   */\n      dup9\n        /* \"#utility.yul\":10074:10080   */\n      dup3\n        /* \"#utility.yul\":10063:10072   */\n      dup10\n        /* \"#utility.yul\":10059:10081   */\n      add\n        /* \"#utility.yul\":10028:10091   */\n      tag_119\n      jump\t// in\n    tag_223:\n        /* \"#utility.yul\":10018:10091   */\n      swap2\n      pop\n        /* \"#utility.yul\":9972:10101   */\n      pop\n        /* \"#utility.yul\":9137:10108   */\n      swap3\n      swap6\n      pop\n      swap3\n      swap6\n      swap1\n      swap4\n      pop\n      jump\t// out\n        /* \"#utility.yul\":10114:11105   */\n    tag_85:\n        /* \"#utility.yul\":10153:10160   */\n      0x00\n        /* \"#utility.yul\":10176:10195   */\n      tag_225\n        /* \"#utility.yul\":10193:10194   */\n      dup3\n        /* \"#utility.yul\":10176:10195   */\n      tag_120\n      jump\t// in\n    tag_225:\n        /* \"#utility.yul\":10171:10195   */\n      swap2\n      pop\n        /* \"#utility.yul\":10209:10228   */\n      tag_226\n        /* \"#utility.yul\":10226:10227   */\n      dup4\n        /* \"#utility.yul\":10209:10228   */\n      tag_120\n      jump\t// in\n    tag_226:\n        /* \"#utility.yul\":10204:10228   */\n      swap3\n      pop\n        /* \"#utility.yul\":10410:10411   */\n      dup3\n        /* \"#utility.yul\":10342:10408   */\n      0x7fffffffffffffffffffffffffffffffffffffffffffffffffffffffffffffff\n        /* \"#utility.yul\":10338:10412   */\n      div\n        /* \"#utility.yul\":10335:10336   */\n      dup3\n        /* \"#utility.yul\":10332:10413   */\n      gt\n        /* \"#utility.yul\":10327:10328   */\n      0x00\n        /* \"#utility.yul\":10324:10325   */\n      dup5\n        /* \"#utility.yul\":10320:10329   */\n      sgt\n        /* \"#utility.yul\":10316:10317   */\n      0x00\n        /* \"#utility.yul\":10313:10314   */\n      dup5\n        /* \"#utility.yul\":10309:10318   */\n      sgt\n        /* \"#utility.yul\":10305:10330   */\n      and\n        /* \"#utility.yul\":10301:10414   */\n      and\n        /* \"#utility.yul\":10298:10437   */\n      iszero\n      tag_227\n      jumpi\n        /* \"#utility.yul\":10417:10435   */\n      tag_228\n      tag_108\n      jump\t// in\n    tag_228:\n        /* \"#utility.yul\":10298:10437   */\n    tag_227:\n        /* \"#utility.yul\":10621:10622   */\n      dup2\n        /* \"#utility.yul\":10553:10619   */\n      0x8000000000000000000000000000000000000000000000000000000000000000\n        /* \"#utility.yul\":10548:10623   */\n      sdiv\n        /* \"#utility.yul\":10545:10546   */\n      dup4\n        /* \"#utility.yul\":10541:10624   */\n      slt\n        /* \"#utility.yul\":10536:10537   */\n      0x00\n        /* \"#utility.yul\":10533:10534   */\n      dup5\n        /* \"#utility.yul\":10529:10538   */\n      slt\n        /* \"#utility.yul\":10525:10526   */\n      0x00\n        /* \"#utility.yul\":10522:10523   */\n      dup5\n        /* \"#utility.yul\":10518:10527   */\n      sgt\n        /* \"#utility.yul\":10514:10539   */\n      and\n        /* \"#utility.yul\":10510:10625   */\n      and\n        /* \"#utility.yul\":10507:10648   */\n      iszero\n      tag_229\n      jumpi\n        /* \"#utility.yul\":10628:10646   */\n      tag_230\n      tag_108\n      jump\t// in\n    tag_230:\n        /* \"#utility.yul\":10507:10648   */\n    tag_229:\n        /* \"#utility.yul\":10832:10833   */\n      dup3\n        /* \"#utility.yul\":10764:10830   */\n      0x8000000000000000000000000000000000000000000000000000000000000000\n        /* \"#utility.yul\":10759:10834   */\n      sdiv\n        /* \"#utility.yul\":10756:10757   */\n      dup3\n        /* \"#utility.yul\":10752:10835   */\n      slt\n        /* \"#utility.yul\":10747:10748   */\n      0x00\n        /* \"#utility.yul\":10744:10745   */\n      dup5\n        /* \"#utility.yul\":10740:10749   */\n      sgt\n        /* \"#utility.yul\":10736:10737   */\n      0x00\n        /* \"#utility.yul\":10733:10734   */\n      dup5\n        /* \"#utility.yul\":10729:10738   */\n      slt\n        /* \"#utility.yul\":10725:10750   */\n      and\n        /* \"#utility.yul\":10721:10836   */\n      and\n        /* \"#utility.yul\":10718:10859   */\n      iszero\n      tag_231\n      jumpi\n        /* \"#utility.yul\":10839:10857   */\n      tag_232\n      tag_108\n      jump\t// in\n    tag_232:\n        /* \"#utility.yul\":10718:10859   */\n    tag_231:\n        /* \"#utility.yul\":11042:11043   */\n      dup3\n        /* \"#utility.yul\":10974:11040   */\n      0x7fffffffffffffffffffffffffffffffffffffffffffffffffffffffffffffff\n        /* \"#utility.yul\":10969:11044   */\n      sdiv\n        /* \"#utility.yul\":10966:10967   */\n      dup3\n        /* \"#utility.yul\":10962:11045   */\n      slt\n        /* \"#utility.yul\":10957:10958   */\n      0x00\n        /* \"#utility.yul\":10954:10955   */\n      dup5\n        /* \"#utility.yul\":10950:10959   */\n      slt\n        /* \"#utility.yul\":10946:10947   */\n      0x00\n        /* \"#utility.yul\":10943:10944   */\n      dup5\n        /* \"#utility.yul\":10939:10948   */\n      slt\n        /* \"#utility.yul\":10935:10960   */\n      and\n        /* \"#utility.yul\":10931:11046   */\n      and\n        /* \"#utility.yul\":10928:11069   */\n      iszero\n      tag_233\n      jumpi\n        /* \"#utility.yul\":11049:11067   */\n      tag_234\n      tag_108\n      jump\t// in\n    tag_234:\n        /* \"#utility.yul\":10928:11069   */\n    tag_233:\n        /* \"#utility.yul\":11097:11098   */\n      dup3\n        /* \"#utility.yul\":11094:11095   */\n      dup3\n        /* \"#utility.yul\":11090:11099   */\n      mul\n        /* \"#utility.yul\":11079:11099   */\n      swap1\n      pop\n        /* \"#utility.yul\":10114:11105   */\n      swap3\n      swap2\n      pop\n      pop\n      jump\t// out\n\n    auxdata: 0xa2646970667358221220d56e80f4a5c6d672bb2cd0b6d519493ba8d32fbaf5c73a4e614a136771c9528a64736f6c634300080f0033\n}\n",
				"bytecode": {
					"linkReferences": {},
					"object": "608060405234801561001057600080fd5b5033600260006101000a81548173ffffffffffffffffffffffffffffffffffffffff021916908373ffffffffffffffffffffffffffffffffffffffff160217905550610d6d806100616000396000f3fe6080604052600436106100555760003560e01c8063116ebb2d1461005a5780633ccfd60b146100855780633e47d6f31461009c5780638da5cb5b146100d9578063b60d428814610104578063dc0d3dff1461010e575b600080fd5b34801561006657600080fd5b5061006f61014b565b60405161007c91906106c0565b60405180910390f35b34801561009157600080fd5b5061009a610158565b005b3480156100a857600080fd5b506100c360048036038101906100be919061073e565b6103a3565b6040516100d091906106c0565b60405180910390f35b3480156100e557600080fd5b506100ee6103bb565b6040516100fb919061077a565b60405180910390f35b61010c6103e1565b005b34801561011a57600080fd5b50610135600480360381019061013091906107c1565b6104de565b604051610142919061077a565b60405180910390f35b6802b5e3af16b188000081565b600260009054906101000a900473ffffffffffffffffffffffffffffffffffffffff1673ffffffffffffffffffffffffffffffffffffffff163373ffffffffffffffffffffffffffffffffffffffff16146101e8576040517f08c379a00000000000000000000000000000000000000000000000000000000081526004016101df9061084b565b60405180910390fd5b60005b60008054905081101561029357600080828154811061020d5761020c61086b565b5b9060005260206000200160009054906101000a900473ffffffffffffffffffffffffffffffffffffffff1690506000600160008373ffffffffffffffffffffffffffffffffffffffff1673ffffffffffffffffffffffffffffffffffffffff1681526020019081526020016000208190555050808061028b906108c9565b9150506101eb565b50600067ffffffffffffffff8111156102af576102ae610911565b5b6040519080825280602002602001820160405280156102dd5781602001602082028036833780820191505090505b50600090805190602001906102f3929190610600565b5060003373ffffffffffffffffffffffffffffffffffffffff164760405161031a90610971565b60006040518083038185875af1925050503d8060008114610357576040519150601f19603f3d011682016040523d82523d6000602084013e61035c565b606091505b50509050806103a0576040517f08c379a0000000000000000000000000000000000000000000000000000000008152600401610397906109d2565b60405180910390fd5b50565b60016020528060005260406000206000915090505481565b600260009054906101000a900473ffffffffffffffffffffffffffffffffffffffff1681565b6802b5e3af16b18800006103f43461051d565b1015610435576040517f08c379a000000000000000000000000000000000000000000000000000000000815260040161042c90610a3e565b60405180910390fd5b6000339080600181540180825580915050600190039060005260206000200160009091909190916101000a81548173ffffffffffffffffffffffffffffffffffffffff021916908373ffffffffffffffffffffffffffffffffffffffff16021790555034600160003373ffffffffffffffffffffffffffffffffffffffff1673ffffffffffffffffffffffffffffffffffffffff16815260200190815260200160002081905550565b600081815481106104ee57600080fd5b906000526020600020016000915054906101000a900473ffffffffffffffffffffffffffffffffffffffff1681565b600080610528610557565b90506000670de0b6b3a764000084836105419190610a5e565b61054b9190610ae7565b90508092505050919050565b600080738a753747a1fa494ec906ce90e9f37563a8af630e905060008173ffffffffffffffffffffffffffffffffffffffff1663feaf968c6040518163ffffffff1660e01b815260040160a060405180830381865afa1580156105be573d6000803e3d6000fd5b505050506040513d601f19601f820116820180604052508101906105e29190610ba5565b5050509150506402540be400816105f99190610c20565b9250505090565b828054828255906000526020600020908101928215610679579160200282015b828111156106785782518260006101000a81548173ffffffffffffffffffffffffffffffffffffffff021916908373ffffffffffffffffffffffffffffffffffffffff16021790555091602001919060010190610620565b5b509050610686919061068a565b5090565b5b808211156106a357600081600090555060010161068b565b5090565b6000819050919050565b6106ba816106a7565b82525050565b60006020820190506106d560008301846106b1565b92915050565b600080fd5b600073ffffffffffffffffffffffffffffffffffffffff82169050919050565b600061070b826106e0565b9050919050565b61071b81610700565b811461072657600080fd5b50565b60008135905061073881610712565b92915050565b600060208284031215610754576107536106db565b5b600061076284828501610729565b91505092915050565b61077481610700565b82525050565b600060208201905061078f600083018461076b565b92915050565b61079e816106a7565b81146107a957600080fd5b50565b6000813590506107bb81610795565b92915050565b6000602082840312156107d7576107d66106db565b5b60006107e5848285016107ac565b91505092915050565b600082825260208201905092915050565b7f53656e646572206973206e6f7420746865206f776e6572210000000000000000600082015250565b60006108356018836107ee565b9150610840826107ff565b602082019050919050565b6000602082019050818103600083015261086481610828565b9050919050565b7f4e487b7100000000000000000000000000000000000000000000000000000000600052603260045260246000fd5b7f4e487b7100000000000000000000000000000000000000000000000000000000600052601160045260246000fd5b60006108d4826106a7565b91507fffffffffffffffffffffffffffffffffffffffffffffffffffffffffffffffff82036109065761090561089a565b5b600182019050919050565b7f4e487b7100000000000000000000000000000000000000000000000000000000600052604160045260246000fd5b600081905092915050565b50565b600061095b600083610940565b91506109668261094b565b600082019050919050565b600061097c8261094e565b9150819050919050565b7f43616c6c206661696c6564000000000000000000000000000000000000000000600082015250565b60006109bc600b836107ee565b91506109c782610986565b602082019050919050565b600060208201905081810360008301526109eb816109af565b9050919050565b7f4469646e27742073656e6420656e6f7567682100000000000000000000000000600082015250565b6000610a286013836107ee565b9150610a33826109f2565b602082019050919050565b60006020820190508181036000830152610a5781610a1b565b9050919050565b6000610a69826106a7565b9150610a74836106a7565b9250817fffffffffffffffffffffffffffffffffffffffffffffffffffffffffffffffff0483118215151615610aad57610aac61089a565b5b828202905092915050565b7f4e487b7100000000000000000000000000000000000000000000000000000000600052601260045260246000fd5b6000610af2826106a7565b9150610afd836106a7565b925082610b0d57610b0c610ab8565b5b828204905092915050565b600069ffffffffffffffffffff82169050919050565b610b3781610b18565b8114610b4257600080fd5b50565b600081519050610b5481610b2e565b92915050565b6000819050919050565b610b6d81610b5a565b8114610b7857600080fd5b50565b600081519050610b8a81610b64565b92915050565b600081519050610b9f81610795565b92915050565b600080600080600060a08688031215610bc157610bc06106db565b5b6000610bcf88828901610b45565b9550506020610be088828901610b7b565b9450506040610bf188828901610b90565b9350506060610c0288828901610b90565b9250506080610c1388828901610b45565b9150509295509295909350565b6000610c2b82610b5a565b9150610c3683610b5a565b9250827f7fffffffffffffffffffffffffffffffffffffffffffffffffffffffffffffff0482116000841360008413161615610c7557610c7461089a565b5b817f80000000000000000000000000000000000000000000000000000000000000000583126000841260008413161615610cb257610cb161089a565b5b827f80000000000000000000000000000000000000000000000000000000000000000582126000841360008412161615610cef57610cee61089a565b5b827f7fffffffffffffffffffffffffffffffffffffffffffffffffffffffffffffff0582126000841260008412161615610d2c57610d2b61089a565b5b82820290509291505056fea2646970667358221220d56e80f4a5c6d672bb2cd0b6d519493ba8d32fbaf5c73a4e614a136771c9528a64736f6c634300080f0033",
					"opcodes": "PUSH1 0x80 PUSH1 0x40 MSTORE CALLVALUE DUP1 ISZERO PUSH2 0x10 JUMPI PUSH1 0x0 DUP1 REVERT JUMPDEST POP CALLER PUSH1 0x2 PUSH1 0x0 PUSH2 0x100 EXP DUP2 SLOAD DUP2 PUSH20 0xFFFFFFFFFFFFFFFFFFFFFFFFFFFFFFFFFFFFFFFF MUL NOT AND SWAP1 DUP4 PUSH20 0xFFFFFFFFFFFFFFFFFFFFFFFFFFFFFFFFFFFFFFFF AND MUL OR SWAP1 SSTORE POP PUSH2 0xD6D DUP1 PUSH2 0x61 PUSH1 0x0 CODECOPY PUSH1 0x0 RETURN INVALID PUSH1 0x80 PUSH1 0x40 MSTORE PUSH1 0x4 CALLDATASIZE LT PUSH2 0x55 JUMPI PUSH1 0x0 CALLDATALOAD PUSH1 0xE0 SHR DUP1 PUSH4 0x116EBB2D EQ PUSH2 0x5A JUMPI DUP1 PUSH4 0x3CCFD60B EQ PUSH2 0x85 JUMPI DUP1 PUSH4 0x3E47D6F3 EQ PUSH2 0x9C JUMPI DUP1 PUSH4 0x8DA5CB5B EQ PUSH2 0xD9 JUMPI DUP1 PUSH4 0xB60D4288 EQ PUSH2 0x104 JUMPI DUP1 PUSH4 0xDC0D3DFF EQ PUSH2 0x10E JUMPI JUMPDEST PUSH1 0x0 DUP1 REVERT JUMPDEST CALLVALUE DUP1 ISZERO PUSH2 0x66 JUMPI PUSH1 0x0 DUP1 REVERT JUMPDEST POP PUSH2 0x6F PUSH2 0x14B JUMP JUMPDEST PUSH1 0x40 MLOAD PUSH2 0x7C SWAP2 SWAP1 PUSH2 0x6C0 JUMP JUMPDEST PUSH1 0x40 MLOAD DUP1 SWAP2 SUB SWAP1 RETURN JUMPDEST CALLVALUE DUP1 ISZERO PUSH2 0x91 JUMPI PUSH1 0x0 DUP1 REVERT JUMPDEST POP PUSH2 0x9A PUSH2 0x158 JUMP JUMPDEST STOP JUMPDEST CALLVALUE DUP1 ISZERO PUSH2 0xA8 JUMPI PUSH1 0x0 DUP1 REVERT JUMPDEST POP PUSH2 0xC3 PUSH1 0x4 DUP1 CALLDATASIZE SUB DUP2 ADD SWAP1 PUSH2 0xBE SWAP2 SWAP1 PUSH2 0x73E JUMP JUMPDEST PUSH2 0x3A3 JUMP JUMPDEST PUSH1 0x40 MLOAD PUSH2 0xD0 SWAP2 SWAP1 PUSH2 0x6C0 JUMP JUMPDEST PUSH1 0x40 MLOAD DUP1 SWAP2 SUB SWAP1 RETURN JUMPDEST CALLVALUE DUP1 ISZERO PUSH2 0xE5 JUMPI PUSH1 0x0 DUP1 REVERT JUMPDEST POP PUSH2 0xEE PUSH2 0x3BB JUMP JUMPDEST PUSH1 0x40 MLOAD PUSH2 0xFB SWAP2 SWAP1 PUSH2 0x77A JUMP JUMPDEST PUSH1 0x40 MLOAD DUP1 SWAP2 SUB SWAP1 RETURN JUMPDEST PUSH2 0x10C PUSH2 0x3E1 JUMP JUMPDEST STOP JUMPDEST CALLVALUE DUP1 ISZERO PUSH2 0x11A JUMPI PUSH1 0x0 DUP1 REVERT JUMPDEST POP PUSH2 0x135 PUSH1 0x4 DUP1 CALLDATASIZE SUB DUP2 ADD SWAP1 PUSH2 0x130 SWAP2 SWAP1 PUSH2 0x7C1 JUMP JUMPDEST PUSH2 0x4DE JUMP JUMPDEST PUSH1 0x40 MLOAD PUSH2 0x142 SWAP2 SWAP1 PUSH2 0x77A JUMP JUMPDEST PUSH1 0x40 MLOAD DUP1 SWAP2 SUB SWAP1 RETURN JUMPDEST PUSH9 0x2B5E3AF16B1880000 DUP2 JUMP JUMPDEST PUSH1 0x2 PUSH1 0x0 SWAP1 SLOAD SWAP1 PUSH2 0x100 EXP SWAP1 DIV PUSH20 0xFFFFFFFFFFFFFFFFFFFFFFFFFFFFFFFFFFFFFFFF AND PUSH20 0xFFFFFFFFFFFFFFFFFFFFFFFFFFFFFFFFFFFFFFFF AND CALLER PUSH20 0xFFFFFFFFFFFFFFFFFFFFFFFFFFFFFFFFFFFFFFFF AND EQ PUSH2 0x1E8 JUMPI PUSH1 0x40 MLOAD PUSH32 0x8C379A000000000000000000000000000000000000000000000000000000000 DUP2 MSTORE PUSH1 0x4 ADD PUSH2 0x1DF SWAP1 PUSH2 0x84B JUMP JUMPDEST PUSH1 0x40 MLOAD DUP1 SWAP2 SUB SWAP1 REVERT JUMPDEST PUSH1 0x0 JUMPDEST PUSH1 0x0 DUP1 SLOAD SWAP1 POP DUP2 LT ISZERO PUSH2 0x293 JUMPI PUSH1 0x0 DUP1 DUP3 DUP2 SLOAD DUP2 LT PUSH2 0x20D JUMPI PUSH2 0x20C PUSH2 0x86B JUMP JUMPDEST JUMPDEST SWAP1 PUSH1 0x0 MSTORE PUSH1 0x20 PUSH1 0x0 KECCAK256 ADD PUSH1 0x0 SWAP1 SLOAD SWAP1 PUSH2 0x100 EXP SWAP1 DIV PUSH20 0xFFFFFFFFFFFFFFFFFFFFFFFFFFFFFFFFFFFFFFFF AND SWAP1 POP PUSH1 0x0 PUSH1 0x1 PUSH1 0x0 DUP4 PUSH20 0xFFFFFFFFFFFFFFFFFFFFFFFFFFFFFFFFFFFFFFFF AND PUSH20 0xFFFFFFFFFFFFFFFFFFFFFFFFFFFFFFFFFFFFFFFF AND DUP2 MSTORE PUSH1 0x20 ADD SWAP1 DUP2 MSTORE PUSH1 0x20 ADD PUSH1 0x0 KECCAK256 DUP2 SWAP1 SSTORE POP POP DUP1 DUP1 PUSH2 0x28B SWAP1 PUSH2 0x8C9 JUMP JUMPDEST SWAP2 POP POP PUSH2 0x1EB JUMP JUMPDEST POP PUSH1 0x0 PUSH8 0xFFFFFFFFFFFFFFFF DUP2 GT ISZERO PUSH2 0x2AF JUMPI PUSH2 0x2AE PUSH2 0x911 JUMP JUMPDEST JUMPDEST PUSH1 0x40 MLOAD SWAP1 DUP1 DUP3 MSTORE DUP1 PUSH1 0x20 MUL PUSH1 0x20 ADD DUP3 ADD PUSH1 0x40 MSTORE DUP1 ISZERO PUSH2 0x2DD JUMPI DUP2 PUSH1 0x20 ADD PUSH1 0x20 DUP3 MUL DUP1 CALLDATASIZE DUP4 CALLDATACOPY DUP1 DUP3 ADD SWAP2 POP POP SWAP1 POP JUMPDEST POP PUSH1 0x0 SWAP1 DUP1 MLOAD SWAP1 PUSH1 0x20 ADD SWAP1 PUSH2 0x2F3 SWAP3 SWAP2 SWAP1 PUSH2 0x600 JUMP JUMPDEST POP PUSH1 0x0 CALLER PUSH20 0xFFFFFFFFFFFFFFFFFFFFFFFFFFFFFFFFFFFFFFFF AND SELFBALANCE PUSH1 0x40 MLOAD PUSH2 0x31A SWAP1 PUSH2 0x971 JUMP JUMPDEST PUSH1 0x0 PUSH1 0x40 MLOAD DUP1 DUP4 SUB DUP2 DUP6 DUP8 GAS CALL SWAP3 POP POP POP RETURNDATASIZE DUP1 PUSH1 0x0 DUP2 EQ PUSH2 0x357 JUMPI PUSH1 0x40 MLOAD SWAP2 POP PUSH1 0x1F NOT PUSH1 0x3F RETURNDATASIZE ADD AND DUP3 ADD PUSH1 0x40 MSTORE RETURNDATASIZE DUP3 MSTORE RETURNDATASIZE PUSH1 0x0 PUSH1 0x20 DUP5 ADD RETURNDATACOPY PUSH2 0x35C JUMP JUMPDEST PUSH1 0x60 SWAP2 POP JUMPDEST POP POP SWAP1 POP DUP1 PUSH2 0x3A0 JUMPI PUSH1 0x40 MLOAD PUSH32 0x8C379A000000000000000000000000000000000000000000000000000000000 DUP2 MSTORE PUSH1 0x4 ADD PUSH2 0x397 SWAP1 PUSH2 0x9D2 JUMP JUMPDEST PUSH1 0x40 MLOAD DUP1 SWAP2 SUB SWAP1 REVERT JUMPDEST POP JUMP JUMPDEST PUSH1 0x1 PUSH1 0x20 MSTORE DUP1 PUSH1 0x0 MSTORE PUSH1 0x40 PUSH1 0x0 KECCAK256 PUSH1 0x0 SWAP2 POP SWAP1 POP SLOAD DUP2 JUMP JUMPDEST PUSH1 0x2 PUSH1 0x0 SWAP1 SLOAD SWAP1 PUSH2 0x100 EXP SWAP1 DIV PUSH20 0xFFFFFFFFFFFFFFFFFFFFFFFFFFFFFFFFFFFFFFFF AND DUP2 JUMP JUMPDEST PUSH9 0x2B5E3AF16B1880000 PUSH2 0x3F4 CALLVALUE PUSH2 0x51D JUMP JUMPDEST LT ISZERO PUSH2 0x435 JUMPI PUSH1 0x40 MLOAD PUSH32 0x8C379A000000000000000000000000000000000000000000000000000000000 DUP2 MSTORE PUSH1 0x4 ADD PUSH2 0x42C SWAP1 PUSH2 0xA3E JUMP JUMPDEST PUSH1 0x40 MLOAD DUP1 SWAP2 SUB SWAP1 REVERT JUMPDEST PUSH1 0x0 CALLER SWAP1 DUP1 PUSH1 0x1 DUP2 SLOAD ADD DUP1 DUP3 SSTORE DUP1 SWAP2 POP POP PUSH1 0x1 SWAP1 SUB SWAP1 PUSH1 0x0 MSTORE PUSH1 0x20 PUSH1 0x0 KECCAK256 ADD PUSH1 0x0 SWAP1 SWAP2 SWAP1 SWAP2 SWAP1 SWAP2 PUSH2 0x100 EXP DUP2 SLOAD DUP2 PUSH20 0xFFFFFFFFFFFFFFFFFFFFFFFFFFFFFFFFFFFFFFFF MUL NOT AND SWAP1 DUP4 PUSH20 0xFFFFFFFFFFFFFFFFFFFFFFFFFFFFFFFFFFFFFFFF AND MUL OR SWAP1 SSTORE POP CALLVALUE PUSH1 0x1 PUSH1 0x0 CALLER PUSH20 0xFFFFFFFFFFFFFFFFFFFFFFFFFFFFFFFFFFFFFFFF AND PUSH20 0xFFFFFFFFFFFFFFFFFFFFFFFFFFFFFFFFFFFFFFFF AND DUP2 MSTORE PUSH1 0x20 ADD SWAP1 DUP2 MSTORE PUSH1 0x20 ADD PUSH1 0x0 KECCAK256 DUP2 SWAP1 SSTORE POP JUMP JUMPDEST PUSH1 0x0 DUP2 DUP2 SLOAD DUP2 LT PUSH2 0x4EE JUMPI PUSH1 0x0 DUP1 REVERT JUMPDEST SWAP1 PUSH1 0x0 MSTORE PUSH1 0x20 PUSH1 0x0 KECCAK256 ADD PUSH1 0x0 SWAP2 POP SLOAD SWAP1 PUSH2 0x100 EXP SWAP1 DIV PUSH20 0xFFFFFFFFFFFFFFFFFFFFFFFFFFFFFFFFFFFFFFFF AND DUP2 JUMP JUMPDEST PUSH1 0x0 DUP1 PUSH2 0x528 PUSH2 0x557 JUMP JUMPDEST SWAP1 POP PUSH1 0x0 PUSH8 0xDE0B6B3A7640000 DUP5 DUP4 PUSH2 0x541 SWAP2 SWAP1 PUSH2 0xA5E JUMP JUMPDEST PUSH2 0x54B SWAP2 SWAP1 PUSH2 0xAE7 JUMP JUMPDEST SWAP1 POP DUP1 SWAP3 POP POP POP SWAP2 SWAP1 POP JUMP JUMPDEST PUSH1 0x0 DUP1 PUSH20 0x8A753747A1FA494EC906CE90E9F37563A8AF630E SWAP1 POP PUSH1 0x0 DUP2 PUSH20 0xFFFFFFFFFFFFFFFFFFFFFFFFFFFFFFFFFFFFFFFF AND PUSH4 0xFEAF968C PUSH1 0x40 MLOAD DUP2 PUSH4 0xFFFFFFFF AND PUSH1 0xE0 SHL DUP2 MSTORE PUSH1 0x4 ADD PUSH1 0xA0 PUSH1 0x40 MLOAD DUP1 DUP4 SUB DUP2 DUP7 GAS STATICCALL ISZERO DUP1 ISZERO PUSH2 0x5BE JUMPI RETURNDATASIZE PUSH1 0x0 DUP1 RETURNDATACOPY RETURNDATASIZE PUSH1 0x0 REVERT JUMPDEST POP POP POP POP PUSH1 0x40 MLOAD RETURNDATASIZE PUSH1 0x1F NOT PUSH1 0x1F DUP3 ADD AND DUP3 ADD DUP1 PUSH1 0x40 MSTORE POP DUP2 ADD SWAP1 PUSH2 0x5E2 SWAP2 SWAP1 PUSH2 0xBA5 JUMP JUMPDEST POP POP POP SWAP2 POP POP PUSH5 0x2540BE400 DUP2 PUSH2 0x5F9 SWAP2 SWAP1 PUSH2 0xC20 JUMP JUMPDEST SWAP3 POP POP POP SWAP1 JUMP JUMPDEST DUP3 DUP1 SLOAD DUP3 DUP3 SSTORE SWAP1 PUSH1 0x0 MSTORE PUSH1 0x20 PUSH1 0x0 KECCAK256 SWAP1 DUP2 ADD SWAP3 DUP3 ISZERO PUSH2 0x679 JUMPI SWAP2 PUSH1 0x20 MUL DUP3 ADD JUMPDEST DUP3 DUP2 GT ISZERO PUSH2 0x678 JUMPI DUP3 MLOAD DUP3 PUSH1 0x0 PUSH2 0x100 EXP DUP2 SLOAD DUP2 PUSH20 0xFFFFFFFFFFFFFFFFFFFFFFFFFFFFFFFFFFFFFFFF MUL NOT AND SWAP1 DUP4 PUSH20 0xFFFFFFFFFFFFFFFFFFFFFFFFFFFFFFFFFFFFFFFF AND MUL OR SWAP1 SSTORE POP SWAP2 PUSH1 0x20 ADD SWAP2 SWAP1 PUSH1 0x1 ADD SWAP1 PUSH2 0x620 JUMP JUMPDEST JUMPDEST POP SWAP1 POP PUSH2 0x686 SWAP2 SWAP1 PUSH2 0x68A JUMP JUMPDEST POP SWAP1 JUMP JUMPDEST JUMPDEST DUP1 DUP3 GT ISZERO PUSH2 0x6A3 JUMPI PUSH1 0x0 DUP2 PUSH1 0x0 SWAP1 SSTORE POP PUSH1 0x1 ADD PUSH2 0x68B JUMP JUMPDEST POP SWAP1 JUMP JUMPDEST PUSH1 0x0 DUP2 SWAP1 POP SWAP2 SWAP1 POP JUMP JUMPDEST PUSH2 0x6BA DUP2 PUSH2 0x6A7 JUMP JUMPDEST DUP3 MSTORE POP POP JUMP JUMPDEST PUSH1 0x0 PUSH1 0x20 DUP3 ADD SWAP1 POP PUSH2 0x6D5 PUSH1 0x0 DUP4 ADD DUP5 PUSH2 0x6B1 JUMP JUMPDEST SWAP3 SWAP2 POP POP JUMP JUMPDEST PUSH1 0x0 DUP1 REVERT JUMPDEST PUSH1 0x0 PUSH20 0xFFFFFFFFFFFFFFFFFFFFFFFFFFFFFFFFFFFFFFFF DUP3 AND SWAP1 POP SWAP2 SWAP1 POP JUMP JUMPDEST PUSH1 0x0 PUSH2 0x70B DUP3 PUSH2 0x6E0 JUMP JUMPDEST SWAP1 POP SWAP2 SWAP1 POP JUMP JUMPDEST PUSH2 0x71B DUP2 PUSH2 0x700 JUMP JUMPDEST DUP2 EQ PUSH2 0x726 JUMPI PUSH1 0x0 DUP1 REVERT JUMPDEST POP JUMP JUMPDEST PUSH1 0x0 DUP2 CALLDATALOAD SWAP1 POP PUSH2 0x738 DUP2 PUSH2 0x712 JUMP JUMPDEST SWAP3 SWAP2 POP POP JUMP JUMPDEST PUSH1 0x0 PUSH1 0x20 DUP3 DUP5 SUB SLT ISZERO PUSH2 0x754 JUMPI PUSH2 0x753 PUSH2 0x6DB JUMP JUMPDEST JUMPDEST PUSH1 0x0 PUSH2 0x762 DUP5 DUP3 DUP6 ADD PUSH2 0x729 JUMP JUMPDEST SWAP2 POP POP SWAP3 SWAP2 POP POP JUMP JUMPDEST PUSH2 0x774 DUP2 PUSH2 0x700 JUMP JUMPDEST DUP3 MSTORE POP POP JUMP JUMPDEST PUSH1 0x0 PUSH1 0x20 DUP3 ADD SWAP1 POP PUSH2 0x78F PUSH1 0x0 DUP4 ADD DUP5 PUSH2 0x76B JUMP JUMPDEST SWAP3 SWAP2 POP POP JUMP JUMPDEST PUSH2 0x79E DUP2 PUSH2 0x6A7 JUMP JUMPDEST DUP2 EQ PUSH2 0x7A9 JUMPI PUSH1 0x0 DUP1 REVERT JUMPDEST POP JUMP JUMPDEST PUSH1 0x0 DUP2 CALLDATALOAD SWAP1 POP PUSH2 0x7BB DUP2 PUSH2 0x795 JUMP JUMPDEST SWAP3 SWAP2 POP POP JUMP JUMPDEST PUSH1 0x0 PUSH1 0x20 DUP3 DUP5 SUB SLT ISZERO PUSH2 0x7D7 JUMPI PUSH2 0x7D6 PUSH2 0x6DB JUMP JUMPDEST JUMPDEST PUSH1 0x0 PUSH2 0x7E5 DUP5 DUP3 DUP6 ADD PUSH2 0x7AC JUMP JUMPDEST SWAP2 POP POP SWAP3 SWAP2 POP POP JUMP JUMPDEST PUSH1 0x0 DUP3 DUP3 MSTORE PUSH1 0x20 DUP3 ADD SWAP1 POP SWAP3 SWAP2 POP POP JUMP JUMPDEST PUSH32 0x53656E646572206973206E6F7420746865206F776E6572210000000000000000 PUSH1 0x0 DUP3 ADD MSTORE POP JUMP JUMPDEST PUSH1 0x0 PUSH2 0x835 PUSH1 0x18 DUP4 PUSH2 0x7EE JUMP JUMPDEST SWAP2 POP PUSH2 0x840 DUP3 PUSH2 0x7FF JUMP JUMPDEST PUSH1 0x20 DUP3 ADD SWAP1 POP SWAP2 SWAP1 POP JUMP JUMPDEST PUSH1 0x0 PUSH1 0x20 DUP3 ADD SWAP1 POP DUP2 DUP2 SUB PUSH1 0x0 DUP4 ADD MSTORE PUSH2 0x864 DUP2 PUSH2 0x828 JUMP JUMPDEST SWAP1 POP SWAP2 SWAP1 POP JUMP JUMPDEST PUSH32 0x4E487B7100000000000000000000000000000000000000000000000000000000 PUSH1 0x0 MSTORE PUSH1 0x32 PUSH1 0x4 MSTORE PUSH1 0x24 PUSH1 0x0 REVERT JUMPDEST PUSH32 0x4E487B7100000000000000000000000000000000000000000000000000000000 PUSH1 0x0 MSTORE PUSH1 0x11 PUSH1 0x4 MSTORE PUSH1 0x24 PUSH1 0x0 REVERT JUMPDEST PUSH1 0x0 PUSH2 0x8D4 DUP3 PUSH2 0x6A7 JUMP JUMPDEST SWAP2 POP PUSH32 0xFFFFFFFFFFFFFFFFFFFFFFFFFFFFFFFFFFFFFFFFFFFFFFFFFFFFFFFFFFFFFFFF DUP3 SUB PUSH2 0x906 JUMPI PUSH2 0x905 PUSH2 0x89A JUMP JUMPDEST JUMPDEST PUSH1 0x1 DUP3 ADD SWAP1 POP SWAP2 SWAP1 POP JUMP JUMPDEST PUSH32 0x4E487B7100000000000000000000000000000000000000000000000000000000 PUSH1 0x0 MSTORE PUSH1 0x41 PUSH1 0x4 MSTORE PUSH1 0x24 PUSH1 0x0 REVERT JUMPDEST PUSH1 0x0 DUP2 SWAP1 POP SWAP3 SWAP2 POP POP JUMP JUMPDEST POP JUMP JUMPDEST PUSH1 0x0 PUSH2 0x95B PUSH1 0x0 DUP4 PUSH2 0x940 JUMP JUMPDEST SWAP2 POP PUSH2 0x966 DUP3 PUSH2 0x94B JUMP JUMPDEST PUSH1 0x0 DUP3 ADD SWAP1 POP SWAP2 SWAP1 POP JUMP JUMPDEST PUSH1 0x0 PUSH2 0x97C DUP3 PUSH2 0x94E JUMP JUMPDEST SWAP2 POP DUP2 SWAP1 POP SWAP2 SWAP1 POP JUMP JUMPDEST PUSH32 0x43616C6C206661696C6564000000000000000000000000000000000000000000 PUSH1 0x0 DUP3 ADD MSTORE POP JUMP JUMPDEST PUSH1 0x0 PUSH2 0x9BC PUSH1 0xB DUP4 PUSH2 0x7EE JUMP JUMPDEST SWAP2 POP PUSH2 0x9C7 DUP3 PUSH2 0x986 JUMP JUMPDEST PUSH1 0x20 DUP3 ADD SWAP1 POP SWAP2 SWAP1 POP JUMP JUMPDEST PUSH1 0x0 PUSH1 0x20 DUP3 ADD SWAP1 POP DUP2 DUP2 SUB PUSH1 0x0 DUP4 ADD MSTORE PUSH2 0x9EB DUP2 PUSH2 0x9AF JUMP JUMPDEST SWAP1 POP SWAP2 SWAP1 POP JUMP JUMPDEST PUSH32 0x4469646E27742073656E6420656E6F7567682100000000000000000000000000 PUSH1 0x0 DUP3 ADD MSTORE POP JUMP JUMPDEST PUSH1 0x0 PUSH2 0xA28 PUSH1 0x13 DUP4 PUSH2 0x7EE JUMP JUMPDEST SWAP2 POP PUSH2 0xA33 DUP3 PUSH2 0x9F2 JUMP JUMPDEST PUSH1 0x20 DUP3 ADD SWAP1 POP SWAP2 SWAP1 POP JUMP JUMPDEST PUSH1 0x0 PUSH1 0x20 DUP3 ADD SWAP1 POP DUP2 DUP2 SUB PUSH1 0x0 DUP4 ADD MSTORE PUSH2 0xA57 DUP2 PUSH2 0xA1B JUMP JUMPDEST SWAP1 POP SWAP2 SWAP1 POP JUMP JUMPDEST PUSH1 0x0 PUSH2 0xA69 DUP3 PUSH2 0x6A7 JUMP JUMPDEST SWAP2 POP PUSH2 0xA74 DUP4 PUSH2 0x6A7 JUMP JUMPDEST SWAP3 POP DUP2 PUSH32 0xFFFFFFFFFFFFFFFFFFFFFFFFFFFFFFFFFFFFFFFFFFFFFFFFFFFFFFFFFFFFFFFF DIV DUP4 GT DUP3 ISZERO ISZERO AND ISZERO PUSH2 0xAAD JUMPI PUSH2 0xAAC PUSH2 0x89A JUMP JUMPDEST JUMPDEST DUP3 DUP3 MUL SWAP1 POP SWAP3 SWAP2 POP POP JUMP JUMPDEST PUSH32 0x4E487B7100000000000000000000000000000000000000000000000000000000 PUSH1 0x0 MSTORE PUSH1 0x12 PUSH1 0x4 MSTORE PUSH1 0x24 PUSH1 0x0 REVERT JUMPDEST PUSH1 0x0 PUSH2 0xAF2 DUP3 PUSH2 0x6A7 JUMP JUMPDEST SWAP2 POP PUSH2 0xAFD DUP4 PUSH2 0x6A7 JUMP JUMPDEST SWAP3 POP DUP3 PUSH2 0xB0D JUMPI PUSH2 0xB0C PUSH2 0xAB8 JUMP JUMPDEST JUMPDEST DUP3 DUP3 DIV SWAP1 POP SWAP3 SWAP2 POP POP JUMP JUMPDEST PUSH1 0x0 PUSH10 0xFFFFFFFFFFFFFFFFFFFF DUP3 AND SWAP1 POP SWAP2 SWAP1 POP JUMP JUMPDEST PUSH2 0xB37 DUP2 PUSH2 0xB18 JUMP JUMPDEST DUP2 EQ PUSH2 0xB42 JUMPI PUSH1 0x0 DUP1 REVERT JUMPDEST POP JUMP JUMPDEST PUSH1 0x0 DUP2 MLOAD SWAP1 POP PUSH2 0xB54 DUP2 PUSH2 0xB2E JUMP JUMPDEST SWAP3 SWAP2 POP POP JUMP JUMPDEST PUSH1 0x0 DUP2 SWAP1 POP SWAP2 SWAP1 POP JUMP JUMPDEST PUSH2 0xB6D DUP2 PUSH2 0xB5A JUMP JUMPDEST DUP2 EQ PUSH2 0xB78 JUMPI PUSH1 0x0 DUP1 REVERT JUMPDEST POP JUMP JUMPDEST PUSH1 0x0 DUP2 MLOAD SWAP1 POP PUSH2 0xB8A DUP2 PUSH2 0xB64 JUMP JUMPDEST SWAP3 SWAP2 POP POP JUMP JUMPDEST PUSH1 0x0 DUP2 MLOAD SWAP1 POP PUSH2 0xB9F DUP2 PUSH2 0x795 JUMP JUMPDEST SWAP3 SWAP2 POP POP JUMP JUMPDEST PUSH1 0x0 DUP1 PUSH1 0x0 DUP1 PUSH1 0x0 PUSH1 0xA0 DUP7 DUP9 SUB SLT ISZERO PUSH2 0xBC1 JUMPI PUSH2 0xBC0 PUSH2 0x6DB JUMP JUMPDEST JUMPDEST PUSH1 0x0 PUSH2 0xBCF DUP9 DUP3 DUP10 ADD PUSH2 0xB45 JUMP JUMPDEST SWAP6 POP POP PUSH1 0x20 PUSH2 0xBE0 DUP9 DUP3 DUP10 ADD PUSH2 0xB7B JUMP JUMPDEST SWAP5 POP POP PUSH1 0x40 PUSH2 0xBF1 DUP9 DUP3 DUP10 ADD PUSH2 0xB90 JUMP JUMPDEST SWAP4 POP POP PUSH1 0x60 PUSH2 0xC02 DUP9 DUP3 DUP10 ADD PUSH2 0xB90 JUMP JUMPDEST SWAP3 POP POP PUSH1 0x80 PUSH2 0xC13 DUP9 DUP3 DUP10 ADD PUSH2 0xB45 JUMP JUMPDEST SWAP2 POP POP SWAP3 SWAP6 POP SWAP3 SWAP6 SWAP1 SWAP4 POP JUMP JUMPDEST PUSH1 0x0 PUSH2 0xC2B DUP3 PUSH2 0xB5A JUMP JUMPDEST SWAP2 POP PUSH2 0xC36 DUP4 PUSH2 0xB5A JUMP JUMPDEST SWAP3 POP DUP3 PUSH32 0x7FFFFFFFFFFFFFFFFFFFFFFFFFFFFFFFFFFFFFFFFFFFFFFFFFFFFFFFFFFFFFFF DIV DUP3 GT PUSH1 0x0 DUP5 SGT PUSH1 0x0 DUP5 SGT AND AND ISZERO PUSH2 0xC75 JUMPI PUSH2 0xC74 PUSH2 0x89A JUMP JUMPDEST JUMPDEST DUP2 PUSH32 0x8000000000000000000000000000000000000000000000000000000000000000 SDIV DUP4 SLT PUSH1 0x0 DUP5 SLT PUSH1 0x0 DUP5 SGT AND AND ISZERO PUSH2 0xCB2 JUMPI PUSH2 0xCB1 PUSH2 0x89A JUMP JUMPDEST JUMPDEST DUP3 PUSH32 0x8000000000000000000000000000000000000000000000000000000000000000 SDIV DUP3 SLT PUSH1 0x0 DUP5 SGT PUSH1 0x0 DUP5 SLT AND AND ISZERO PUSH2 0xCEF JUMPI PUSH2 0xCEE PUSH2 0x89A JUMP JUMPDEST JUMPDEST DUP3 PUSH32 0x7FFFFFFFFFFFFFFFFFFFFFFFFFFFFFFFFFFFFFFFFFFFFFFFFFFFFFFFFFFFFFFF SDIV DUP3 SLT PUSH1 0x0 DUP5 SLT PUSH1 0x0 DUP5 SLT AND AND ISZERO PUSH2 0xD2C JUMPI PUSH2 0xD2B PUSH2 0x89A JUMP JUMPDEST JUMPDEST DUP3 DUP3 MUL SWAP1 POP SWAP3 SWAP2 POP POP JUMP INVALID LOG2 PUSH5 0x6970667358 0x22 SLT KECCAK256 0xD5 PUSH15 0x80F4A5C6D672BB2CD0B6D519493BA8 0xD3 0x2F 0xBA CREATE2 0xC7 GASPRICE 0x4E PUSH2 0x4A13 PUSH8 0x71C9528A64736F6C PUSH4 0x4300080F STOP CALLER "
				},
				"gasEstimates": {
					"creation": {
						"codeDepositCost": "687400",
						"executionCost": "24987",
						"totalCost": "712387"
					},
					"external": {
						"MINUMUM_USD()": "307",
						"addressToAmountFunded(address)": "2836",
						"fund()": "infinite",
						"funders(uint256)": "5044",
						"owner()": "2558",
						"withdraw()": "infinite"
					}
				},
				"methodIdentifiers": {
					"MINUMUM_USD()": "116ebb2d",
					"addressToAmountFunded(address)": "3e47d6f3",
					"fund()": "b60d4288",
					"funders(uint256)": "dc0d3dff",
					"owner()": "8da5cb5b",
					"withdraw()": "3ccfd60b"
				}
			},
			"storageLayout": {
				"storage": [
					{
						"astId": 59,
						"contract": "contracts/FundMe.sol:FundMe",
						"label": "funders",
						"offset": 0,
						"slot": "0",
						"type": "t_array(t_address)dyn_storage"
					},
					{
						"astId": 63,
						"contract": "contracts/FundMe.sol:FundMe",
						"label": "addressToAmountFunded",
						"offset": 0,
						"slot": "1",
						"type": "t_mapping(t_address,t_uint256)"
					},
					{
						"astId": 65,
						"contract": "contracts/FundMe.sol:FundMe",
						"label": "owner",
						"offset": 0,
						"slot": "2",
						"type": "t_address"
					}
				],
				"types": {
					"t_address": {
						"encoding": "inplace",
						"label": "address",
						"numberOfBytes": "20"
					},
					"t_array(t_address)dyn_storage": {
						"base": "t_address",
						"encoding": "dynamic_array",
						"label": "address[]",
						"numberOfBytes": "32"
					},
					"t_mapping(t_address,t_uint256)": {
						"encoding": "mapping",
						"key": "t_address",
						"label": "mapping(address => uint256)",
						"numberOfBytes": "32",
						"value": "t_uint256"
					},
					"t_uint256": {
						"encoding": "inplace",
						"label": "uint256",
						"numberOfBytes": "32"
					}
				}
			},
			"userdoc": {
				"kind": "user",
				"methods": {},
				"version": 1
			}
		}
	}
}